{
  "_format": "hh-sol-artifact-1",
  "contractName": "SkyGreenContract",
  "sourceName": "src/blockchain/hardhat/contracts/SkyGreenContract.sol",
  "abi": [
    {
      "inputs": [],
      "stateMutability": "nonpayable",
      "type": "constructor"
    },
    {
      "anonymous": false,
      "inputs": [
        {
          "indexed": true,
          "internalType": "address",
          "name": "owner",
          "type": "address"
        },
        {
          "indexed": true,
          "internalType": "address",
          "name": "approved",
          "type": "address"
        },
        {
          "indexed": true,
          "internalType": "uint256",
          "name": "tokenId",
          "type": "uint256"
        }
      ],
      "name": "Approval",
      "type": "event"
    },
    {
      "anonymous": false,
      "inputs": [
        {
          "indexed": true,
          "internalType": "address",
          "name": "owner",
          "type": "address"
        },
        {
          "indexed": true,
          "internalType": "address",
          "name": "operator",
          "type": "address"
        },
        {
          "indexed": false,
          "internalType": "bool",
          "name": "approved",
          "type": "bool"
        }
      ],
      "name": "ApprovalForAll",
      "type": "event"
    },
    {
      "anonymous": false,
      "inputs": [
        {
          "indexed": true,
          "internalType": "bytes32",
          "name": "id",
          "type": "bytes32"
        }
      ],
      "name": "ChainlinkCancelled",
      "type": "event"
    },
    {
      "anonymous": false,
      "inputs": [
        {
          "indexed": true,
          "internalType": "bytes32",
          "name": "id",
          "type": "bytes32"
        }
      ],
      "name": "ChainlinkFulfilled",
      "type": "event"
    },
    {
      "anonymous": false,
      "inputs": [
        {
          "indexed": true,
          "internalType": "bytes32",
          "name": "id",
          "type": "bytes32"
        }
      ],
      "name": "ChainlinkRequested",
      "type": "event"
    },
    {
      "anonymous": false,
      "inputs": [
        {
          "indexed": true,
          "internalType": "bytes32",
          "name": "requestId",
          "type": "bytes32"
        },
        {
          "indexed": false,
          "internalType": "string",
          "name": "mean",
          "type": "string"
        },
        {
          "indexed": false,
          "internalType": "string",
          "name": "std",
          "type": "string"
        },
        {
          "indexed": false,
          "internalType": "string",
          "name": "max",
          "type": "string"
        },
        {
          "indexed": false,
          "internalType": "string",
          "name": "min",
          "type": "string"
        },
        {
          "indexed": false,
          "internalType": "string",
          "name": "uuid",
          "type": "string"
        },
        {
          "indexed": false,
          "internalType": "string",
          "name": "id",
          "type": "string"
        },
        {
          "indexed": false,
          "internalType": "string",
          "name": "parkName",
          "type": "string"
        }
      ],
      "name": "NvdiRegistered",
      "type": "event"
    },
    {
      "anonymous": false,
      "inputs": [
        {
          "indexed": true,
          "internalType": "address",
          "name": "from",
          "type": "address"
        },
        {
          "indexed": true,
          "internalType": "address",
          "name": "to",
          "type": "address"
        }
      ],
      "name": "OwnershipTransferRequested",
      "type": "event"
    },
    {
      "anonymous": false,
      "inputs": [
        {
          "indexed": true,
          "internalType": "address",
          "name": "from",
          "type": "address"
        },
        {
          "indexed": true,
          "internalType": "address",
          "name": "to",
          "type": "address"
        }
      ],
      "name": "OwnershipTransferred",
      "type": "event"
    },
    {
      "anonymous": false,
      "inputs": [
        {
          "indexed": true,
          "internalType": "address",
          "name": "from",
          "type": "address"
        },
        {
          "indexed": true,
          "internalType": "address",
          "name": "to",
          "type": "address"
        },
        {
          "indexed": true,
          "internalType": "uint256",
          "name": "tokenId",
          "type": "uint256"
        }
      ],
      "name": "Transfer",
      "type": "event"
    },
    {
      "inputs": [],
      "name": "acceptOwnership",
      "outputs": [],
      "stateMutability": "nonpayable",
      "type": "function"
    },
    {
      "inputs": [
        {
          "internalType": "address",
          "name": "to",
          "type": "address"
        },
        {
          "internalType": "uint256",
          "name": "tokenId",
          "type": "uint256"
        }
      ],
      "name": "approve",
      "outputs": [],
      "stateMutability": "nonpayable",
      "type": "function"
    },
    {
      "inputs": [
        {
          "internalType": "address",
          "name": "owner",
          "type": "address"
        }
      ],
      "name": "balanceOf",
      "outputs": [
        {
          "internalType": "uint256",
          "name": "",
          "type": "uint256"
        }
      ],
      "stateMutability": "view",
      "type": "function"
    },
    {
      "inputs": [
        {
          "internalType": "uint256",
          "name": "_tokenId",
          "type": "uint256"
        }
      ],
      "name": "changeNumber",
      "outputs": [],
      "stateMutability": "nonpayable",
      "type": "function"
    },
    {
      "inputs": [
        {
          "internalType": "bytes",
          "name": "",
          "type": "bytes"
        }
      ],
      "name": "checkUpkeep",
      "outputs": [
        {
          "internalType": "bool",
          "name": "upkeepNeeded",
          "type": "bool"
        },
        {
          "internalType": "bytes",
          "name": "",
          "type": "bytes"
        }
      ],
      "stateMutability": "view",
      "type": "function"
    },
    {
      "inputs": [
        {
          "internalType": "string",
          "name": "a",
          "type": "string"
        },
        {
          "internalType": "string",
          "name": "b",
          "type": "string"
        }
      ],
      "name": "compareStrings",
      "outputs": [
        {
          "internalType": "bool",
          "name": "",
          "type": "bool"
        }
      ],
      "stateMutability": "pure",
      "type": "function"
    },
    {
      "inputs": [
        {
          "internalType": "bytes32",
          "name": "requestId",
          "type": "bytes32"
        },
        {
          "internalType": "string",
          "name": "_mean",
          "type": "string"
        },
        {
          "internalType": "string",
          "name": "_std",
          "type": "string"
        },
        {
          "internalType": "string",
          "name": "_max",
          "type": "string"
        },
        {
          "internalType": "string",
          "name": "_min",
          "type": "string"
        },
        {
          "internalType": "string",
          "name": "_uuid",
          "type": "string"
        },
        {
          "internalType": "string",
          "name": "_id",
          "type": "string"
        }
      ],
      "name": "fulfillMultipleParameters",
      "outputs": [],
      "stateMutability": "nonpayable",
      "type": "function"
    },
    {
      "inputs": [
        {
          "internalType": "uint256",
          "name": "tokenId",
          "type": "uint256"
        }
      ],
      "name": "getApproved",
      "outputs": [
        {
          "internalType": "address",
          "name": "",
          "type": "address"
        }
      ],
      "stateMutability": "view",
      "type": "function"
    },
    {
      "inputs": [
        {
          "internalType": "address",
          "name": "owner",
          "type": "address"
        },
        {
          "internalType": "address",
          "name": "operator",
          "type": "address"
        }
      ],
      "name": "isApprovedForAll",
      "outputs": [
        {
          "internalType": "bool",
          "name": "",
          "type": "bool"
        }
      ],
      "stateMutability": "view",
      "type": "function"
    },
    {
      "inputs": [],
      "name": "name",
      "outputs": [
        {
          "internalType": "string",
          "name": "",
          "type": "string"
        }
      ],
      "stateMutability": "view",
      "type": "function"
    },
    {
      "inputs": [
        {
          "internalType": "uint256",
          "name": "_tokenId",
          "type": "uint256"
        }
      ],
      "name": "numberStage",
      "outputs": [
        {
          "internalType": "uint256",
          "name": "",
          "type": "uint256"
        }
      ],
      "stateMutability": "view",
      "type": "function"
    },
    {
      "inputs": [],
      "name": "owner",
      "outputs": [
        {
          "internalType": "address",
          "name": "",
          "type": "address"
        }
      ],
      "stateMutability": "view",
      "type": "function"
    },
    {
      "inputs": [
        {
          "internalType": "uint256",
          "name": "tokenId",
          "type": "uint256"
        }
      ],
      "name": "ownerOf",
      "outputs": [
        {
          "internalType": "address",
          "name": "",
          "type": "address"
        }
      ],
      "stateMutability": "view",
      "type": "function"
    },
    {
      "inputs": [
        {
          "internalType": "bytes",
          "name": "",
          "type": "bytes"
        }
      ],
      "name": "performUpkeep",
      "outputs": [],
      "stateMutability": "nonpayable",
      "type": "function"
    },
    {
      "inputs": [
        {
          "internalType": "bytes32",
          "name": "requestId",
          "type": "bytes32"
        },
        {
          "internalType": "string",
          "name": "_mean",
          "type": "string"
        },
        {
          "internalType": "string",
          "name": "_std",
          "type": "string"
        },
        {
          "internalType": "string",
          "name": "_max",
          "type": "string"
        },
        {
          "internalType": "string",
          "name": "_min",
          "type": "string"
        },
        {
          "internalType": "string",
          "name": "_uuid",
          "type": "string"
        },
        {
          "internalType": "string",
          "name": "_id",
          "type": "string"
        }
      ],
      "name": "requestHook",
      "outputs": [],
      "stateMutability": "nonpayable",
      "type": "function"
    },
    {
      "inputs": [
        {
          "internalType": "string",
          "name": "_url",
          "type": "string"
        }
      ],
      "name": "requestMultipleParameters",
      "outputs": [],
      "stateMutability": "nonpayable",
      "type": "function"
    },
    {
      "inputs": [
        {
          "internalType": "address",
          "name": "_to",
          "type": "address"
        },
        {
          "internalType": "string",
          "name": "_name",
          "type": "string"
        },
        {
          "internalType": "uint256",
          "name": "_service",
          "type": "uint256"
        }
      ],
      "name": "safeMint",
      "outputs": [],
      "stateMutability": "payable",
      "type": "function"
    },
    {
      "inputs": [
        {
          "internalType": "address",
          "name": "from",
          "type": "address"
        },
        {
          "internalType": "address",
          "name": "to",
          "type": "address"
        },
        {
          "internalType": "uint256",
          "name": "tokenId",
          "type": "uint256"
        }
      ],
      "name": "safeTransferFrom",
      "outputs": [],
      "stateMutability": "nonpayable",
      "type": "function"
    },
    {
      "inputs": [
        {
          "internalType": "address",
          "name": "from",
          "type": "address"
        },
        {
          "internalType": "address",
          "name": "to",
          "type": "address"
        },
        {
          "internalType": "uint256",
          "name": "tokenId",
          "type": "uint256"
        },
        {
          "internalType": "bytes",
          "name": "data",
          "type": "bytes"
        }
      ],
      "name": "safeTransferFrom",
      "outputs": [],
      "stateMutability": "nonpayable",
      "type": "function"
    },
    {
      "inputs": [
        {
          "internalType": "address",
          "name": "operator",
          "type": "address"
        },
        {
          "internalType": "bool",
          "name": "approved",
          "type": "bool"
        }
      ],
      "name": "setApprovalForAll",
      "outputs": [],
      "stateMutability": "nonpayable",
      "type": "function"
    },
    {
      "inputs": [
        {
          "internalType": "bytes4",
          "name": "interfaceId",
          "type": "bytes4"
        }
      ],
      "name": "supportsInterface",
      "outputs": [
        {
          "internalType": "bool",
          "name": "",
          "type": "bool"
        }
      ],
      "stateMutability": "view",
      "type": "function"
    },
    {
      "inputs": [],
      "name": "symbol",
      "outputs": [
        {
          "internalType": "string",
          "name": "",
          "type": "string"
        }
      ],
      "stateMutability": "view",
      "type": "function"
    },
    {
      "inputs": [],
      "name": "tokenIdCounter",
      "outputs": [
        {
          "internalType": "uint256",
          "name": "_value",
          "type": "uint256"
        }
      ],
      "stateMutability": "view",
      "type": "function"
    },
    {
      "inputs": [
        {
          "internalType": "uint256",
          "name": "tokenId",
          "type": "uint256"
        }
      ],
      "name": "tokenURI",
      "outputs": [
        {
          "internalType": "string",
          "name": "",
          "type": "string"
        }
      ],
      "stateMutability": "view",
      "type": "function"
    },
    {
      "inputs": [
        {
          "internalType": "address",
          "name": "from",
          "type": "address"
        },
        {
          "internalType": "address",
          "name": "to",
          "type": "address"
        },
        {
          "internalType": "uint256",
          "name": "tokenId",
          "type": "uint256"
        }
      ],
      "name": "transferFrom",
      "outputs": [],
      "stateMutability": "nonpayable",
      "type": "function"
    },
    {
      "inputs": [
        {
          "internalType": "address",
          "name": "to",
          "type": "address"
        }
      ],
      "name": "transferOwnership",
      "outputs": [],
      "stateMutability": "nonpayable",
      "type": "function"
    },
    {
      "inputs": [],
      "name": "withdrawLink",
      "outputs": [],
      "stateMutability": "nonpayable",
      "type": "function"
    }
  ],
  "bytecode": "0x60e06040526001600b55607860809081525067011c37937e08000060a090815250600060c0908152506040518061028001604052806040518060600160405280603b81526020016200665e603b913981526020016040518060600160405280603b81526020016200682f603b913981526020016040518060600160405280603b81526020016200698a603b913981526020016040518060600160405280603b8152602001620067bb603b913981526020016040518060600160405280603b815260200162006699603b91398152602001604051806060016040528060398152602001620067f660399139815260200160405180606001604052806039815260200162006a396039913981526020016040518060600160405280603981526020016200686a603991398152602001604051806060016040528060398152602001620069516039913981526020016040518060600160405280603981526020016200670e6039913981526020016040518060600160405280603a8152602001620069ff603a913981526020016040518060600160405280603a815260200162006624603a913981526020016040518060600160405280603a815260200162006917603a913981526020016040518060600160405280603a815260200162006a72603a913981526020016040518060600160405280603a815260200162006781603a913981526020016040518060600160405280603a8152602001620068dd603a913981526020016040518060600160405280603a8152602001620066d4603a913981526020016040518060600160405280603a8152602001620069c5603a913981526020016040518060600160405280603a815260200162006747603a913981526020016040518060600160405280603a8152602001620068a3603a91398152506015906014620002b0929190620006f5565b50348015620002be57600080fd5b50338060006040518060400160405280600881526020017f736b79677265656e0000000000000000000000000000000000000000000000008152506040518060400160405280600381526020017f534b470000000000000000000000000000000000000000000000000000000000815250816000908162000340919062000a5c565b50806001908162000352919062000a5c565b505050600073ffffffffffffffffffffffffffffffffffffffff168273ffffffffffffffffffffffffffffffffffffffff1603620003c7576040517f08c379a0000000000000000000000000000000000000000000000000000000008152600401620003be9062000ba4565b60405180910390fd5b81600d60006101000a81548173ffffffffffffffffffffffffffffffffffffffff021916908373ffffffffffffffffffffffffffffffffffffffff160217905550600073ffffffffffffffffffffffffffffffffffffffff168173ffffffffffffffffffffffffffffffffffffffff16146200044f576200044e816200053c60201b60201c565b5b5050506200047773326c977e6efc84e512bb9c30f76e30c160ed06fb6200066d60201b60201c565b6200049c73b00282b9dbff5b6e07dddfe5540caebf0d8c6ff7620006b160201b60201c565b7f3038323864386461653739393463636438336461356463346330323631653336600f81905550600a670de0b6b3a76400006001620004dc919062000bf5565b620004e8919062000c85565b6010819055504260148190555033601260006101000a81548173ffffffffffffffffffffffffffffffffffffffff021916908373ffffffffffffffffffffffffffffffffffffffff16021790555062000d2f565b3373ffffffffffffffffffffffffffffffffffffffff168173ffffffffffffffffffffffffffffffffffffffff1603620005ad576040517f08c379a0000000000000000000000000000000000000000000000000000000008152600401620005a49062000d0d565b60405180910390fd5b80600e60006101000a81548173ffffffffffffffffffffffffffffffffffffffff021916908373ffffffffffffffffffffffffffffffffffffffff1602179055508073ffffffffffffffffffffffffffffffffffffffff16600d60009054906101000a900473ffffffffffffffffffffffffffffffffffffffff1673ffffffffffffffffffffffffffffffffffffffff167fed8889f560326eb138920d842192f0eb3dd22b4f139c87a2c57538e05bae127860405160405180910390a350565b80600960006101000a81548173ffffffffffffffffffffffffffffffffffffffff021916908373ffffffffffffffffffffffffffffffffffffffff16021790555050565b80600a60006101000a81548173ffffffffffffffffffffffffffffffffffffffff021916908373ffffffffffffffffffffffffffffffffffffffff16021790555050565b82805482825590600052602060002090810192821562000742579160200282015b828111156200074157825182908162000730919062000a5c565b509160200191906001019062000716565b5b50905062000751919062000755565b5090565b5b808211156200077957600081816200076f91906200077d565b5060010162000756565b5090565b5080546200078b906200084b565b6000825580601f106200079f5750620007c0565b601f016020900490600052602060002090810190620007bf9190620007c3565b5b50565b5b80821115620007de576000816000905550600101620007c4565b5090565b600081519050919050565b7f4e487b7100000000000000000000000000000000000000000000000000000000600052604160045260246000fd5b7f4e487b7100000000000000000000000000000000000000000000000000000000600052602260045260246000fd5b600060028204905060018216806200086457607f821691505b6020821081036200087a57620008796200081c565b5b50919050565b60008190508160005260206000209050919050565b60006020601f8301049050919050565b600082821b905092915050565b600060088302620008e47fffffffffffffffffffffffffffffffffffffffffffffffffffffffffffffffff82620008a5565b620008f08683620008a5565b95508019841693508086168417925050509392505050565b6000819050919050565b6000819050919050565b60006200093d62000937620009318462000908565b62000912565b62000908565b9050919050565b6000819050919050565b62000959836200091c565b62000971620009688262000944565b848454620008b2565b825550505050565b600090565b6200098862000979565b620009958184846200094e565b505050565b5b81811015620009bd57620009b16000826200097e565b6001810190506200099b565b5050565b601f82111562000a0c57620009d68162000880565b620009e18462000895565b81016020851015620009f1578190505b62000a0962000a008562000895565b8301826200099a565b50505b505050565b600082821c905092915050565b600062000a316000198460080262000a11565b1980831691505092915050565b600062000a4c838362000a1e565b9150826002028217905092915050565b62000a6782620007e2565b67ffffffffffffffff81111562000a835762000a82620007ed565b5b62000a8f82546200084b565b62000a9c828285620009c1565b600060209050601f83116001811462000ad4576000841562000abf578287015190505b62000acb858262000a3e565b86555062000b3b565b601f19841662000ae48662000880565b60005b8281101562000b0e5784890151825560018201915060208501945060208101905062000ae7565b8683101562000b2e578489015162000b2a601f89168262000a1e565b8355505b6001600288020188555050505b505050505050565b600082825260208201905092915050565b7f43616e6e6f7420736574206f776e657220746f207a65726f0000000000000000600082015250565b600062000b8c60188362000b43565b915062000b998262000b54565b602082019050919050565b6000602082019050818103600083015262000bbf8162000b7d565b9050919050565b7f4e487b7100000000000000000000000000000000000000000000000000000000600052601160045260246000fd5b600062000c028262000908565b915062000c0f8362000908565b9250817fffffffffffffffffffffffffffffffffffffffffffffffffffffffffffffffff048311821515161562000c4b5762000c4a62000bc6565b5b828202905092915050565b7f4e487b7100000000000000000000000000000000000000000000000000000000600052601260045260246000fd5b600062000c928262000908565b915062000c9f8362000908565b92508262000cb25762000cb162000c56565b5b828204905092915050565b7f43616e6e6f74207472616e7366657220746f2073656c66000000000000000000600082015250565b600062000cf560178362000b43565b915062000d028262000cbd565b602082019050919050565b6000602082019050818103600083015262000d288162000ce6565b9050919050565b60805160a05160c0516158c462000d60600039600050506000505060008181610ac10152610c6301526158c46000f3fe60806040526004361061019c5760003560e01c806385bf9d5b116100ec578063bed34bba1161008a578063e063ad3311610064578063e063ad33146105c8578063e985e9c5146105f1578063f2fde38b1461062e578063ffebd172146106575761019c565b8063bed34bba14610532578063c772745a1461056f578063c87b56dd1461058b5761019c565b806395d89b41116100c657806395d89b411461048a57806398bdf6f5146104b5578063a22cb465146104e0578063b88d4fde146105095761019c565b806385bf9d5b1461040b5780638da5cb5b146104485780638dc654a2146104735761019c565b806342842e0e116101595780636352211e116101335780636352211e1461033c5780636e04ff0d1461037957806370a08231146103b757806379ba5097146103f45761019c565b806342842e0e146102c15780634585e33b146102ea57806352d0b7fb146103135761019c565b806301ffc9a7146101a157806306fdde03146101de57806307391dd614610209578063081812fc14610232578063095ea7b31461026f57806323b872dd14610298575b600080fd5b3480156101ad57600080fd5b506101c860048036038101906101c39190613a2b565b610680565b6040516101d59190613a73565b60405180910390f35b3480156101ea57600080fd5b506101f3610762565b6040516102009190613b27565b60405180910390f35b34801561021557600080fd5b50610230600480360381019061022b9190613b7f565b6107f4565b005b34801561023e57600080fd5b5061025960048036038101906102549190613b7f565b6108e2565b6040516102669190613bed565b60405180910390f35b34801561027b57600080fd5b5061029660048036038101906102919190613c34565b610928565b005b3480156102a457600080fd5b506102bf60048036038101906102ba9190613c74565b610a3f565b005b3480156102cd57600080fd5b506102e860048036038101906102e39190613c74565b610a9f565b005b3480156102f657600080fd5b50610311600480360381019061030c9190613d2c565b610abf565b005b34801561031f57600080fd5b5061033a60048036038101906103359190613edf565b610b24565b005b34801561034857600080fd5b50610363600480360381019061035e9190613b7f565b610b72565b6040516103709190613bed565b60405180910390f35b34801561038557600080fd5b506103a0600480360381019061039b9190613d2c565b610c23565b6040516103ae92919061407e565b60405180910390f35b3480156103c357600080fd5b506103de60048036038101906103d991906140ae565b610c9d565b6040516103eb91906140ea565b60405180910390f35b34801561040057600080fd5b50610409610d54565b005b34801561041757600080fd5b50610432600480360381019061042d9190613b7f565b610eeb565b60405161043f91906140ea565b60405180910390f35b34801561045457600080fd5b5061045d611744565b60405161046a9190613bed565b60405180910390f35b34801561047f57600080fd5b5061048861176e565b005b34801561049657600080fd5b5061049f6118bb565b6040516104ac9190613b27565b60405180910390f35b3480156104c157600080fd5b506104ca61194d565b6040516104d791906140ea565b60405180910390f35b3480156104ec57600080fd5b5061050760048036038101906105029190614131565b611959565b005b34801561051557600080fd5b50610530600480360381019061052b9190614212565b61196f565b005b34801561053e57600080fd5b5061055960048036038101906105549190614295565b6119d1565b6040516105669190613a73565b60405180910390f35b6105896004803603810190610584919061430d565b611a2a565b005b34801561059757600080fd5b506105b260048036038101906105ad9190613b7f565b611ba5565b6040516105bf9190613b27565b60405180910390f35b3480156105d457600080fd5b506105ef60048036038101906105ea9190613edf565b611bb7565b005b3480156105fd57600080fd5b506106186004803603810190610613919061437c565b611cd5565b6040516106259190613a73565b60405180910390f35b34801561063a57600080fd5b50610655600480360381019061065091906140ae565b611d69565b005b34801561066357600080fd5b5061067e600480360381019061067991906143bc565b611d7d565b005b60007f80ac58cd000000000000000000000000000000000000000000000000000000007bffffffffffffffffffffffffffffffffffffffffffffffffffffffff1916827bffffffffffffffffffffffffffffffffffffffffffffffffffffffff1916148061074b57507f5b5e139f000000000000000000000000000000000000000000000000000000007bffffffffffffffffffffffffffffffffffffffffffffffffffffffff1916827bffffffffffffffffffffffffffffffffffffffffffffffffffffffff1916145b8061075b575061075a826120ea565b5b9050919050565b60606000805461077190614434565b80601f016020809104026020016040519081016040528092919081815260200182805461079d90614434565b80156107ea5780601f106107bf576101008083540402835291602001916107ea565b820191906000526020600020905b8154815290600101906020018083116107cd57829003601f168201915b5050505050905090565b600c6107ff82610eeb565b10156108df576000600161081283610eeb565b61081c9190614494565b9050600060158281548110610834576108336144ea565b5b90600052602060002001805461084990614434565b80601f016020809104026020016040519081016040528092919081815260200182805461087590614434565b80156108c25780601f10610897576101008083540402835291602001916108c2565b820191906000526020600020905b8154815290600101906020018083116108a557829003601f168201915b505050505090506108d38382612154565b6108dc81611d7d565b50505b50565b60006108ed826121c1565b6004600083815260200190815260200160002060009054906101000a900473ffffffffffffffffffffffffffffffffffffffff169050919050565b600061093382610b72565b90508073ffffffffffffffffffffffffffffffffffffffff168373ffffffffffffffffffffffffffffffffffffffff16036109a3576040517f08c379a000000000000000000000000000000000000000000000000000000000815260040161099a9061458b565b60405180910390fd5b8073ffffffffffffffffffffffffffffffffffffffff166109c261220c565b73ffffffffffffffffffffffffffffffffffffffff1614806109f157506109f0816109eb61220c565b611cd5565b5b610a30576040517f08c379a0000000000000000000000000000000000000000000000000000000008152600401610a279061461d565b60405180910390fd5b610a3a8383612214565b505050565b610a50610a4a61220c565b826122cd565b610a8f576040517f08c379a0000000000000000000000000000000000000000000000000000000008152600401610a86906146af565b60405180910390fd5b610a9a838383612362565b505050565b610aba8383836040518060200160405280600081525061196f565b505050565b7f000000000000000000000000000000000000000000000000000000000000000060145442610aee91906146cf565b1115610b20574260148190555060006001610b0960116125c8565b610b1391906146cf565b9050610b1e816107f4565b505b5050565b867fd5dcdf864f2f2afc89ae401a5e7f5cff760626fdf13a0e0e4601e74c726ae1d48787878787876013604051610b61979695949392919061479c565b60405180910390a250505050505050565b6000806002600084815260200190815260200160002060009054906101000a900473ffffffffffffffffffffffffffffffffffffffff169050600073ffffffffffffffffffffffffffffffffffffffff168173ffffffffffffffffffffffffffffffffffffffff1603610c1a576040517f08c379a0000000000000000000000000000000000000000000000000000000008152600401610c1190614888565b60405180910390fd5b80915050919050565b6000606060006001610c3560116125c8565b610c3f91906146cf565b90506000600c610c4e83610eeb565b10610c5857600190505b80158015610c9257507f000000000000000000000000000000000000000000000000000000000000000060145442610c9091906146cf565b115b935050509250929050565b60008073ffffffffffffffffffffffffffffffffffffffff168273ffffffffffffffffffffffffffffffffffffffff1603610d0d576040517f08c379a0000000000000000000000000000000000000000000000000000000008152600401610d049061491a565b60405180910390fd5b600360008373ffffffffffffffffffffffffffffffffffffffff1673ffffffffffffffffffffffffffffffffffffffff168152602001908152602001600020549050919050565b600e60009054906101000a900473ffffffffffffffffffffffffffffffffffffffff1673ffffffffffffffffffffffffffffffffffffffff163373ffffffffffffffffffffffffffffffffffffffff1614610de4576040517f08c379a0000000000000000000000000000000000000000000000000000000008152600401610ddb90614986565b60405180910390fd5b6000600d60009054906101000a900473ffffffffffffffffffffffffffffffffffffffff16905033600d60006101000a81548173ffffffffffffffffffffffffffffffffffffffff021916908373ffffffffffffffffffffffffffffffffffffffff1602179055506000600e60006101000a81548173ffffffffffffffffffffffffffffffffffffffff021916908373ffffffffffffffffffffffffffffffffffffffff1602179055503373ffffffffffffffffffffffffffffffffffffffff168173ffffffffffffffffffffffffffffffffffffffff167f8be0079c531659141344cd1fd0a4f28419497f9722a3daafe3b4186f6b6457e060405160405180910390a350565b600080610ef783611ba5565b9050610faa816015600081548110610f1257610f116144ea565b5b906000526020600020018054610f2790614434565b80601f0160208091040260200160405190810160405280929190818152602001828054610f5390614434565b8015610fa05780601f10610f7557610100808354040283529160200191610fa0565b820191906000526020600020905b815481529060010190602001808311610f8357829003601f168201915b50505050506119d1565b15610fb957600091505061173f565b61106a816015600181548110610fd257610fd16144ea565b5b906000526020600020018054610fe790614434565b80601f016020809104026020016040519081016040528092919081815260200182805461101390614434565b80156110605780601f1061103557610100808354040283529160200191611060565b820191906000526020600020905b81548152906001019060200180831161104357829003601f168201915b50505050506119d1565b1561107957600191505061173f565b61112a816015600281548110611092576110916144ea565b5b9060005260206000200180546110a790614434565b80601f01602080910402602001604051908101604052809291908181526020018280546110d390614434565b80156111205780601f106110f557610100808354040283529160200191611120565b820191906000526020600020905b81548152906001019060200180831161110357829003601f168201915b50505050506119d1565b1561113957600291505061173f565b6111ea816015600381548110611152576111516144ea565b5b90600052602060002001805461116790614434565b80601f016020809104026020016040519081016040528092919081815260200182805461119390614434565b80156111e05780601f106111b5576101008083540402835291602001916111e0565b820191906000526020600020905b8154815290600101906020018083116111c357829003601f168201915b50505050506119d1565b156111f957600391505061173f565b6112aa816015600481548110611212576112116144ea565b5b90600052602060002001805461122790614434565b80601f016020809104026020016040519081016040528092919081815260200182805461125390614434565b80156112a05780601f10611275576101008083540402835291602001916112a0565b820191906000526020600020905b81548152906001019060200180831161128357829003601f168201915b50505050506119d1565b156112b957600091505061173f565b61136a8160156005815481106112d2576112d16144ea565b5b9060005260206000200180546112e790614434565b80601f016020809104026020016040519081016040528092919081815260200182805461131390614434565b80156113605780601f1061133557610100808354040283529160200191611360565b820191906000526020600020905b81548152906001019060200180831161134357829003601f168201915b50505050506119d1565b1561137957600191505061173f565b61142a816015600681548110611392576113916144ea565b5b9060005260206000200180546113a790614434565b80601f01602080910402602001604051908101604052809291908181526020018280546113d390614434565b80156114205780601f106113f557610100808354040283529160200191611420565b820191906000526020600020905b81548152906001019060200180831161140357829003601f168201915b50505050506119d1565b1561143957600291505061173f565b6114ea816015600781548110611452576114516144ea565b5b90600052602060002001805461146790614434565b80601f016020809104026020016040519081016040528092919081815260200182805461149390614434565b80156114e05780601f106114b5576101008083540402835291602001916114e0565b820191906000526020600020905b8154815290600101906020018083116114c357829003601f168201915b50505050506119d1565b156114f957600391505061173f565b6115aa816015600881548110611512576115116144ea565b5b90600052602060002001805461152790614434565b80601f016020809104026020016040519081016040528092919081815260200182805461155390614434565b80156115a05780601f10611575576101008083540402835291602001916115a0565b820191906000526020600020905b81548152906001019060200180831161158357829003601f168201915b50505050506119d1565b156115b957600191505061173f565b61166a8160156009815481106115d2576115d16144ea565b5b9060005260206000200180546115e790614434565b80601f016020809104026020016040519081016040528092919081815260200182805461161390614434565b80156116605780601f1061163557610100808354040283529160200191611660565b820191906000526020600020905b81548152906001019060200180831161164357829003601f168201915b50505050506119d1565b1561167957600291505061173f565b61172a816015600a81548110611692576116916144ea565b5b9060005260206000200180546116a790614434565b80601f01602080910402602001604051908101604052809291908181526020018280546116d390614434565b80156117205780601f106116f557610100808354040283529160200191611720565b820191906000526020600020905b81548152906001019060200180831161170357829003601f168201915b50505050506119d1565b1561173957600391505061173f565b600b9150505b919050565b6000600d60009054906101000a900473ffffffffffffffffffffffffffffffffffffffff16905090565b6117766125d6565b6000611780612668565b90508073ffffffffffffffffffffffffffffffffffffffff1663a9059cbb338373ffffffffffffffffffffffffffffffffffffffff166370a08231306040518263ffffffff1660e01b81526004016117d89190613bed565b602060405180830381865afa1580156117f5573d6000803e3d6000fd5b505050506040513d601f19601f8201168201806040525081019061181991906149bb565b6040518363ffffffff1660e01b81526004016118369291906149e8565b6020604051808303816000875af1158015611855573d6000803e3d6000fd5b505050506040513d601f19601f820116820180604052508101906118799190614a26565b6118b8576040517f08c379a00000000000000000000000000000000000000000000000000000000081526004016118af90614a9f565b60405180910390fd5b50565b6060600180546118ca90614434565b80601f01602080910402602001604051908101604052809291908181526020018280546118f690614434565b80156119435780601f1061191857610100808354040283529160200191611943565b820191906000526020600020905b81548152906001019060200180831161192657829003601f168201915b5050505050905090565b60118060000154905081565b61196b61196461220c565b8383612692565b5050565b61198061197a61220c565b836122cd565b6119bf576040517f08c379a00000000000000000000000000000000000000000000000000000000081526004016119b6906146af565b60405180910390fd5b6119cb848484846127fe565b50505050565b6000816040516020016119e49190614afb565b6040516020818303038152906040528051906020012083604051602001611a0b9190614afb565b6040516020818303038152906040528051906020012014905092915050565b611a326125d6565b80341015611a75576040517f08c379a0000000000000000000000000000000000000000000000000000000008152600401611a6c90614b5e565b60405180910390fd5b8273ffffffffffffffffffffffffffffffffffffffff166108fc349081150290604051600060405180830381858888f19350505050158015611abb573d6000803e3d6000fd5b506000611ac860116125c8565b9050611ad4601161285a565b8260139081611ae39190614d15565b50611aee8482612870565b611b9f816015600081548110611b0757611b066144ea565b5b906000526020600020018054611b1c90614434565b80601f0160208091040260200160405190810160405280929190818152602001828054611b4890614434565b8015611b955780601f10611b6a57610100808354040283529160200191611b95565b820191906000526020600020905b815481529060010190602001808311611b7857829003601f168201915b5050505050612154565b50505050565b6060611bb08261288e565b9050919050565b86600c600082815260200190815260200160002060009054906101000a900473ffffffffffffffffffffffffffffffffffffffff1673ffffffffffffffffffffffffffffffffffffffff163373ffffffffffffffffffffffffffffffffffffffff1614611c59576040517f08c379a0000000000000000000000000000000000000000000000000000000008152600401611c5090614e59565b60405180910390fd5b600c600082815260200190815260200160002060006101000a81549073ffffffffffffffffffffffffffffffffffffffff0219169055807f7cc135e0cebb02c3480ae5d74d377283180a2601f8f644edf7987b009316c63a60405160405180910390a2611ccb88888888888888610b24565b5050505050505050565b6000600560008473ffffffffffffffffffffffffffffffffffffffff1673ffffffffffffffffffffffffffffffffffffffff16815260200190815260200160002060008373ffffffffffffffffffffffffffffffffffffffff1673ffffffffffffffffffffffffffffffffffffffff16815260200190815260200160002060009054906101000a900460ff16905092915050565b611d716125d6565b611d7a816129a0565b50565b6000611d93600f543063e063ad3360e01b612ace565b9050611ddf6040518060400160405280600381526020017f67657400000000000000000000000000000000000000000000000000000000008152508383612aff9092919063ffffffff16565b611e5e6040518060400160405280600481526020017f6d65616e000000000000000000000000000000000000000000000000000000008152506040518060400160405280600981526020017f6e6476692c6d65616e000000000000000000000000000000000000000000000081525083612aff9092919063ffffffff16565b611edd6040518060400160405280600381526020017f73746400000000000000000000000000000000000000000000000000000000008152506040518060400160405280600881526020017f6e6476692c73746400000000000000000000000000000000000000000000000081525083612aff9092919063ffffffff16565b611f5c6040518060400160405280600381526020017f6d617800000000000000000000000000000000000000000000000000000000008152506040518060400160405280600881526020017f6e6476692c6d617800000000000000000000000000000000000000000000000081525083612aff9092919063ffffffff16565b611fdb6040518060400160405280600381526020017f6d696e00000000000000000000000000000000000000000000000000000000008152506040518060400160405280600881526020017f6e6476692c6d696e00000000000000000000000000000000000000000000000081525083612aff9092919063ffffffff16565b61205a6040518060400160405280600681526020017f757569645f7000000000000000000000000000000000000000000000000000008152506040518060400160405280600b81526020017f6e6476692c757569645f7000000000000000000000000000000000000000000081525083612aff9092919063ffffffff16565b6120d96040518060400160405280600481526020017f69645f70000000000000000000000000000000000000000000000000000000008152506040518060400160405280600981526020017f6e6476692c69645f70000000000000000000000000000000000000000000000081525083612aff9092919063ffffffff16565b6120e581601054612b32565b505050565b60007f01ffc9a7000000000000000000000000000000000000000000000000000000007bffffffffffffffffffffffffffffffffffffffffffffffffffffffff1916827bffffffffffffffffffffffffffffffffffffffffffffffffffffffff1916149050919050565b61215d82612b69565b61219c576040517f08c379a000000000000000000000000000000000000000000000000000000000815260040161219390614eeb565b60405180910390fd5b806006600084815260200190815260200160002090816121bc9190614d15565b505050565b6121ca81612b69565b612209576040517f08c379a000000000000000000000000000000000000000000000000000000000815260040161220090614888565b60405180910390fd5b50565b600033905090565b816004600083815260200190815260200160002060006101000a81548173ffffffffffffffffffffffffffffffffffffffff021916908373ffffffffffffffffffffffffffffffffffffffff160217905550808273ffffffffffffffffffffffffffffffffffffffff1661228783610b72565b73ffffffffffffffffffffffffffffffffffffffff167f8c5be1e5ebec7d5bd14f71427d1e84f3dd0314c0f7b2291e5b200ac8c7c3b92560405160405180910390a45050565b6000806122d983610b72565b90508073ffffffffffffffffffffffffffffffffffffffff168473ffffffffffffffffffffffffffffffffffffffff16148061231b575061231a8185611cd5565b5b8061235957508373ffffffffffffffffffffffffffffffffffffffff16612341846108e2565b73ffffffffffffffffffffffffffffffffffffffff16145b91505092915050565b8273ffffffffffffffffffffffffffffffffffffffff1661238282610b72565b73ffffffffffffffffffffffffffffffffffffffff16146123d8576040517f08c379a00000000000000000000000000000000000000000000000000000000081526004016123cf90614f7d565b60405180910390fd5b600073ffffffffffffffffffffffffffffffffffffffff168273ffffffffffffffffffffffffffffffffffffffff1603612447576040517f08c379a000000000000000000000000000000000000000000000000000000000815260040161243e9061500f565b60405180910390fd5b612452838383612bd5565b61245d600082612214565b6001600360008573ffffffffffffffffffffffffffffffffffffffff1673ffffffffffffffffffffffffffffffffffffffff16815260200190815260200160002060008282546124ad91906146cf565b925050819055506001600360008473ffffffffffffffffffffffffffffffffffffffff1673ffffffffffffffffffffffffffffffffffffffff16815260200190815260200160002060008282546125049190614494565b92505081905550816002600083815260200190815260200160002060006101000a81548173ffffffffffffffffffffffffffffffffffffffff021916908373ffffffffffffffffffffffffffffffffffffffff160217905550808273ffffffffffffffffffffffffffffffffffffffff168473ffffffffffffffffffffffffffffffffffffffff167fddf252ad1be2c89b69c2b068fc378daa952ba7f163c4a11628f55a4df523b3ef60405160405180910390a46125c3838383612bda565b505050565b600081600001549050919050565b600d60009054906101000a900473ffffffffffffffffffffffffffffffffffffffff1673ffffffffffffffffffffffffffffffffffffffff163373ffffffffffffffffffffffffffffffffffffffff1614612666576040517f08c379a000000000000000000000000000000000000000000000000000000000815260040161265d9061507b565b60405180910390fd5b565b6000600960009054906101000a900473ffffffffffffffffffffffffffffffffffffffff16905090565b8173ffffffffffffffffffffffffffffffffffffffff168373ffffffffffffffffffffffffffffffffffffffff1603612700576040517f08c379a00000000000000000000000000000000000000000000000000000000081526004016126f7906150e7565b60405180910390fd5b80600560008573ffffffffffffffffffffffffffffffffffffffff1673ffffffffffffffffffffffffffffffffffffffff16815260200190815260200160002060008473ffffffffffffffffffffffffffffffffffffffff1673ffffffffffffffffffffffffffffffffffffffff16815260200190815260200160002060006101000a81548160ff0219169083151502179055508173ffffffffffffffffffffffffffffffffffffffff168373ffffffffffffffffffffffffffffffffffffffff167f17307eab39ab6107e8899845ad3d59bd9653f200f220920489ca2b5937696c31836040516127f19190613a73565b60405180910390a3505050565b612809848484612362565b61281584848484612bdf565b612854576040517f08c379a000000000000000000000000000000000000000000000000000000000815260040161284b90615179565b60405180910390fd5b50505050565b6001816000016000828254019250508190555050565b61288a828260405180602001604052806000815250612d66565b5050565b6060612899826121c1565b60006006600084815260200190815260200160002080546128b990614434565b80601f01602080910402602001604051908101604052809291908181526020018280546128e590614434565b80156129325780601f1061290757610100808354040283529160200191612932565b820191906000526020600020905b81548152906001019060200180831161291557829003601f168201915b505050505090506000612943612dc1565b9050600081510361295857819250505061299b565b60008251111561298d578082604051602001612975929190615199565b6040516020818303038152906040529250505061299b565b61299684612dd8565b925050505b919050565b3373ffffffffffffffffffffffffffffffffffffffff168173ffffffffffffffffffffffffffffffffffffffff1603612a0e576040517f08c379a0000000000000000000000000000000000000000000000000000000008152600401612a0590615209565b60405180910390fd5b80600e60006101000a81548173ffffffffffffffffffffffffffffffffffffffff021916908373ffffffffffffffffffffffffffffffffffffffff1602179055508073ffffffffffffffffffffffffffffffffffffffff16600d60009054906101000a900473ffffffffffffffffffffffffffffffffffffffff1673ffffffffffffffffffffffffffffffffffffffff167fed8889f560326eb138920d842192f0eb3dd22b4f139c87a2c57538e05bae127860405160405180910390a350565b612ad6613938565b612ade613938565b612af585858584612e40909392919063ffffffff16565b9150509392505050565b612b16828460800151612ef090919063ffffffff16565b612b2d818460800151612ef090919063ffffffff16565b505050565b6000612b61600a60009054906101000a900473ffffffffffffffffffffffffffffffffffffffff168484612f15565b905092915050565b60008073ffffffffffffffffffffffffffffffffffffffff166002600084815260200190815260200160002060009054906101000a900473ffffffffffffffffffffffffffffffffffffffff1673ffffffffffffffffffffffffffffffffffffffff1614159050919050565b505050565b505050565b6000612c008473ffffffffffffffffffffffffffffffffffffffff16612fe1565b15612d59578373ffffffffffffffffffffffffffffffffffffffff1663150b7a02612c2961220c565b8786866040518563ffffffff1660e01b8152600401612c4b9493929190615229565b6020604051808303816000875af1925050508015612c8757506040513d601f19601f82011682018060405250810190612c84919061528a565b60015b612d09573d8060008114612cb7576040519150601f19603f3d011682016040523d82523d6000602084013e612cbc565b606091505b506000815103612d01576040517f08c379a0000000000000000000000000000000000000000000000000000000008152600401612cf890615179565b60405180910390fd5b805181602001fd5b63150b7a0260e01b7bffffffffffffffffffffffffffffffffffffffffffffffffffffffff1916817bffffffffffffffffffffffffffffffffffffffffffffffffffffffff191614915050612d5e565b600190505b949350505050565b612d708383613004565b612d7d6000848484612bdf565b612dbc576040517f08c379a0000000000000000000000000000000000000000000000000000000008152600401612db390615179565b60405180910390fd5b505050565b606060405180602001604052806000815250905090565b6060612de3826121c1565b6000612ded612dc1565b90506000815111612e0d5760405180602001604052806000815250612e38565b80612e17846131dd565b604051602001612e28929190615199565b6040516020818303038152906040525b915050919050565b612e48613938565b612e58856080015161010061333d565b508385600001818152505082856020019073ffffffffffffffffffffffffffffffffffffffff16908173ffffffffffffffffffffffffffffffffffffffff16815250508185604001907bffffffffffffffffffffffffffffffffffffffffffffffffffffffff191690817bffffffffffffffffffffffffffffffffffffffffffffffffffffffff191681525050849050949350505050565b612efd82600383516133a7565b612f10818361352c90919063ffffffff16565b505050565b600080600b549050600181612f2a9190614494565b600b819055506000634042994660e01b60008087600001513089604001518760018c6080015160000151604051602401612f6b9897969594939291906152d5565b604051602081830303815290604052907bffffffffffffffffffffffffffffffffffffffffffffffffffffffff19166020820180517bffffffffffffffffffffffffffffffffffffffffffffffffffffffff83818316178352505050509050612fd68683868461354e565b925050509392505050565b6000808273ffffffffffffffffffffffffffffffffffffffff163b119050919050565b600073ffffffffffffffffffffffffffffffffffffffff168273ffffffffffffffffffffffffffffffffffffffff1603613073576040517f08c379a000000000000000000000000000000000000000000000000000000000815260040161306a906153a6565b60405180910390fd5b61307c81612b69565b156130bc576040517f08c379a00000000000000000000000000000000000000000000000000000000081526004016130b390615412565b60405180910390fd5b6130c860008383612bd5565b6001600360008473ffffffffffffffffffffffffffffffffffffffff1673ffffffffffffffffffffffffffffffffffffffff16815260200190815260200160002060008282546131189190614494565b92505081905550816002600083815260200190815260200160002060006101000a81548173ffffffffffffffffffffffffffffffffffffffff021916908373ffffffffffffffffffffffffffffffffffffffff160217905550808273ffffffffffffffffffffffffffffffffffffffff16600073ffffffffffffffffffffffffffffffffffffffff167fddf252ad1be2c89b69c2b068fc378daa952ba7f163c4a11628f55a4df523b3ef60405160405180910390a46131d960008383612bda565b5050565b606060008203613224576040518060400160405280600181526020017f30000000000000000000000000000000000000000000000000000000000000008152509050613338565b600082905060005b6000821461325657808061323f90615432565b915050600a8261324f91906154a9565b915061322c565b60008167ffffffffffffffff81111561327257613271613db4565b5b6040519080825280601f01601f1916602001820160405280156132a45781602001600182028036833780820191505090505b5090505b60008514613331576001826132bd91906146cf565b9150600a856132cc91906154da565b60306132d89190614494565b60f81b8183815181106132ee576132ed6144ea565b5b60200101907effffffffffffffffffffffffffffffffffffffffffffffffffffffffffffff1916908160001a905350600a8561332a91906154a9565b94506132a8565b8093505050505b919050565b6133456139a5565b600060208361335491906154da565b146133805760208261336691906154da565b602061337291906146cf565b8261337d9190614494565b91505b81836020018181525050604051808452600081528281016020016040525082905092915050565b60178167ffffffffffffffff16116133de576133d88160058460ff16901b60ff1617846136e390919063ffffffff16565b50613527565b60ff8167ffffffffffffffff16116134345761340d601860058460ff16901b17846136e390919063ffffffff16565b5061342e8167ffffffffffffffff166001856137039092919063ffffffff16565b50613526565b61ffff8167ffffffffffffffff161161348b57613464601960058460ff16901b17846136e390919063ffffffff16565b506134858167ffffffffffffffff166002856137039092919063ffffffff16565b50613525565b63ffffffff8167ffffffffffffffff16116134e4576134bd601a60058460ff16901b17846136e390919063ffffffff16565b506134de8167ffffffffffffffff166004856137039092919063ffffffff16565b50613524565b613501601b60058460ff16901b17846136e390919063ffffffff16565b506135228167ffffffffffffffff166008856137039092919063ffffffff16565b505b5b5b5b505050565b6135346139a5565b61354683846000015151848551613725565b905092915050565b600030846040516020016135639291906155ba565b60405160208183030381529060405280519060200120905084600c600083815260200190815260200160002060006101000a81548173ffffffffffffffffffffffffffffffffffffffff021916908373ffffffffffffffffffffffffffffffffffffffff160217905550807fb5e6e01e79f91267dc17b4e6314d5d4d03593d2ceee0fbb452b750bd70ea5af960405160405180910390a2600960009054906101000a900473ffffffffffffffffffffffffffffffffffffffff1673ffffffffffffffffffffffffffffffffffffffff16634000aea08685856040518463ffffffff1660e01b8152600401613659939291906155e6565b6020604051808303816000875af1158015613678573d6000803e3d6000fd5b505050506040513d601f19601f8201168201806040525081019061369c9190614a26565b6136db576040517f08c379a00000000000000000000000000000000000000000000000000000000081526004016136d290615696565b60405180910390fd5b949350505050565b6136eb6139a5565b6136fb8384600001515184613814565b905092915050565b61370b6139a5565b61371c84856000015151858561386a565b90509392505050565b61372d6139a5565b825182111561373b57600080fd5b8460200151828561374c9190614494565b1115613781576137808560026137718860200151888761376c9190614494565b6138f8565b61377b91906156b6565b613914565b5b6000808651805187602083010193508088870111156137a05787860182525b60208701925050505b602084106137e757805182526020826137c29190614494565b91506020816137d19190614494565b90506020846137e091906146cf565b93506137a9565b60006001856020036101000a03905080198251168184511681811785525050508692505050949350505050565b61381c6139a5565b8360200151831061384257613841846002866020015161383c91906156b6565b613914565b5b8351805160208583010184815381860361385d576001820183525b5050508390509392505050565b6138726139a5565b846020015184836138839190614494565b11156138ab576138aa856002868561389b9190614494565b6138a591906156b6565b613914565b5b60006001836101006138bd9190615843565b6138c791906146cf565b905085518386820101858319825116178152815185880111156138ea5784870182525b505085915050949350505050565b60008183111561390a5782905061390e565b8190505b92915050565b600082600001519050613927838361333d565b50613932838261352c565b50505050565b6040518060a0016040528060008019168152602001600073ffffffffffffffffffffffffffffffffffffffff16815260200160007bffffffffffffffffffffffffffffffffffffffffffffffffffffffff191681526020016000815260200161399f6139a5565b81525090565b604051806040016040528060608152602001600081525090565b6000604051905090565b600080fd5b600080fd5b60007fffffffff0000000000000000000000000000000000000000000000000000000082169050919050565b613a08816139d3565b8114613a1357600080fd5b50565b600081359050613a25816139ff565b92915050565b600060208284031215613a4157613a406139c9565b5b6000613a4f84828501613a16565b91505092915050565b60008115159050919050565b613a6d81613a58565b82525050565b6000602082019050613a886000830184613a64565b92915050565b600081519050919050565b600082825260208201905092915050565b60005b83811015613ac8578082015181840152602081019050613aad565b83811115613ad7576000848401525b50505050565b6000601f19601f8301169050919050565b6000613af982613a8e565b613b038185613a99565b9350613b13818560208601613aaa565b613b1c81613add565b840191505092915050565b60006020820190508181036000830152613b418184613aee565b905092915050565b6000819050919050565b613b5c81613b49565b8114613b6757600080fd5b50565b600081359050613b7981613b53565b92915050565b600060208284031215613b9557613b946139c9565b5b6000613ba384828501613b6a565b91505092915050565b600073ffffffffffffffffffffffffffffffffffffffff82169050919050565b6000613bd782613bac565b9050919050565b613be781613bcc565b82525050565b6000602082019050613c026000830184613bde565b92915050565b613c1181613bcc565b8114613c1c57600080fd5b50565b600081359050613c2e81613c08565b92915050565b60008060408385031215613c4b57613c4a6139c9565b5b6000613c5985828601613c1f565b9250506020613c6a85828601613b6a565b9150509250929050565b600080600060608486031215613c8d57613c8c6139c9565b5b6000613c9b86828701613c1f565b9350506020613cac86828701613c1f565b9250506040613cbd86828701613b6a565b9150509250925092565b600080fd5b600080fd5b600080fd5b60008083601f840112613cec57613ceb613cc7565b5b8235905067ffffffffffffffff811115613d0957613d08613ccc565b5b602083019150836001820283011115613d2557613d24613cd1565b5b9250929050565b60008060208385031215613d4357613d426139c9565b5b600083013567ffffffffffffffff811115613d6157613d606139ce565b5b613d6d85828601613cd6565b92509250509250929050565b6000819050919050565b613d8c81613d79565b8114613d9757600080fd5b50565b600081359050613da981613d83565b92915050565b600080fd5b7f4e487b7100000000000000000000000000000000000000000000000000000000600052604160045260246000fd5b613dec82613add565b810181811067ffffffffffffffff82111715613e0b57613e0a613db4565b5b80604052505050565b6000613e1e6139bf565b9050613e2a8282613de3565b919050565b600067ffffffffffffffff821115613e4a57613e49613db4565b5b613e5382613add565b9050602081019050919050565b82818337600083830152505050565b6000613e82613e7d84613e2f565b613e14565b905082815260208101848484011115613e9e57613e9d613daf565b5b613ea9848285613e60565b509392505050565b600082601f830112613ec657613ec5613cc7565b5b8135613ed6848260208601613e6f565b91505092915050565b600080600080600080600060e0888a031215613efe57613efd6139c9565b5b6000613f0c8a828b01613d9a565b975050602088013567ffffffffffffffff811115613f2d57613f2c6139ce565b5b613f398a828b01613eb1565b965050604088013567ffffffffffffffff811115613f5a57613f596139ce565b5b613f668a828b01613eb1565b955050606088013567ffffffffffffffff811115613f8757613f866139ce565b5b613f938a828b01613eb1565b945050608088013567ffffffffffffffff811115613fb457613fb36139ce565b5b613fc08a828b01613eb1565b93505060a088013567ffffffffffffffff811115613fe157613fe06139ce565b5b613fed8a828b01613eb1565b92505060c088013567ffffffffffffffff81111561400e5761400d6139ce565b5b61401a8a828b01613eb1565b91505092959891949750929550565b600081519050919050565b600082825260208201905092915050565b600061405082614029565b61405a8185614034565b935061406a818560208601613aaa565b61407381613add565b840191505092915050565b60006040820190506140936000830185613a64565b81810360208301526140a58184614045565b90509392505050565b6000602082840312156140c4576140c36139c9565b5b60006140d284828501613c1f565b91505092915050565b6140e481613b49565b82525050565b60006020820190506140ff60008301846140db565b92915050565b61410e81613a58565b811461411957600080fd5b50565b60008135905061412b81614105565b92915050565b60008060408385031215614148576141476139c9565b5b600061415685828601613c1f565b92505060206141678582860161411c565b9150509250929050565b600067ffffffffffffffff82111561418c5761418b613db4565b5b61419582613add565b9050602081019050919050565b60006141b56141b084614171565b613e14565b9050828152602081018484840111156141d1576141d0613daf565b5b6141dc848285613e60565b509392505050565b600082601f8301126141f9576141f8613cc7565b5b81356142098482602086016141a2565b91505092915050565b6000806000806080858703121561422c5761422b6139c9565b5b600061423a87828801613c1f565b945050602061424b87828801613c1f565b935050604061425c87828801613b6a565b925050606085013567ffffffffffffffff81111561427d5761427c6139ce565b5b614289878288016141e4565b91505092959194509250565b600080604083850312156142ac576142ab6139c9565b5b600083013567ffffffffffffffff8111156142ca576142c96139ce565b5b6142d685828601613eb1565b925050602083013567ffffffffffffffff8111156142f7576142f66139ce565b5b61430385828601613eb1565b9150509250929050565b600080600060608486031215614326576143256139c9565b5b600061433486828701613c1f565b935050602084013567ffffffffffffffff811115614355576143546139ce565b5b61436186828701613eb1565b925050604061437286828701613b6a565b9150509250925092565b60008060408385031215614393576143926139c9565b5b60006143a185828601613c1f565b92505060206143b285828601613c1f565b9150509250929050565b6000602082840312156143d2576143d16139c9565b5b600082013567ffffffffffffffff8111156143f0576143ef6139ce565b5b6143fc84828501613eb1565b91505092915050565b7f4e487b7100000000000000000000000000000000000000000000000000000000600052602260045260246000fd5b6000600282049050600182168061444c57607f821691505b60208210810361445f5761445e614405565b5b50919050565b7f4e487b7100000000000000000000000000000000000000000000000000000000600052601160045260246000fd5b600061449f82613b49565b91506144aa83613b49565b9250827fffffffffffffffffffffffffffffffffffffffffffffffffffffffffffffffff038211156144df576144de614465565b5b828201905092915050565b7f4e487b7100000000000000000000000000000000000000000000000000000000600052603260045260246000fd5b7f4552433732313a20617070726f76616c20746f2063757272656e74206f776e6560008201527f7200000000000000000000000000000000000000000000000000000000000000602082015250565b6000614575602183613a99565b915061458082614519565b604082019050919050565b600060208201905081810360008301526145a481614568565b9050919050565b7f4552433732313a20617070726f76652063616c6c6572206973206e6f7420746f60008201527f6b656e206f776e6572206e6f7220617070726f76656420666f7220616c6c0000602082015250565b6000614607603e83613a99565b9150614612826145ab565b604082019050919050565b60006020820190508181036000830152614636816145fa565b9050919050565b7f4552433732313a2063616c6c6572206973206e6f7420746f6b656e206f776e6560008201527f72206e6f7220617070726f766564000000000000000000000000000000000000602082015250565b6000614699602e83613a99565b91506146a48261463d565b604082019050919050565b600060208201905081810360008301526146c88161468c565b9050919050565b60006146da82613b49565b91506146e583613b49565b9250828210156146f8576146f7614465565b5b828203905092915050565b60008190508160005260206000209050919050565b6000815461472581614434565b61472f8186613a99565b9450600182166000811461474a576001811461476057614793565b60ff198316865281151560200286019350614793565b61476985614703565b60005b8381101561478b5781548189015260018201915060208101905061476c565b808801955050505b50505092915050565b600060e08201905081810360008301526147b6818a613aee565b905081810360208301526147ca8189613aee565b905081810360408301526147de8188613aee565b905081810360608301526147f28187613aee565b905081810360808301526148068186613aee565b905081810360a083015261481a8185613aee565b905081810360c083015261482e8184614718565b905098975050505050505050565b7f4552433732313a20696e76616c696420746f6b656e2049440000000000000000600082015250565b6000614872601883613a99565b915061487d8261483c565b602082019050919050565b600060208201905081810360008301526148a181614865565b9050919050565b7f4552433732313a2061646472657373207a65726f206973206e6f74206120766160008201527f6c6964206f776e65720000000000000000000000000000000000000000000000602082015250565b6000614904602983613a99565b915061490f826148a8565b604082019050919050565b60006020820190508181036000830152614933816148f7565b9050919050565b7f4d7573742062652070726f706f736564206f776e657200000000000000000000600082015250565b6000614970601683613a99565b915061497b8261493a565b602082019050919050565b6000602082019050818103600083015261499f81614963565b9050919050565b6000815190506149b581613b53565b92915050565b6000602082840312156149d1576149d06139c9565b5b60006149df848285016149a6565b91505092915050565b60006040820190506149fd6000830185613bde565b614a0a60208301846140db565b9392505050565b600081519050614a2081614105565b92915050565b600060208284031215614a3c57614a3b6139c9565b5b6000614a4a84828501614a11565b91505092915050565b7f556e61626c6520746f207472616e736665720000000000000000000000000000600082015250565b6000614a89601283613a99565b9150614a9482614a53565b602082019050919050565b60006020820190508181036000830152614ab881614a7c565b9050919050565b600081905092915050565b6000614ad582613a8e565b614adf8185614abf565b9350614aef818560208601613aaa565b80840191505092915050565b6000614b078284614aca565b915081905092915050565b7f5468652066756e647320646f6e27742073756666696369656e74000000000000600082015250565b6000614b48601a83613a99565b9150614b5382614b12565b602082019050919050565b60006020820190508181036000830152614b7781614b3b565b9050919050565b60006020601f8301049050919050565b600082821b905092915050565b600060088302614bcb7fffffffffffffffffffffffffffffffffffffffffffffffffffffffffffffffff82614b8e565b614bd58683614b8e565b95508019841693508086168417925050509392505050565b6000819050919050565b6000614c12614c0d614c0884613b49565b614bed565b613b49565b9050919050565b6000819050919050565b614c2c83614bf7565b614c40614c3882614c19565b848454614b9b565b825550505050565b600090565b614c55614c48565b614c60818484614c23565b505050565b5b81811015614c8457614c79600082614c4d565b600181019050614c66565b5050565b601f821115614cc957614c9a81614703565b614ca384614b7e565b81016020851015614cb2578190505b614cc6614cbe85614b7e565b830182614c65565b50505b505050565b600082821c905092915050565b6000614cec60001984600802614cce565b1980831691505092915050565b6000614d058383614cdb565b9150826002028217905092915050565b614d1e82613a8e565b67ffffffffffffffff811115614d3757614d36613db4565b5b614d418254614434565b614d4c828285614c88565b600060209050601f831160018114614d7f5760008415614d6d578287015190505b614d778582614cf9565b865550614ddf565b601f198416614d8d86614703565b60005b82811015614db557848901518255600182019150602085019450602081019050614d90565b86831015614dd25784890151614dce601f891682614cdb565b8355505b6001600288020188555050505b505050505050565b7f536f75726365206d75737420626520746865206f7261636c65206f662074686560008201527f2072657175657374000000000000000000000000000000000000000000000000602082015250565b6000614e43602883613a99565b9150614e4e82614de7565b604082019050919050565b60006020820190508181036000830152614e7281614e36565b9050919050565b7f45524337323155524953746f726167653a2055524920736574206f66206e6f6e60008201527f6578697374656e7420746f6b656e000000000000000000000000000000000000602082015250565b6000614ed5602e83613a99565b9150614ee082614e79565b604082019050919050565b60006020820190508181036000830152614f0481614ec8565b9050919050565b7f4552433732313a207472616e736665722066726f6d20696e636f72726563742060008201527f6f776e6572000000000000000000000000000000000000000000000000000000602082015250565b6000614f67602583613a99565b9150614f7282614f0b565b604082019050919050565b60006020820190508181036000830152614f9681614f5a565b9050919050565b7f4552433732313a207472616e7366657220746f20746865207a65726f2061646460008201527f7265737300000000000000000000000000000000000000000000000000000000602082015250565b6000614ff9602483613a99565b915061500482614f9d565b604082019050919050565b6000602082019050818103600083015261502881614fec565b9050919050565b7f4f6e6c792063616c6c61626c65206279206f776e657200000000000000000000600082015250565b6000615065601683613a99565b91506150708261502f565b602082019050919050565b6000602082019050818103600083015261509481615058565b9050919050565b7f4552433732313a20617070726f766520746f2063616c6c657200000000000000600082015250565b60006150d1601983613a99565b91506150dc8261509b565b602082019050919050565b60006020820190508181036000830152615100816150c4565b9050919050565b7f4552433732313a207472616e7366657220746f206e6f6e20455243373231526560008201527f63656976657220696d706c656d656e7465720000000000000000000000000000602082015250565b6000615163603283613a99565b915061516e82615107565b604082019050919050565b6000602082019050818103600083015261519281615156565b9050919050565b60006151a58285614aca565b91506151b18284614aca565b91508190509392505050565b7f43616e6e6f74207472616e7366657220746f2073656c66000000000000000000600082015250565b60006151f3601783613a99565b91506151fe826151bd565b602082019050919050565b60006020820190508181036000830152615222816151e6565b9050919050565b600060808201905061523e6000830187613bde565b61524b6020830186613bde565b61525860408301856140db565b818103606083015261526a8184614045565b905095945050505050565b600081519050615284816139ff565b92915050565b6000602082840312156152a05761529f6139c9565b5b60006152ae84828501615275565b91505092915050565b6152c081613d79565b82525050565b6152cf816139d3565b82525050565b6000610100820190506152eb600083018b613bde565b6152f8602083018a6140db565b61530560408301896152b7565b6153126060830188613bde565b61531f60808301876152c6565b61532c60a08301866140db565b61533960c08301856140db565b81810360e083015261534b8184614045565b90509998505050505050505050565b7f4552433732313a206d696e7420746f20746865207a65726f2061646472657373600082015250565b6000615390602083613a99565b915061539b8261535a565b602082019050919050565b600060208201905081810360008301526153bf81615383565b9050919050565b7f4552433732313a20746f6b656e20616c7265616479206d696e74656400000000600082015250565b60006153fc601c83613a99565b9150615407826153c6565b602082019050919050565b6000602082019050818103600083015261542b816153ef565b9050919050565b600061543d82613b49565b91507fffffffffffffffffffffffffffffffffffffffffffffffffffffffffffffffff820361546f5761546e614465565b5b600182019050919050565b7f4e487b7100000000000000000000000000000000000000000000000000000000600052601260045260246000fd5b60006154b482613b49565b91506154bf83613b49565b9250826154cf576154ce61547a565b5b828204905092915050565b60006154e582613b49565b91506154f083613b49565b925082615500576154ff61547a565b5b828206905092915050565b600061552661552161551c84613bac565b614bed565b613bac565b9050919050565b60006155388261550b565b9050919050565b600061554a8261552d565b9050919050565b60008160601b9050919050565b600061556982615551565b9050919050565b600061557b8261555e565b9050919050565b61559361558e8261553f565b615570565b82525050565b6000819050919050565b6155b46155af82613b49565b615599565b82525050565b60006155c68285615582565b6014820191506155d682846155a3565b6020820191508190509392505050565b60006060820190506155fb6000830186613bde565b61560860208301856140db565b818103604083015261561a8184614045565b9050949350505050565b7f756e61626c6520746f207472616e73666572416e6443616c6c20746f206f726160008201527f636c650000000000000000000000000000000000000000000000000000000000602082015250565b6000615680602383613a99565b915061568b82615624565b604082019050919050565b600060208201905081810360008301526156af81615673565b9050919050565b60006156c182613b49565b91506156cc83613b49565b9250817fffffffffffffffffffffffffffffffffffffffffffffffffffffffffffffffff048311821515161561570557615704614465565b5b828202905092915050565b60008160011c9050919050565b6000808291508390505b60018511156157675780860481111561574357615742614465565b5b60018516156157525780820291505b808102905061576085615710565b9450615727565b94509492505050565b600082615780576001905061583c565b8161578e576000905061583c565b81600181146157a457600281146157ae576157dd565b600191505061583c565b60ff8411156157c0576157bf614465565b5b8360020a9150848211156157d7576157d6614465565b5b5061583c565b5060208310610133831016604e8410600b84101617156158125782820a90508381111561580d5761580c614465565b5b61583c565b61581f848484600161571d565b9250905081840481111561583657615835614465565b5b81810290505b9392505050565b600061584e82613b49565b915061585983613b49565b92506158867fffffffffffffffffffffffffffffffffffffffffffffffffffffffffffffffff8484615770565b90509291505056fea2646970667358221220af5531ed7af4099fa55dabcf7d6908350a39fd1d9818b493a7a97df2625a7b3464736f6c634300080f003368747470733a2f2f6f72696f6a61732e707974686f6e616e7977686572652e636f6d2f66696c655f6e616d652f417061706f7269735f3230313968747470733a2f2f6f72696f6a61732e707974686f6e616e7977686572652e636f6d2f66696c655f6e616d652f477561636861726f735f3230313868747470733a2f2f6f72696f6a61732e707974686f6e616e7977686572652e636f6d2f66696c655f6e616d652f477561636861726f735f3230323268747470733a2f2f6f72696f6a61732e707974686f6e616e7977686572652e636f6d2f66696c655f6e616d652f42696f6c756d656e5f3230313968747470733a2f2f6f72696f6a61732e707974686f6e616e7977686572652e636f6d2f66696c655f6e616d652f546179726f6e615f3230323268747470733a2f2f6f72696f6a61732e707974686f6e616e7977686572652e636f6d2f66696c655f6e616d652f42696f6c756d656e5f3230323168747470733a2f2f6f72696f6a61732e707974686f6e616e7977686572652e636f6d2f66696c655f6e616d652f417061706f7269735f3230323268747470733a2f2f6f72696f6a61732e707974686f6e616e7977686572652e636f6d2f66696c655f6e616d652f477561636861726f735f3230323168747470733a2f2f6f72696f6a61732e707974686f6e616e7977686572652e636f6d2f66696c655f6e616d652f546179726f6e615f3230313868747470733a2f2f6f72696f6a61732e707974686f6e616e7977686572652e636f6d2f66696c655f6e616d652f477561636861726f735f3230313968747470733a2f2f6f72696f6a61732e707974686f6e616e7977686572652e636f6d2f66696c655f6e616d652f546179726f6e615f3230323068747470733a2f2f6f72696f6a61732e707974686f6e616e7977686572652e636f6d2f66696c655f6e616d652f42696f6c756d656e5f3230323268747470733a2f2f6f72696f6a61732e707974686f6e616e7977686572652e636f6d2f66696c655f6e616d652f42696f6c756d656e5f3230313868747470733a2f2f6f72696f6a61732e707974686f6e616e7977686572652e636f6d2f66696c655f6e616d652f417061706f7269735f3230323068747470733a2f2f6f72696f6a61732e707974686f6e616e7977686572652e636f6d2f66696c655f6e616d652f546179726f6e615f3230323168747470733a2f2f6f72696f6a61732e707974686f6e616e7977686572652e636f6d2f66696c655f6e616d652f477561636861726f735f3230323068747470733a2f2f6f72696f6a61732e707974686f6e616e7977686572652e636f6d2f66696c655f6e616d652f42696f6c756d656e5f3230323068747470733a2f2f6f72696f6a61732e707974686f6e616e7977686572652e636f6d2f66696c655f6e616d652f417061706f7269735f3230313868747470733a2f2f6f72696f6a61732e707974686f6e616e7977686572652e636f6d2f66696c655f6e616d652f546179726f6e615f3230313968747470733a2f2f6f72696f6a61732e707974686f6e616e7977686572652e636f6d2f66696c655f6e616d652f417061706f7269735f32303231",
  "linkReferences": {},
  "deployedLinkReferences": {}
}