{
  "_format": "hh-sol-artifact-1",
  "contractName": "MultiWordConsumerContract",
  "sourceName": "src/blockchain/hardhat/contracts/MultiWordConsumerContract.sol",
  "abi": [
    {
      "inputs": [],
      "stateMutability": "nonpayable",
      "type": "constructor"
    },
    {
      "anonymous": false,
      "inputs": [
        {
          "indexed": true,
          "internalType": "bytes32",
          "name": "id",
          "type": "bytes32"
        }
      ],
      "name": "ChainlinkCancelled",
      "type": "event"
    },
    {
      "anonymous": false,
      "inputs": [
        {
          "indexed": true,
          "internalType": "bytes32",
          "name": "id",
          "type": "bytes32"
        }
      ],
      "name": "ChainlinkFulfilled",
      "type": "event"
    },
    {
      "anonymous": false,
      "inputs": [
        {
          "indexed": true,
          "internalType": "bytes32",
          "name": "id",
          "type": "bytes32"
        }
      ],
      "name": "ChainlinkRequested",
      "type": "event"
    },
    {
      "anonymous": false,
      "inputs": [
        {
          "indexed": true,
          "internalType": "address",
          "name": "from",
          "type": "address"
        },
        {
          "indexed": true,
          "internalType": "address",
          "name": "to",
          "type": "address"
        }
      ],
      "name": "OwnershipTransferRequested",
      "type": "event"
    },
    {
      "anonymous": false,
      "inputs": [
        {
          "indexed": true,
          "internalType": "address",
          "name": "from",
          "type": "address"
        },
        {
          "indexed": true,
          "internalType": "address",
          "name": "to",
          "type": "address"
        }
      ],
      "name": "OwnershipTransferred",
      "type": "event"
    },
    {
      "inputs": [],
      "name": "acceptOwnership",
      "outputs": [],
      "stateMutability": "nonpayable",
      "type": "function"
    },
    {
      "inputs": [
        {
          "internalType": "bytes32",
          "name": "requestId",
          "type": "bytes32"
        },
        {
          "internalType": "string",
          "name": "_mean",
          "type": "string"
        },
        {
          "internalType": "string",
          "name": "_std",
          "type": "string"
        },
        {
          "internalType": "string",
          "name": "_max",
          "type": "string"
        },
        {
          "internalType": "string",
          "name": "_min",
          "type": "string"
        },
        {
          "internalType": "string",
          "name": "_uuid",
          "type": "string"
        },
        {
          "internalType": "string",
          "name": "_id",
          "type": "string"
        }
      ],
      "name": "fulfillMultipleParameters",
      "outputs": [],
      "stateMutability": "nonpayable",
      "type": "function"
    },
    {
      "inputs": [],
      "name": "owner",
      "outputs": [
        {
          "internalType": "address",
          "name": "",
          "type": "address"
        }
      ],
      "stateMutability": "view",
      "type": "function"
    },
    {
      "inputs": [
        {
          "internalType": "bytes32",
          "name": "requestId",
          "type": "bytes32"
        },
        {
          "internalType": "string",
          "name": "_mean",
          "type": "string"
        },
        {
          "internalType": "string",
          "name": "_std",
          "type": "string"
        },
        {
          "internalType": "string",
          "name": "_max",
          "type": "string"
        },
        {
          "internalType": "string",
          "name": "_min",
          "type": "string"
        },
        {
          "internalType": "string",
          "name": "_uuid",
          "type": "string"
        },
        {
          "internalType": "string",
          "name": "_id",
          "type": "string"
        }
      ],
      "name": "requestHook",
      "outputs": [],
      "stateMutability": "nonpayable",
      "type": "function"
    },
    {
      "inputs": [
        {
          "internalType": "string",
          "name": "_url",
          "type": "string"
        }
      ],
      "name": "requestMultipleParameters",
      "outputs": [],
      "stateMutability": "nonpayable",
      "type": "function"
    },
    {
      "inputs": [
        {
          "internalType": "address",
          "name": "to",
          "type": "address"
        }
      ],
      "name": "transferOwnership",
      "outputs": [],
      "stateMutability": "nonpayable",
      "type": "function"
    },
    {
      "inputs": [],
      "name": "withdrawLink",
      "outputs": [],
      "stateMutability": "nonpayable",
      "type": "function"
    }
  ],
  "bytecode": "0x608060405260016004553480156200001657600080fd5b50338060008073ffffffffffffffffffffffffffffffffffffffff168273ffffffffffffffffffffffffffffffffffffffff16036200008c576040517f08c379a00000000000000000000000000000000000000000000000000000000081526004016200008390620003d3565b60405180910390fd5b81600660006101000a81548173ffffffffffffffffffffffffffffffffffffffff021916908373ffffffffffffffffffffffffffffffffffffffff160217905550600073ffffffffffffffffffffffffffffffffffffffff168173ffffffffffffffffffffffffffffffffffffffff161462000114576200011381620001b960201b60201c565b5b5050506200013c73326c977e6efc84e512bb9c30f76e30c160ed06fb620002ea60201b60201c565b6200016173b00282b9dbff5b6e07dddfe5540caebf0d8c6ff76200032e60201b60201c565b7f3038323864386461653739393463636438336461356463346330323631653336600881905550600a670de0b6b3a76400006001620001a191906200042e565b620001ad9190620004be565b60098190555062000568565b3373ffffffffffffffffffffffffffffffffffffffff168173ffffffffffffffffffffffffffffffffffffffff16036200022a576040517f08c379a0000000000000000000000000000000000000000000000000000000008152600401620002219062000546565b60405180910390fd5b80600760006101000a81548173ffffffffffffffffffffffffffffffffffffffff021916908373ffffffffffffffffffffffffffffffffffffffff1602179055508073ffffffffffffffffffffffffffffffffffffffff16600660009054906101000a900473ffffffffffffffffffffffffffffffffffffffff1673ffffffffffffffffffffffffffffffffffffffff167fed8889f560326eb138920d842192f0eb3dd22b4f139c87a2c57538e05bae127860405160405180910390a350565b80600260006101000a81548173ffffffffffffffffffffffffffffffffffffffff021916908373ffffffffffffffffffffffffffffffffffffffff16021790555050565b80600360006101000a81548173ffffffffffffffffffffffffffffffffffffffff021916908373ffffffffffffffffffffffffffffffffffffffff16021790555050565b600082825260208201905092915050565b7f43616e6e6f7420736574206f776e657220746f207a65726f0000000000000000600082015250565b6000620003bb60188362000372565b9150620003c88262000383565b602082019050919050565b60006020820190508181036000830152620003ee81620003ac565b9050919050565b6000819050919050565b7f4e487b7100000000000000000000000000000000000000000000000000000000600052601160045260246000fd5b60006200043b82620003f5565b91506200044883620003f5565b9250817fffffffffffffffffffffffffffffffffffffffffffffffffffffffffffffffff0483118215151615620004845762000483620003ff565b5b828202905092915050565b7f4e487b7100000000000000000000000000000000000000000000000000000000600052601260045260246000fd5b6000620004cb82620003f5565b9150620004d883620003f5565b925082620004eb57620004ea6200048f565b5b828204905092915050565b7f43616e6e6f74207472616e7366657220746f2073656c66000000000000000000600082015250565b60006200052e60178362000372565b91506200053b82620004f6565b602082019050919050565b6000602082019050818103600083015262000561816200051f565b9050919050565b6120e080620005786000396000f3fe608060405234801561001057600080fd5b506004361061007d5760003560e01c80638dc654a21161005b5780638dc654a2146100c6578063e063ad33146100d0578063f2fde38b146100ec578063ffebd172146101085761007d565b806352d0b7fb1461008257806379ba50971461009e5780638da5cb5b146100a8575b600080fd5b61009c60048036038101906100979190611512565b610124565b005b6100a661012d565b005b6100b06102c4565b6040516100bd919061169d565b60405180910390f35b6100ce6102ee565b005b6100ea60048036038101906100e59190611512565b61043b565b005b610106600480360381019061010191906116e4565b610559565b005b610122600480360381019061011d9190611711565b61056d565b005b50505050505050565b600760009054906101000a900473ffffffffffffffffffffffffffffffffffffffff1673ffffffffffffffffffffffffffffffffffffffff163373ffffffffffffffffffffffffffffffffffffffff16146101bd576040517f08c379a00000000000000000000000000000000000000000000000000000000081526004016101b4906117b7565b60405180910390fd5b6000600660009054906101000a900473ffffffffffffffffffffffffffffffffffffffff16905033600660006101000a81548173ffffffffffffffffffffffffffffffffffffffff021916908373ffffffffffffffffffffffffffffffffffffffff1602179055506000600760006101000a81548173ffffffffffffffffffffffffffffffffffffffff021916908373ffffffffffffffffffffffffffffffffffffffff1602179055503373ffffffffffffffffffffffffffffffffffffffff168173ffffffffffffffffffffffffffffffffffffffff167f8be0079c531659141344cd1fd0a4f28419497f9722a3daafe3b4186f6b6457e060405160405180910390a350565b6000600660009054906101000a900473ffffffffffffffffffffffffffffffffffffffff16905090565b6102f66108da565b600061030061096c565b90508073ffffffffffffffffffffffffffffffffffffffff1663a9059cbb338373ffffffffffffffffffffffffffffffffffffffff166370a08231306040518263ffffffff1660e01b8152600401610358919061169d565b602060405180830381865afa158015610375573d6000803e3d6000fd5b505050506040513d601f19601f82011682018060405250810190610399919061180d565b6040518363ffffffff1660e01b81526004016103b6929190611849565b6020604051808303816000875af11580156103d5573d6000803e3d6000fd5b505050506040513d601f19601f820116820180604052508101906103f991906118aa565b610438576040517f08c379a000000000000000000000000000000000000000000000000000000000815260040161042f90611923565b60405180910390fd5b50565b866005600082815260200190815260200160002060009054906101000a900473ffffffffffffffffffffffffffffffffffffffff1673ffffffffffffffffffffffffffffffffffffffff163373ffffffffffffffffffffffffffffffffffffffff16146104dd576040517f08c379a00000000000000000000000000000000000000000000000000000000081526004016104d4906119b5565b60405180910390fd5b6005600082815260200190815260200160002060006101000a81549073ffffffffffffffffffffffffffffffffffffffff0219169055807f7cc135e0cebb02c3480ae5d74d377283180a2601f8f644edf7987b009316c63a60405160405180910390a261054f88888888888888610124565b5050505050505050565b6105616108da565b61056a81610996565b50565b60006105836008543063e063ad3360e01b610ac4565b90506105cf6040518060400160405280600381526020017f67657400000000000000000000000000000000000000000000000000000000008152508383610af59092919063ffffffff16565b61064e6040518060400160405280600481526020017f6d65616e000000000000000000000000000000000000000000000000000000008152506040518060400160405280600981526020017f6e6476692c6d65616e000000000000000000000000000000000000000000000081525083610af59092919063ffffffff16565b6106cd6040518060400160405280600381526020017f73746400000000000000000000000000000000000000000000000000000000008152506040518060400160405280600881526020017f6e6476692c73746400000000000000000000000000000000000000000000000081525083610af59092919063ffffffff16565b61074c6040518060400160405280600381526020017f6d617800000000000000000000000000000000000000000000000000000000008152506040518060400160405280600881526020017f6e6476692c6d617800000000000000000000000000000000000000000000000081525083610af59092919063ffffffff16565b6107cb6040518060400160405280600381526020017f6d696e00000000000000000000000000000000000000000000000000000000008152506040518060400160405280600881526020017f6e6476692c6d696e00000000000000000000000000000000000000000000000081525083610af59092919063ffffffff16565b61084a6040518060400160405280600681526020017f757569645f7000000000000000000000000000000000000000000000000000008152506040518060400160405280600b81526020017f6e6476692c757569645f7000000000000000000000000000000000000000000081525083610af59092919063ffffffff16565b6108c96040518060400160405280600481526020017f69645f70000000000000000000000000000000000000000000000000000000008152506040518060400160405280600981526020017f6e6476692c69645f70000000000000000000000000000000000000000000000081525083610af59092919063ffffffff16565b6108d581600954610b28565b505050565b600660009054906101000a900473ffffffffffffffffffffffffffffffffffffffff1673ffffffffffffffffffffffffffffffffffffffff163373ffffffffffffffffffffffffffffffffffffffff161461096a576040517f08c379a000000000000000000000000000000000000000000000000000000000815260040161096190611a21565b60405180910390fd5b565b6000600260009054906101000a900473ffffffffffffffffffffffffffffffffffffffff16905090565b3373ffffffffffffffffffffffffffffffffffffffff168173ffffffffffffffffffffffffffffffffffffffff1603610a04576040517f08c379a00000000000000000000000000000000000000000000000000000000081526004016109fb90611a8d565b60405180910390fd5b80600760006101000a81548173ffffffffffffffffffffffffffffffffffffffff021916908373ffffffffffffffffffffffffffffffffffffffff1602179055508073ffffffffffffffffffffffffffffffffffffffff16600660009054906101000a900473ffffffffffffffffffffffffffffffffffffffff1673ffffffffffffffffffffffffffffffffffffffff167fed8889f560326eb138920d842192f0eb3dd22b4f139c87a2c57538e05bae127860405160405180910390a350565b610acc6112fb565b610ad46112fb565b610aeb85858584610b5f909392919063ffffffff16565b9150509392505050565b610b0c828460800151610c0f90919063ffffffff16565b610b23818460800151610c0f90919063ffffffff16565b505050565b6000610b57600360009054906101000a900473ffffffffffffffffffffffffffffffffffffffff168484610c34565b905092915050565b610b676112fb565b610b778560800151610100610d00565b508385600001818152505082856020019073ffffffffffffffffffffffffffffffffffffffff16908173ffffffffffffffffffffffffffffffffffffffff16815250508185604001907bffffffffffffffffffffffffffffffffffffffffffffffffffffffff191690817bffffffffffffffffffffffffffffffffffffffffffffffffffffffff191681525050849050949350505050565b610c1c8260038351610d6a565b610c2f8183610eef90919063ffffffff16565b505050565b6000806004549050600181610c499190611adc565b6004819055506000634042994660e01b60008087600001513089604001518760018c6080015160000151604051602401610c8a989796959493929190611c04565b604051602081830303815290604052907bffffffffffffffffffffffffffffffffffffffffffffffffffffffff19166020820180517bffffffffffffffffffffffffffffffffffffffffffffffffffffffff83818316178352505050509050610cf586838684610f11565b925050509392505050565b610d08611368565b6000602083610d179190611cb8565b14610d4357602082610d299190611cb8565b6020610d359190611ce9565b82610d409190611adc565b91505b81836020018181525050604051808452600081528281016020016040525082905092915050565b60178167ffffffffffffffff1611610da157610d9b8160058460ff16901b60ff1617846110a690919063ffffffff16565b50610eea565b60ff8167ffffffffffffffff1611610df757610dd0601860058460ff16901b17846110a690919063ffffffff16565b50610df18167ffffffffffffffff166001856110c69092919063ffffffff16565b50610ee9565b61ffff8167ffffffffffffffff1611610e4e57610e27601960058460ff16901b17846110a690919063ffffffff16565b50610e488167ffffffffffffffff166002856110c69092919063ffffffff16565b50610ee8565b63ffffffff8167ffffffffffffffff1611610ea757610e80601a60058460ff16901b17846110a690919063ffffffff16565b50610ea18167ffffffffffffffff166004856110c69092919063ffffffff16565b50610ee7565b610ec4601b60058460ff16901b17846110a690919063ffffffff16565b50610ee58167ffffffffffffffff166008856110c69092919063ffffffff16565b505b5b5b5b505050565b610ef7611368565b610f09838460000151518485516110e8565b905092915050565b60003084604051602001610f26929190611dd6565b604051602081830303815290604052805190602001209050846005600083815260200190815260200160002060006101000a81548173ffffffffffffffffffffffffffffffffffffffff021916908373ffffffffffffffffffffffffffffffffffffffff160217905550807fb5e6e01e79f91267dc17b4e6314d5d4d03593d2ceee0fbb452b750bd70ea5af960405160405180910390a2600260009054906101000a900473ffffffffffffffffffffffffffffffffffffffff1673ffffffffffffffffffffffffffffffffffffffff16634000aea08685856040518463ffffffff1660e01b815260040161101c93929190611e02565b6020604051808303816000875af115801561103b573d6000803e3d6000fd5b505050506040513d601f19601f8201168201806040525081019061105f91906118aa565b61109e576040517f08c379a000000000000000000000000000000000000000000000000000000000815260040161109590611eb2565b60405180910390fd5b949350505050565b6110ae611368565b6110be83846000015151846111d7565b905092915050565b6110ce611368565b6110df84856000015151858561122d565b90509392505050565b6110f0611368565b82518211156110fe57600080fd5b8460200151828561110f9190611adc565b1115611144576111438560026111348860200151888761112f9190611adc565b6112bb565b61113e9190611ed2565b6112d7565b5b6000808651805187602083010193508088870111156111635787860182525b60208701925050505b602084106111aa57805182526020826111859190611adc565b91506020816111949190611adc565b90506020846111a39190611ce9565b935061116c565b60006001856020036101000a03905080198251168184511681811785525050508692505050949350505050565b6111df611368565b836020015183106112055761120484600286602001516111ff9190611ed2565b6112d7565b5b83518051602085830101848153818603611220576001820183525b5050508390509392505050565b611235611368565b846020015184836112469190611adc565b111561126e5761126d856002868561125e9190611adc565b6112689190611ed2565b6112d7565b5b6000600183610100611280919061205f565b61128a9190611ce9565b905085518386820101858319825116178152815185880111156112ad5784870182525b505085915050949350505050565b6000818311156112cd578290506112d1565b8190505b92915050565b6000826000015190506112ea8383610d00565b506112f58382610eef565b50505050565b6040518060a0016040528060008019168152602001600073ffffffffffffffffffffffffffffffffffffffff16815260200160007bffffffffffffffffffffffffffffffffffffffffffffffffffffffff1916815260200160008152602001611362611368565b81525090565b604051806040016040528060608152602001600081525090565b6000604051905090565b600080fd5b600080fd5b6000819050919050565b6113a981611396565b81146113b457600080fd5b50565b6000813590506113c6816113a0565b92915050565b600080fd5b600080fd5b6000601f19601f8301169050919050565b7f4e487b7100000000000000000000000000000000000000000000000000000000600052604160045260246000fd5b61141f826113d6565b810181811067ffffffffffffffff8211171561143e5761143d6113e7565b5b80604052505050565b6000611451611382565b905061145d8282611416565b919050565b600067ffffffffffffffff82111561147d5761147c6113e7565b5b611486826113d6565b9050602081019050919050565b82818337600083830152505050565b60006114b56114b084611462565b611447565b9050828152602081018484840111156114d1576114d06113d1565b5b6114dc848285611493565b509392505050565b600082601f8301126114f9576114f86113cc565b5b81356115098482602086016114a2565b91505092915050565b600080600080600080600060e0888a0312156115315761153061138c565b5b600061153f8a828b016113b7565b975050602088013567ffffffffffffffff8111156115605761155f611391565b5b61156c8a828b016114e4565b965050604088013567ffffffffffffffff81111561158d5761158c611391565b5b6115998a828b016114e4565b955050606088013567ffffffffffffffff8111156115ba576115b9611391565b5b6115c68a828b016114e4565b945050608088013567ffffffffffffffff8111156115e7576115e6611391565b5b6115f38a828b016114e4565b93505060a088013567ffffffffffffffff81111561161457611613611391565b5b6116208a828b016114e4565b92505060c088013567ffffffffffffffff81111561164157611640611391565b5b61164d8a828b016114e4565b91505092959891949750929550565b600073ffffffffffffffffffffffffffffffffffffffff82169050919050565b60006116878261165c565b9050919050565b6116978161167c565b82525050565b60006020820190506116b2600083018461168e565b92915050565b6116c18161167c565b81146116cc57600080fd5b50565b6000813590506116de816116b8565b92915050565b6000602082840312156116fa576116f961138c565b5b6000611708848285016116cf565b91505092915050565b6000602082840312156117275761172661138c565b5b600082013567ffffffffffffffff81111561174557611744611391565b5b611751848285016114e4565b91505092915050565b600082825260208201905092915050565b7f4d7573742062652070726f706f736564206f776e657200000000000000000000600082015250565b60006117a160168361175a565b91506117ac8261176b565b602082019050919050565b600060208201905081810360008301526117d081611794565b9050919050565b6000819050919050565b6117ea816117d7565b81146117f557600080fd5b50565b600081519050611807816117e1565b92915050565b6000602082840312156118235761182261138c565b5b6000611831848285016117f8565b91505092915050565b611843816117d7565b82525050565b600060408201905061185e600083018561168e565b61186b602083018461183a565b9392505050565b60008115159050919050565b61188781611872565b811461189257600080fd5b50565b6000815190506118a48161187e565b92915050565b6000602082840312156118c0576118bf61138c565b5b60006118ce84828501611895565b91505092915050565b7f556e61626c6520746f207472616e736665720000000000000000000000000000600082015250565b600061190d60128361175a565b9150611918826118d7565b602082019050919050565b6000602082019050818103600083015261193c81611900565b9050919050565b7f536f75726365206d75737420626520746865206f7261636c65206f662074686560008201527f2072657175657374000000000000000000000000000000000000000000000000602082015250565b600061199f60288361175a565b91506119aa82611943565b604082019050919050565b600060208201905081810360008301526119ce81611992565b9050919050565b7f4f6e6c792063616c6c61626c65206279206f776e657200000000000000000000600082015250565b6000611a0b60168361175a565b9150611a16826119d5565b602082019050919050565b60006020820190508181036000830152611a3a816119fe565b9050919050565b7f43616e6e6f74207472616e7366657220746f2073656c66000000000000000000600082015250565b6000611a7760178361175a565b9150611a8282611a41565b602082019050919050565b60006020820190508181036000830152611aa681611a6a565b9050919050565b7f4e487b7100000000000000000000000000000000000000000000000000000000600052601160045260246000fd5b6000611ae7826117d7565b9150611af2836117d7565b9250827fffffffffffffffffffffffffffffffffffffffffffffffffffffffffffffffff03821115611b2757611b26611aad565b5b828201905092915050565b611b3b81611396565b82525050565b60007fffffffff0000000000000000000000000000000000000000000000000000000082169050919050565b611b7681611b41565b82525050565b600081519050919050565b600082825260208201905092915050565b60005b83811015611bb6578082015181840152602081019050611b9b565b83811115611bc5576000848401525b50505050565b6000611bd682611b7c565b611be08185611b87565b9350611bf0818560208601611b98565b611bf9816113d6565b840191505092915050565b600061010082019050611c1a600083018b61168e565b611c27602083018a61183a565b611c346040830189611b32565b611c41606083018861168e565b611c4e6080830187611b6d565b611c5b60a083018661183a565b611c6860c083018561183a565b81810360e0830152611c7a8184611bcb565b90509998505050505050505050565b7f4e487b7100000000000000000000000000000000000000000000000000000000600052601260045260246000fd5b6000611cc3826117d7565b9150611cce836117d7565b925082611cde57611cdd611c89565b5b828206905092915050565b6000611cf4826117d7565b9150611cff836117d7565b925082821015611d1257611d11611aad565b5b828203905092915050565b6000819050919050565b6000611d42611d3d611d388461165c565b611d1d565b61165c565b9050919050565b6000611d5482611d27565b9050919050565b6000611d6682611d49565b9050919050565b60008160601b9050919050565b6000611d8582611d6d565b9050919050565b6000611d9782611d7a565b9050919050565b611daf611daa82611d5b565b611d8c565b82525050565b6000819050919050565b611dd0611dcb826117d7565b611db5565b82525050565b6000611de28285611d9e565b601482019150611df28284611dbf565b6020820191508190509392505050565b6000606082019050611e17600083018661168e565b611e24602083018561183a565b8181036040830152611e368184611bcb565b9050949350505050565b7f756e61626c6520746f207472616e73666572416e6443616c6c20746f206f726160008201527f636c650000000000000000000000000000000000000000000000000000000000602082015250565b6000611e9c60238361175a565b9150611ea782611e40565b604082019050919050565b60006020820190508181036000830152611ecb81611e8f565b9050919050565b6000611edd826117d7565b9150611ee8836117d7565b9250817fffffffffffffffffffffffffffffffffffffffffffffffffffffffffffffffff0483118215151615611f2157611f20611aad565b5b828202905092915050565b60008160011c9050919050565b6000808291508390505b6001851115611f8357808604811115611f5f57611f5e611aad565b5b6001851615611f6e5780820291505b8081029050611f7c85611f2c565b9450611f43565b94509492505050565b600082611f9c5760019050612058565b81611faa5760009050612058565b8160018114611fc05760028114611fca57611ff9565b6001915050612058565b60ff841115611fdc57611fdb611aad565b5b8360020a915084821115611ff357611ff2611aad565b5b50612058565b5060208310610133831016604e8410600b841016171561202e5782820a90508381111561202957612028611aad565b5b612058565b61203b8484846001611f39565b9250905081840481111561205257612051611aad565b5b81810290505b9392505050565b600061206a826117d7565b9150612075836117d7565b92506120a27fffffffffffffffffffffffffffffffffffffffffffffffffffffffffffffffff8484611f8c565b90509291505056fea2646970667358221220332301533cdf54f2214d0f1175de4323415aa6c9c27d4df217409667653c647964736f6c634300080f0033",
  "linkReferences": {},
  "deployedLinkReferences": {}
}