{"src/blockchain/hardhat/contracts/SkyGreenContract.sol":{"SkyGreenContract":{"abi":[{"inputs":[{"internalType":"string","name":"_name","type":"string"},{"internalType":"string","name":"_symbol","type":"string"}],"stateMutability":"nonpayable","type":"constructor"},{"anonymous":false,"inputs":[{"indexed":true,"internalType":"address","name":"owner","type":"address"},{"indexed":true,"internalType":"address","name":"approved","type":"address"},{"indexed":true,"internalType":"uint256","name":"tokenId","type":"uint256"}],"name":"Approval","type":"event"},{"anonymous":false,"inputs":[{"indexed":true,"internalType":"address","name":"owner","type":"address"},{"indexed":true,"internalType":"address","name":"operator","type":"address"},{"indexed":false,"internalType":"bool","name":"approved","type":"bool"}],"name":"ApprovalForAll","type":"event"},{"anonymous":false,"inputs":[{"indexed":true,"internalType":"bytes32","name":"id","type":"bytes32"}],"name":"ChainlinkCancelled","type":"event"},{"anonymous":false,"inputs":[{"indexed":true,"internalType":"bytes32","name":"id","type":"bytes32"}],"name":"ChainlinkFulfilled","type":"event"},{"anonymous":false,"inputs":[{"indexed":true,"internalType":"bytes32","name":"id","type":"bytes32"}],"name":"ChainlinkRequested","type":"event"},{"anonymous":false,"inputs":[{"indexed":true,"internalType":"bytes32","name":"requestId","type":"bytes32"},{"indexed":false,"internalType":"string","name":"mean","type":"string"},{"indexed":false,"internalType":"string","name":"std","type":"string"},{"indexed":false,"internalType":"string","name":"max","type":"string"},{"indexed":false,"internalType":"string","name":"min","type":"string"},{"indexed":false,"internalType":"string","name":"uuid","type":"string"},{"indexed":false,"internalType":"string","name":"id","type":"string"}],"name":"NvdiRegistered","type":"event"},{"anonymous":false,"inputs":[{"indexed":true,"internalType":"address","name":"from","type":"address"},{"indexed":true,"internalType":"address","name":"to","type":"address"}],"name":"OwnershipTransferRequested","type":"event"},{"anonymous":false,"inputs":[{"indexed":true,"internalType":"address","name":"from","type":"address"},{"indexed":true,"internalType":"address","name":"to","type":"address"}],"name":"OwnershipTransferred","type":"event"},{"anonymous":false,"inputs":[{"indexed":true,"internalType":"address","name":"from","type":"address"},{"indexed":true,"internalType":"address","name":"to","type":"address"},{"indexed":true,"internalType":"uint256","name":"tokenId","type":"uint256"}],"name":"Transfer","type":"event"},{"inputs":[],"name":"acceptOwnership","outputs":[],"stateMutability":"nonpayable","type":"function"},{"inputs":[{"internalType":"address","name":"to","type":"address"},{"internalType":"uint256","name":"tokenId","type":"uint256"}],"name":"approve","outputs":[],"stateMutability":"nonpayable","type":"function"},{"inputs":[{"internalType":"address","name":"owner","type":"address"}],"name":"balanceOf","outputs":[{"internalType":"uint256","name":"","type":"uint256"}],"stateMutability":"view","type":"function"},{"inputs":[{"internalType":"uint256","name":"_tokenId","type":"uint256"}],"name":"changeNumber","outputs":[],"stateMutability":"nonpayable","type":"function"},{"inputs":[{"internalType":"bytes","name":"","type":"bytes"}],"name":"checkUpkeep","outputs":[{"internalType":"bool","name":"upkeepNeeded","type":"bool"},{"internalType":"bytes","name":"","type":"bytes"}],"stateMutability":"view","type":"function"},{"inputs":[{"internalType":"string","name":"a","type":"string"},{"internalType":"string","name":"b","type":"string"}],"name":"compareStrings","outputs":[{"internalType":"bool","name":"","type":"bool"}],"stateMutability":"pure","type":"function"},{"inputs":[{"internalType":"bytes32","name":"requestId","type":"bytes32"},{"internalType":"string","name":"_mean","type":"string"},{"internalType":"string","name":"_std","type":"string"},{"internalType":"string","name":"_max","type":"string"},{"internalType":"string","name":"_min","type":"string"},{"internalType":"string","name":"_uuid","type":"string"},{"internalType":"string","name":"_id","type":"string"}],"name":"fulfillMultipleParameters","outputs":[],"stateMutability":"nonpayable","type":"function"},{"inputs":[{"internalType":"uint256","name":"tokenId","type":"uint256"}],"name":"getApproved","outputs":[{"internalType":"address","name":"","type":"address"}],"stateMutability":"view","type":"function"},{"inputs":[{"internalType":"address","name":"owner","type":"address"},{"internalType":"address","name":"operator","type":"address"}],"name":"isApprovedForAll","outputs":[{"internalType":"bool","name":"","type":"bool"}],"stateMutability":"view","type":"function"},{"inputs":[],"name":"name","outputs":[{"internalType":"string","name":"","type":"string"}],"stateMutability":"view","type":"function"},{"inputs":[{"internalType":"uint256","name":"_tokenId","type":"uint256"}],"name":"numberStage","outputs":[{"internalType":"uint256","name":"","type":"uint256"}],"stateMutability":"view","type":"function"},{"inputs":[],"name":"owner","outputs":[{"internalType":"address","name":"","type":"address"}],"stateMutability":"view","type":"function"},{"inputs":[{"internalType":"uint256","name":"tokenId","type":"uint256"}],"name":"ownerOf","outputs":[{"internalType":"address","name":"","type":"address"}],"stateMutability":"view","type":"function"},{"inputs":[{"internalType":"bytes","name":"","type":"bytes"}],"name":"performUpkeep","outputs":[],"stateMutability":"nonpayable","type":"function"},{"inputs":[{"internalType":"bytes32","name":"requestId","type":"bytes32"},{"internalType":"string","name":"_mean","type":"string"},{"internalType":"string","name":"_std","type":"string"},{"internalType":"string","name":"_max","type":"string"},{"internalType":"string","name":"_min","type":"string"},{"internalType":"string","name":"_uuid","type":"string"},{"internalType":"string","name":"_id","type":"string"}],"name":"requestHook","outputs":[],"stateMutability":"nonpayable","type":"function"},{"inputs":[{"internalType":"string","name":"_url","type":"string"}],"name":"requestMultipleParameters","outputs":[],"stateMutability":"nonpayable","type":"function"},{"inputs":[{"internalType":"address","name":"_to","type":"address"},{"internalType":"uint256","name":"_service","type":"uint256"}],"name":"safeMint","outputs":[],"stateMutability":"payable","type":"function"},{"inputs":[{"internalType":"address","name":"from","type":"address"},{"internalType":"address","name":"to","type":"address"},{"internalType":"uint256","name":"tokenId","type":"uint256"}],"name":"safeTransferFrom","outputs":[],"stateMutability":"nonpayable","type":"function"},{"inputs":[{"internalType":"address","name":"from","type":"address"},{"internalType":"address","name":"to","type":"address"},{"internalType":"uint256","name":"tokenId","type":"uint256"},{"internalType":"bytes","name":"data","type":"bytes"}],"name":"safeTransferFrom","outputs":[],"stateMutability":"nonpayable","type":"function"},{"inputs":[{"internalType":"address","name":"operator","type":"address"},{"internalType":"bool","name":"approved","type":"bool"}],"name":"setApprovalForAll","outputs":[],"stateMutability":"nonpayable","type":"function"},{"inputs":[{"internalType":"bytes4","name":"interfaceId","type":"bytes4"}],"name":"supportsInterface","outputs":[{"internalType":"bool","name":"","type":"bool"}],"stateMutability":"view","type":"function"},{"inputs":[],"name":"symbol","outputs":[{"internalType":"string","name":"","type":"string"}],"stateMutability":"view","type":"function"},{"inputs":[],"name":"tokenIdCounter","outputs":[{"internalType":"uint256","name":"_value","type":"uint256"}],"stateMutability":"view","type":"function"},{"inputs":[{"internalType":"uint256","name":"tokenId","type":"uint256"}],"name":"tokenURI","outputs":[{"internalType":"string","name":"","type":"string"}],"stateMutability":"view","type":"function"},{"inputs":[{"internalType":"address","name":"from","type":"address"},{"internalType":"address","name":"to","type":"address"},{"internalType":"uint256","name":"tokenId","type":"uint256"}],"name":"transferFrom","outputs":[],"stateMutability":"nonpayable","type":"function"},{"inputs":[{"internalType":"address","name":"to","type":"address"}],"name":"transferOwnership","outputs":[],"stateMutability":"nonpayable","type":"function"},{"inputs":[],"name":"withdrawLink","outputs":[],"stateMutability":"nonpayable","type":"function"}],"evm":{"bytecode":{"linkReferences":{},"object":"60e06040526001600b55607860809081525067011c37937e08000060a090815250600060c0908152506040518060a00160405280604051806080016040528060508152602001620060c760509139815260200160405180608001604052806050815260200162006167605091398152602001604051806080016040528060508152602001620060776050913981526020016040518060800160405280605081526020016200611760509139815260200160405180608001604052806050815260200162006027605091398152506014906005620000de929190620004e0565b50348015620000ec57600080fd5b50604051620061b7380380620061b783398181016040528101906200011291906200076a565b338060008484816000908162000129919062000a3a565b5080600190816200013b919062000a3a565b505050600073ffffffffffffffffffffffffffffffffffffffff168273ffffffffffffffffffffffffffffffffffffffff1603620001b0576040517f08c379a0000000000000000000000000000000000000000000000000000000008152600401620001a79062000b82565b60405180910390fd5b81600d60006101000a81548173ffffffffffffffffffffffffffffffffffffffff021916908373ffffffffffffffffffffffffffffffffffffffff160217905550600073ffffffffffffffffffffffffffffffffffffffff168173ffffffffffffffffffffffffffffffffffffffff1614620002385762000237816200032760201b60201c565b5b5050506200026073326c977e6efc84e512bb9c30f76e30c160ed06fb6200045860201b60201c565b6200028573b00282b9dbff5b6e07dddfe5540caebf0d8c6ff76200049c60201b60201c565b7f3038323864386461653739393463636438336461356463346330323631653336600f81905550600a670de0b6b3a76400006001620002c5919062000bd3565b620002d1919062000c63565b6010819055504260138190555033601260006101000a81548173ffffffffffffffffffffffffffffffffffffffff021916908373ffffffffffffffffffffffffffffffffffffffff160217905550505062000d0d565b3373ffffffffffffffffffffffffffffffffffffffff168173ffffffffffffffffffffffffffffffffffffffff160362000398576040517f08c379a00000000000000000000000000000000000000000000000000000000081526004016200038f9062000ceb565b60405180910390fd5b80600e60006101000a81548173ffffffffffffffffffffffffffffffffffffffff021916908373ffffffffffffffffffffffffffffffffffffffff1602179055508073ffffffffffffffffffffffffffffffffffffffff16600d60009054906101000a900473ffffffffffffffffffffffffffffffffffffffff1673ffffffffffffffffffffffffffffffffffffffff167fed8889f560326eb138920d842192f0eb3dd22b4f139c87a2c57538e05bae127860405160405180910390a350565b80600960006101000a81548173ffffffffffffffffffffffffffffffffffffffff021916908373ffffffffffffffffffffffffffffffffffffffff16021790555050565b80600a60006101000a81548173ffffffffffffffffffffffffffffffffffffffff021916908373ffffffffffffffffffffffffffffffffffffffff16021790555050565b8280548282559060005260206000209081019282156200052d579160200282015b828111156200052c5782518290816200051b919062000a3a565b509160200191906001019062000501565b5b5090506200053c919062000540565b5090565b5b808211156200056457600081816200055a919062000568565b5060010162000541565b5090565b508054620005769062000829565b6000825580601f106200058a5750620005ab565b601f016020900490600052602060002090810190620005aa9190620005ae565b5b50565b5b80821115620005c9576000816000905550600101620005af565b5090565b6000604051905090565b600080fd5b600080fd5b600080fd5b600080fd5b6000601f19601f8301169050919050565b7f4e487b7100000000000000000000000000000000000000000000000000000000600052604160045260246000fd5b6200063682620005eb565b810181811067ffffffffffffffff82111715620006585762000657620005fc565b5b80604052505050565b60006200066d620005cd565b90506200067b82826200062b565b919050565b600067ffffffffffffffff8211156200069e576200069d620005fc565b5b620006a982620005eb565b9050602081019050919050565b60005b83811015620006d6578082015181840152602081019050620006b9565b83811115620006e6576000848401525b50505050565b600062000703620006fd8462000680565b62000661565b905082815260208101848484011115620007225762000721620005e6565b5b6200072f848285620006b6565b509392505050565b600082601f8301126200074f576200074e620005e1565b5b815162000761848260208601620006ec565b91505092915050565b60008060408385031215620007845762000783620005d7565b5b600083015167ffffffffffffffff811115620007a557620007a4620005dc565b5b620007b38582860162000737565b925050602083015167ffffffffffffffff811115620007d757620007d6620005dc565b5b620007e58582860162000737565b9150509250929050565b600081519050919050565b7f4e487b7100000000000000000000000000000000000000000000000000000000600052602260045260246000fd5b600060028204905060018216806200084257607f821691505b602082108103620008585762000857620007fa565b5b50919050565b60008190508160005260206000209050919050565b60006020601f8301049050919050565b600082821b905092915050565b600060088302620008c27fffffffffffffffffffffffffffffffffffffffffffffffffffffffffffffffff8262000883565b620008ce868362000883565b95508019841693508086168417925050509392505050565b6000819050919050565b6000819050919050565b60006200091b620009156200090f84620008e6565b620008f0565b620008e6565b9050919050565b6000819050919050565b6200093783620008fa565b6200094f620009468262000922565b84845462000890565b825550505050565b600090565b6200096662000957565b620009738184846200092c565b505050565b5b818110156200099b576200098f6000826200095c565b60018101905062000979565b5050565b601f821115620009ea57620009b4816200085e565b620009bf8462000873565b81016020851015620009cf578190505b620009e7620009de8562000873565b83018262000978565b50505b505050565b600082821c905092915050565b600062000a0f60001984600802620009ef565b1980831691505092915050565b600062000a2a8383620009fc565b9150826002028217905092915050565b62000a4582620007ef565b67ffffffffffffffff81111562000a615762000a60620005fc565b5b62000a6d825462000829565b62000a7a8282856200099f565b600060209050601f83116001811462000ab2576000841562000a9d578287015190505b62000aa9858262000a1c565b86555062000b19565b601f19841662000ac2866200085e565b60005b8281101562000aec5784890151825560018201915060208501945060208101905062000ac5565b8683101562000b0c578489015162000b08601f891682620009fc565b8355505b6001600288020188555050505b505050505050565b600082825260208201905092915050565b7f43616e6e6f7420736574206f776e657220746f207a65726f0000000000000000600082015250565b600062000b6a60188362000b21565b915062000b778262000b32565b602082019050919050565b6000602082019050818103600083015262000b9d8162000b5b565b9050919050565b7f4e487b7100000000000000000000000000000000000000000000000000000000600052601160045260246000fd5b600062000be082620008e6565b915062000bed83620008e6565b9250817fffffffffffffffffffffffffffffffffffffffffffffffffffffffffffffffff048311821515161562000c295762000c2862000ba4565b5b828202905092915050565b7f4e487b7100000000000000000000000000000000000000000000000000000000600052601260045260246000fd5b600062000c7082620008e6565b915062000c7d83620008e6565b92508262000c905762000c8f62000c34565b5b828204905092915050565b7f43616e6e6f74207472616e7366657220746f2073656c66000000000000000000600082015250565b600062000cd360178362000b21565b915062000ce08262000c9b565b602082019050919050565b6000602082019050818103600083015262000d068162000cc4565b9050919050565b60805160a05160c0516152e962000d3e600039600050506000505060008181610ac10152610ce201526152e96000f3fe60806040526004361061019c5760003560e01c806385bf9d5b116100ec578063b88d4fde1161008a578063e063ad3311610064578063e063ad33146105c8578063e985e9c5146105f1578063f2fde38b1461062e578063ffebd172146106575761019c565b8063b88d4fde14610525578063bed34bba1461054e578063c87b56dd1461058b5761019c565b806395d89b41116100c657806395d89b411461048a57806398bdf6f5146104b5578063a1448194146104e0578063a22cb465146104fc5761019c565b806385bf9d5b1461040b5780638da5cb5b146104485780638dc654a2146104735761019c565b806342842e0e116101595780636352211e116101335780636352211e1461033c5780636e04ff0d1461037957806370a08231146103b757806379ba5097146103f45761019c565b806342842e0e146102c15780634585e33b146102ea57806352d0b7fb146103135761019c565b806301ffc9a7146101a157806306fdde03146101de57806307391dd614610209578063081812fc14610232578063095ea7b31461026f57806323b872dd14610298575b600080fd5b3480156101ad57600080fd5b506101c860048036038101906101c39190613558565b610680565b6040516101d591906135a0565b60405180910390f35b3480156101ea57600080fd5b506101f3610762565b6040516102009190613654565b60405180910390f35b34801561021557600080fd5b50610230600480360381019061022b91906136ac565b6107f4565b005b34801561023e57600080fd5b50610259600480360381019061025491906136ac565b6108e2565b604051610266919061371a565b60405180910390f35b34801561027b57600080fd5b5061029660048036038101906102919190613761565b610928565b005b3480156102a457600080fd5b506102bf60048036038101906102ba91906137a1565b610a3f565b005b3480156102cd57600080fd5b506102e860048036038101906102e391906137a1565b610a9f565b005b3480156102f657600080fd5b50610311600480360381019061030c9190613859565b610abf565b005b34801561031f57600080fd5b5061033a60048036038101906103359190613a0c565b610bd5565b005b34801561034857600080fd5b50610363600480360381019061035e91906136ac565b610c20565b604051610370919061371a565b60405180910390f35b34801561038557600080fd5b506103a0600480360381019061039b9190613859565b610cd1565b6040516103ae929190613bab565b60405180910390f35b3480156103c357600080fd5b506103de60048036038101906103d99190613bdb565b610d1b565b6040516103eb9190613c17565b60405180910390f35b34801561040057600080fd5b50610409610dd2565b005b34801561041757600080fd5b50610432600480360381019061042d91906136ac565b610f69565b60405161043f9190613c17565b60405180910390f35b34801561045457600080fd5b5061045d611282565b60405161046a919061371a565b60405180910390f35b34801561047f57600080fd5b506104886112ac565b005b34801561049657600080fd5b5061049f6113f9565b6040516104ac9190613654565b60405180910390f35b3480156104c157600080fd5b506104ca61148b565b6040516104d79190613c17565b60405180910390f35b6104fa60048036038101906104f59190613761565b611497565b005b34801561050857600080fd5b50610523600480360381019061051e9190613c5e565b611601565b005b34801561053157600080fd5b5061054c60048036038101906105479190613d3f565b611617565b005b34801561055a57600080fd5b5061057560048036038101906105709190613dc2565b611679565b60405161058291906135a0565b60405180910390f35b34801561059757600080fd5b506105b260048036038101906105ad91906136ac565b6116d2565b6040516105bf9190613654565b60405180910390f35b3480156105d457600080fd5b506105ef60048036038101906105ea9190613a0c565b6116e4565b005b3480156105fd57600080fd5b5061061860048036038101906106139190613e3a565b611802565b60405161062591906135a0565b60405180910390f35b34801561063a57600080fd5b5061065560048036038101906106509190613bdb565b611896565b005b34801561066357600080fd5b5061067e60048036038101906106799190613e7a565b6118aa565b005b60007f80ac58cd000000000000000000000000000000000000000000000000000000007bffffffffffffffffffffffffffffffffffffffffffffffffffffffff1916827bffffffffffffffffffffffffffffffffffffffffffffffffffffffff1916148061074b57507f5b5e139f000000000000000000000000000000000000000000000000000000007bffffffffffffffffffffffffffffffffffffffffffffffffffffffff1916827bffffffffffffffffffffffffffffffffffffffffffffffffffffffff1916145b8061075b575061075a82611c17565b5b9050919050565b60606000805461077190613ef2565b80601f016020809104026020016040519081016040528092919081815260200182805461079d90613ef2565b80156107ea5780601f106107bf576101008083540402835291602001916107ea565b820191906000526020600020905b8154815290600101906020018083116107cd57829003601f168201915b5050505050905090565b60046107ff82610f69565b10156108df576000600161081283610f69565b61081c9190613f52565b905060006014828154811061083457610833613fa8565b5b90600052602060002001805461084990613ef2565b80601f016020809104026020016040519081016040528092919081815260200182805461087590613ef2565b80156108c25780601f10610897576101008083540402835291602001916108c2565b820191906000526020600020905b8154815290600101906020018083116108a557829003601f168201915b505050505090506108d38382611c81565b6108dc816118aa565b50505b50565b60006108ed82611cee565b6004600083815260200190815260200160002060009054906101000a900473ffffffffffffffffffffffffffffffffffffffff169050919050565b600061093382610c20565b90508073ffffffffffffffffffffffffffffffffffffffff168373ffffffffffffffffffffffffffffffffffffffff16036109a3576040517f08c379a000000000000000000000000000000000000000000000000000000000815260040161099a90614049565b60405180910390fd5b8073ffffffffffffffffffffffffffffffffffffffff166109c2611d39565b73ffffffffffffffffffffffffffffffffffffffff1614806109f157506109f0816109eb611d39565b611802565b5b610a30576040517f08c379a0000000000000000000000000000000000000000000000000000000008152600401610a27906140db565b60405180910390fd5b610a3a8383611d41565b505050565b610a50610a4a611d39565b82611dfa565b610a8f576040517f08c379a0000000000000000000000000000000000000000000000000000000008152600401610a869061416d565b60405180910390fd5b610a9a838383611e8f565b505050565b610aba83838360405180602001604052806000815250611617565b505050565b7f000000000000000000000000000000000000000000000000000000000000000060135442610aee919061418d565b1115610bd1574260138190555060006001610b0960116120f5565b610b13919061418d565b9050610b1e816107f4565b610bcf816014600081548110610b3757610b36613fa8565b5b906000526020600020018054610b4c90613ef2565b80601f0160208091040260200160405190810160405280929190818152602001828054610b7890613ef2565b8015610bc55780601f10610b9a57610100808354040283529160200191610bc5565b820191906000526020600020905b815481529060010190602001808311610ba857829003601f168201915b5050505050611c81565b505b5050565b867f9bbe9bdb256fd5a26a4734003ae01898187a7c798258e71aa74cd015bad7cef1878787878787604051610c0f969594939291906141c1565b60405180910390a250505050505050565b6000806002600084815260200190815260200160002060009054906101000a900473ffffffffffffffffffffffffffffffffffffffff169050600073ffffffffffffffffffffffffffffffffffffffff168173ffffffffffffffffffffffffffffffffffffffff1603610cc8576040517f08c379a0000000000000000000000000000000000000000000000000000000008152600401610cbf90614298565b60405180910390fd5b80915050919050565b60006060600080158015610d1157507f000000000000000000000000000000000000000000000000000000000000000060135442610d0f919061418d565b115b9250509250929050565b60008073ffffffffffffffffffffffffffffffffffffffff168273ffffffffffffffffffffffffffffffffffffffff1603610d8b576040517f08c379a0000000000000000000000000000000000000000000000000000000008152600401610d829061432a565b60405180910390fd5b600360008373ffffffffffffffffffffffffffffffffffffffff1673ffffffffffffffffffffffffffffffffffffffff168152602001908152602001600020549050919050565b600e60009054906101000a900473ffffffffffffffffffffffffffffffffffffffff1673ffffffffffffffffffffffffffffffffffffffff163373ffffffffffffffffffffffffffffffffffffffff1614610e62576040517f08c379a0000000000000000000000000000000000000000000000000000000008152600401610e5990614396565b60405180910390fd5b6000600d60009054906101000a900473ffffffffffffffffffffffffffffffffffffffff16905033600d60006101000a81548173ffffffffffffffffffffffffffffffffffffffff021916908373ffffffffffffffffffffffffffffffffffffffff1602179055506000600e60006101000a81548173ffffffffffffffffffffffffffffffffffffffff021916908373ffffffffffffffffffffffffffffffffffffffff1602179055503373ffffffffffffffffffffffffffffffffffffffff168173ffffffffffffffffffffffffffffffffffffffff167f8be0079c531659141344cd1fd0a4f28419497f9722a3daafe3b4186f6b6457e060405160405180910390a350565b600080610f75836116d2565b9050611028816014600081548110610f9057610f8f613fa8565b5b906000526020600020018054610fa590613ef2565b80601f0160208091040260200160405190810160405280929190818152602001828054610fd190613ef2565b801561101e5780601f10610ff35761010080835404028352916020019161101e565b820191906000526020600020905b81548152906001019060200180831161100157829003601f168201915b5050505050611679565b1561103757600091505061127d565b6110e88160146001815481106110505761104f613fa8565b5b90600052602060002001805461106590613ef2565b80601f016020809104026020016040519081016040528092919081815260200182805461109190613ef2565b80156110de5780601f106110b3576101008083540402835291602001916110de565b820191906000526020600020905b8154815290600101906020018083116110c157829003601f168201915b5050505050611679565b156110f757600191505061127d565b6111a88160146002815481106111105761110f613fa8565b5b90600052602060002001805461112590613ef2565b80601f016020809104026020016040519081016040528092919081815260200182805461115190613ef2565b801561119e5780601f106111735761010080835404028352916020019161119e565b820191906000526020600020905b81548152906001019060200180831161118157829003601f168201915b5050505050611679565b156111b757600291505061127d565b6112688160146003815481106111d0576111cf613fa8565b5b9060005260206000200180546111e590613ef2565b80601f016020809104026020016040519081016040528092919081815260200182805461121190613ef2565b801561125e5780601f106112335761010080835404028352916020019161125e565b820191906000526020600020905b81548152906001019060200180831161124157829003601f168201915b5050505050611679565b1561127757600391505061127d565b60049150505b919050565b6000600d60009054906101000a900473ffffffffffffffffffffffffffffffffffffffff16905090565b6112b4612103565b60006112be612195565b90508073ffffffffffffffffffffffffffffffffffffffff1663a9059cbb338373ffffffffffffffffffffffffffffffffffffffff166370a08231306040518263ffffffff1660e01b8152600401611316919061371a565b602060405180830381865afa158015611333573d6000803e3d6000fd5b505050506040513d601f19601f8201168201806040525081019061135791906143cb565b6040518363ffffffff1660e01b81526004016113749291906143f8565b6020604051808303816000875af1158015611393573d6000803e3d6000fd5b505050506040513d601f19601f820116820180604052508101906113b79190614436565b6113f6576040517f08c379a00000000000000000000000000000000000000000000000000000000081526004016113ed906144af565b60405180910390fd5b50565b60606001805461140890613ef2565b80601f016020809104026020016040519081016040528092919081815260200182805461143490613ef2565b80156114815780601f1061145657610100808354040283529160200191611481565b820191906000526020600020905b81548152906001019060200180831161146457829003601f168201915b5050505050905090565b60118060000154905081565b61149f612103565b803410156114e2576040517f08c379a00000000000000000000000000000000000000000000000000000000081526004016114d99061451b565b60405180910390fd5b8173ffffffffffffffffffffffffffffffffffffffff166108fc349081150290604051600060405180830381858888f19350505050158015611528573d6000803e3d6000fd5b50600061153560116120f5565b905061154160116121bf565b61154b83826121d5565b6115fc81601460008154811061156457611563613fa8565b5b90600052602060002001805461157990613ef2565b80601f01602080910402602001604051908101604052809291908181526020018280546115a590613ef2565b80156115f25780601f106115c7576101008083540402835291602001916115f2565b820191906000526020600020905b8154815290600101906020018083116115d557829003601f168201915b5050505050611c81565b505050565b61161361160c611d39565b83836121f3565b5050565b611628611622611d39565b83611dfa565b611667576040517f08c379a000000000000000000000000000000000000000000000000000000000815260040161165e9061416d565b60405180910390fd5b6116738484848461235f565b50505050565b60008160405160200161168c9190614577565b60405160208183030381529060405280519060200120836040516020016116b39190614577565b6040516020818303038152906040528051906020012014905092915050565b60606116dd826123bb565b9050919050565b86600c600082815260200190815260200160002060009054906101000a900473ffffffffffffffffffffffffffffffffffffffff1673ffffffffffffffffffffffffffffffffffffffff163373ffffffffffffffffffffffffffffffffffffffff1614611786576040517f08c379a000000000000000000000000000000000000000000000000000000000815260040161177d90614600565b60405180910390fd5b600c600082815260200190815260200160002060006101000a81549073ffffffffffffffffffffffffffffffffffffffff0219169055807f7cc135e0cebb02c3480ae5d74d377283180a2601f8f644edf7987b009316c63a60405160405180910390a26117f888888888888888610bd5565b5050505050505050565b6000600560008473ffffffffffffffffffffffffffffffffffffffff1673ffffffffffffffffffffffffffffffffffffffff16815260200190815260200160002060008373ffffffffffffffffffffffffffffffffffffffff1673ffffffffffffffffffffffffffffffffffffffff16815260200190815260200160002060009054906101000a900460ff16905092915050565b61189e612103565b6118a7816124cd565b50565b60006118c0600f543063e063ad3360e01b6125fb565b905061190c6040518060400160405280600381526020017f6765740000000000000000000000000000000000000000000000000000000000815250838361262c9092919063ffffffff16565b61198b6040518060400160405280600481526020017f6d65616e000000000000000000000000000000000000000000000000000000008152506040518060400160405280600981526020017f6e6476692c6d65616e00000000000000000000000000000000000000000000008152508361262c9092919063ffffffff16565b611a0a6040518060400160405280600381526020017f73746400000000000000000000000000000000000000000000000000000000008152506040518060400160405280600881526020017f6e6476692c7374640000000000000000000000000000000000000000000000008152508361262c9092919063ffffffff16565b611a896040518060400160405280600381526020017f6d617800000000000000000000000000000000000000000000000000000000008152506040518060400160405280600881526020017f6e6476692c6d61780000000000000000000000000000000000000000000000008152508361262c9092919063ffffffff16565b611b086040518060400160405280600381526020017f6d696e00000000000000000000000000000000000000000000000000000000008152506040518060400160405280600881526020017f6e6476692c6d696e0000000000000000000000000000000000000000000000008152508361262c9092919063ffffffff16565b611b876040518060400160405280600681526020017f757569645f7000000000000000000000000000000000000000000000000000008152506040518060400160405280600b81526020017f6e6476692c757569645f700000000000000000000000000000000000000000008152508361262c9092919063ffffffff16565b611c066040518060400160405280600481526020017f69645f70000000000000000000000000000000000000000000000000000000008152506040518060400160405280600981526020017f6e6476692c69645f7000000000000000000000000000000000000000000000008152508361262c9092919063ffffffff16565b611c128160105461265f565b505050565b60007f01ffc9a7000000000000000000000000000000000000000000000000000000007bffffffffffffffffffffffffffffffffffffffffffffffffffffffff1916827bffffffffffffffffffffffffffffffffffffffffffffffffffffffff1916149050919050565b611c8a82612696565b611cc9576040517f08c379a0000000000000000000000000000000000000000000000000000000008152600401611cc090614692565b60405180910390fd5b80600660008481526020019081526020016000209081611ce9919061485e565b505050565b611cf781612696565b611d36576040517f08c379a0000000000000000000000000000000000000000000000000000000008152600401611d2d90614298565b60405180910390fd5b50565b600033905090565b816004600083815260200190815260200160002060006101000a81548173ffffffffffffffffffffffffffffffffffffffff021916908373ffffffffffffffffffffffffffffffffffffffff160217905550808273ffffffffffffffffffffffffffffffffffffffff16611db483610c20565b73ffffffffffffffffffffffffffffffffffffffff167f8c5be1e5ebec7d5bd14f71427d1e84f3dd0314c0f7b2291e5b200ac8c7c3b92560405160405180910390a45050565b600080611e0683610c20565b90508073ffffffffffffffffffffffffffffffffffffffff168473ffffffffffffffffffffffffffffffffffffffff161480611e485750611e478185611802565b5b80611e8657508373ffffffffffffffffffffffffffffffffffffffff16611e6e846108e2565b73ffffffffffffffffffffffffffffffffffffffff16145b91505092915050565b8273ffffffffffffffffffffffffffffffffffffffff16611eaf82610c20565b73ffffffffffffffffffffffffffffffffffffffff1614611f05576040517f08c379a0000000000000000000000000000000000000000000000000000000008152600401611efc906149a2565b60405180910390fd5b600073ffffffffffffffffffffffffffffffffffffffff168273ffffffffffffffffffffffffffffffffffffffff1603611f74576040517f08c379a0000000000000000000000000000000000000000000000000000000008152600401611f6b90614a34565b60405180910390fd5b611f7f838383612702565b611f8a600082611d41565b6001600360008573ffffffffffffffffffffffffffffffffffffffff1673ffffffffffffffffffffffffffffffffffffffff1681526020019081526020016000206000828254611fda919061418d565b925050819055506001600360008473ffffffffffffffffffffffffffffffffffffffff1673ffffffffffffffffffffffffffffffffffffffff16815260200190815260200160002060008282546120319190613f52565b92505081905550816002600083815260200190815260200160002060006101000a81548173ffffffffffffffffffffffffffffffffffffffff021916908373ffffffffffffffffffffffffffffffffffffffff160217905550808273ffffffffffffffffffffffffffffffffffffffff168473ffffffffffffffffffffffffffffffffffffffff167fddf252ad1be2c89b69c2b068fc378daa952ba7f163c4a11628f55a4df523b3ef60405160405180910390a46120f0838383612707565b505050565b600081600001549050919050565b600d60009054906101000a900473ffffffffffffffffffffffffffffffffffffffff1673ffffffffffffffffffffffffffffffffffffffff163373ffffffffffffffffffffffffffffffffffffffff1614612193576040517f08c379a000000000000000000000000000000000000000000000000000000000815260040161218a90614aa0565b60405180910390fd5b565b6000600960009054906101000a900473ffffffffffffffffffffffffffffffffffffffff16905090565b6001816000016000828254019250508190555050565b6121ef82826040518060200160405280600081525061270c565b5050565b8173ffffffffffffffffffffffffffffffffffffffff168373ffffffffffffffffffffffffffffffffffffffff1603612261576040517f08c379a000000000000000000000000000000000000000000000000000000000815260040161225890614b0c565b60405180910390fd5b80600560008573ffffffffffffffffffffffffffffffffffffffff1673ffffffffffffffffffffffffffffffffffffffff16815260200190815260200160002060008473ffffffffffffffffffffffffffffffffffffffff1673ffffffffffffffffffffffffffffffffffffffff16815260200190815260200160002060006101000a81548160ff0219169083151502179055508173ffffffffffffffffffffffffffffffffffffffff168373ffffffffffffffffffffffffffffffffffffffff167f17307eab39ab6107e8899845ad3d59bd9653f200f220920489ca2b5937696c318360405161235291906135a0565b60405180910390a3505050565b61236a848484611e8f565b61237684848484612767565b6123b5576040517f08c379a00000000000000000000000000000000000000000000000000000000081526004016123ac90614b9e565b60405180910390fd5b50505050565b60606123c682611cee565b60006006600084815260200190815260200160002080546123e690613ef2565b80601f016020809104026020016040519081016040528092919081815260200182805461241290613ef2565b801561245f5780601f106124345761010080835404028352916020019161245f565b820191906000526020600020905b81548152906001019060200180831161244257829003601f168201915b5050505050905060006124706128ee565b905060008151036124855781925050506124c8565b6000825111156124ba5780826040516020016124a2929190614bbe565b604051602081830303815290604052925050506124c8565b6124c384612905565b925050505b919050565b3373ffffffffffffffffffffffffffffffffffffffff168173ffffffffffffffffffffffffffffffffffffffff160361253b576040517f08c379a000000000000000000000000000000000000000000000000000000000815260040161253290614c2e565b60405180910390fd5b80600e60006101000a81548173ffffffffffffffffffffffffffffffffffffffff021916908373ffffffffffffffffffffffffffffffffffffffff1602179055508073ffffffffffffffffffffffffffffffffffffffff16600d60009054906101000a900473ffffffffffffffffffffffffffffffffffffffff1673ffffffffffffffffffffffffffffffffffffffff167fed8889f560326eb138920d842192f0eb3dd22b4f139c87a2c57538e05bae127860405160405180910390a350565b612603613465565b61260b613465565b6126228585858461296d909392919063ffffffff16565b9150509392505050565b612643828460800151612a1d90919063ffffffff16565b61265a818460800151612a1d90919063ffffffff16565b505050565b600061268e600a60009054906101000a900473ffffffffffffffffffffffffffffffffffffffff168484612a42565b905092915050565b60008073ffffffffffffffffffffffffffffffffffffffff166002600084815260200190815260200160002060009054906101000a900473ffffffffffffffffffffffffffffffffffffffff1673ffffffffffffffffffffffffffffffffffffffff1614159050919050565b505050565b505050565b6127168383612b0e565b6127236000848484612767565b612762576040517f08c379a000000000000000000000000000000000000000000000000000000000815260040161275990614b9e565b60405180910390fd5b505050565b60006127888473ffffffffffffffffffffffffffffffffffffffff16612ce7565b156128e1578373ffffffffffffffffffffffffffffffffffffffff1663150b7a026127b1611d39565b8786866040518563ffffffff1660e01b81526004016127d39493929190614c4e565b6020604051808303816000875af192505050801561280f57506040513d601f19601f8201168201806040525081019061280c9190614caf565b60015b612891573d806000811461283f576040519150601f19603f3d011682016040523d82523d6000602084013e612844565b606091505b506000815103612889576040517f08c379a000000000000000000000000000000000000000000000000000000000815260040161288090614b9e565b60405180910390fd5b805181602001fd5b63150b7a0260e01b7bffffffffffffffffffffffffffffffffffffffffffffffffffffffff1916817bffffffffffffffffffffffffffffffffffffffffffffffffffffffff1916149150506128e6565b600190505b949350505050565b606060405180602001604052806000815250905090565b606061291082611cee565b600061291a6128ee565b9050600081511161293a5760405180602001604052806000815250612965565b8061294484612d0a565b604051602001612955929190614bbe565b6040516020818303038152906040525b915050919050565b612975613465565b6129858560800151610100612e6a565b508385600001818152505082856020019073ffffffffffffffffffffffffffffffffffffffff16908173ffffffffffffffffffffffffffffffffffffffff16815250508185604001907bffffffffffffffffffffffffffffffffffffffffffffffffffffffff191690817bffffffffffffffffffffffffffffffffffffffffffffffffffffffff191681525050849050949350505050565b612a2a8260038351612ed4565b612a3d818361305990919063ffffffff16565b505050565b600080600b549050600181612a579190613f52565b600b819055506000634042994660e01b60008087600001513089604001518760018c6080015160000151604051602401612a98989796959493929190614cfa565b604051602081830303815290604052907bffffffffffffffffffffffffffffffffffffffffffffffffffffffff19166020820180517bffffffffffffffffffffffffffffffffffffffffffffffffffffffff83818316178352505050509050612b038683868461307b565b925050509392505050565b600073ffffffffffffffffffffffffffffffffffffffff168273ffffffffffffffffffffffffffffffffffffffff1603612b7d576040517f08c379a0000000000000000000000000000000000000000000000000000000008152600401612b7490614dcb565b60405180910390fd5b612b8681612696565b15612bc6576040517f08c379a0000000000000000000000000000000000000000000000000000000008152600401612bbd90614e37565b60405180910390fd5b612bd260008383612702565b6001600360008473ffffffffffffffffffffffffffffffffffffffff1673ffffffffffffffffffffffffffffffffffffffff1681526020019081526020016000206000828254612c229190613f52565b92505081905550816002600083815260200190815260200160002060006101000a81548173ffffffffffffffffffffffffffffffffffffffff021916908373ffffffffffffffffffffffffffffffffffffffff160217905550808273ffffffffffffffffffffffffffffffffffffffff16600073ffffffffffffffffffffffffffffffffffffffff167fddf252ad1be2c89b69c2b068fc378daa952ba7f163c4a11628f55a4df523b3ef60405160405180910390a4612ce360008383612707565b5050565b6000808273ffffffffffffffffffffffffffffffffffffffff163b119050919050565b606060008203612d51576040518060400160405280600181526020017f30000000000000000000000000000000000000000000000000000000000000008152509050612e65565b600082905060005b60008214612d83578080612d6c90614e57565b915050600a82612d7c9190614ece565b9150612d59565b60008167ffffffffffffffff811115612d9f57612d9e6138e1565b5b6040519080825280601f01601f191660200182016040528015612dd15781602001600182028036833780820191505090505b5090505b60008514612e5e57600182612dea919061418d565b9150600a85612df99190614eff565b6030612e059190613f52565b60f81b818381518110612e1b57612e1a613fa8565b5b60200101907effffffffffffffffffffffffffffffffffffffffffffffffffffffffffffff1916908160001a905350600a85612e579190614ece565b9450612dd5565b8093505050505b919050565b612e726134d2565b6000602083612e819190614eff565b14612ead57602082612e939190614eff565b6020612e9f919061418d565b82612eaa9190613f52565b91505b81836020018181525050604051808452600081528281016020016040525082905092915050565b60178167ffffffffffffffff1611612f0b57612f058160058460ff16901b60ff16178461321090919063ffffffff16565b50613054565b60ff8167ffffffffffffffff1611612f6157612f3a601860058460ff16901b178461321090919063ffffffff16565b50612f5b8167ffffffffffffffff166001856132309092919063ffffffff16565b50613053565b61ffff8167ffffffffffffffff1611612fb857612f91601960058460ff16901b178461321090919063ffffffff16565b50612fb28167ffffffffffffffff166002856132309092919063ffffffff16565b50613052565b63ffffffff8167ffffffffffffffff161161301157612fea601a60058460ff16901b178461321090919063ffffffff16565b5061300b8167ffffffffffffffff166004856132309092919063ffffffff16565b50613051565b61302e601b60058460ff16901b178461321090919063ffffffff16565b5061304f8167ffffffffffffffff166008856132309092919063ffffffff16565b505b5b5b5b505050565b6130616134d2565b61307383846000015151848551613252565b905092915050565b60003084604051602001613090929190614fdf565b60405160208183030381529060405280519060200120905084600c600083815260200190815260200160002060006101000a81548173ffffffffffffffffffffffffffffffffffffffff021916908373ffffffffffffffffffffffffffffffffffffffff160217905550807fb5e6e01e79f91267dc17b4e6314d5d4d03593d2ceee0fbb452b750bd70ea5af960405160405180910390a2600960009054906101000a900473ffffffffffffffffffffffffffffffffffffffff1673ffffffffffffffffffffffffffffffffffffffff16634000aea08685856040518463ffffffff1660e01b81526004016131869392919061500b565b6020604051808303816000875af11580156131a5573d6000803e3d6000fd5b505050506040513d601f19601f820116820180604052508101906131c99190614436565b613208576040517f08c379a00000000000000000000000000000000000000000000000000000000081526004016131ff906150bb565b60405180910390fd5b949350505050565b6132186134d2565b6132288384600001515184613341565b905092915050565b6132386134d2565b613249848560000151518585613397565b90509392505050565b61325a6134d2565b825182111561326857600080fd5b846020015182856132799190613f52565b11156132ae576132ad85600261329e886020015188876132999190613f52565b613425565b6132a891906150db565b613441565b5b6000808651805187602083010193508088870111156132cd5787860182525b60208701925050505b6020841061331457805182526020826132ef9190613f52565b91506020816132fe9190613f52565b905060208461330d919061418d565b93506132d6565b60006001856020036101000a03905080198251168184511681811785525050508692505050949350505050565b6133496134d2565b8360200151831061336f5761336e846002866020015161336991906150db565b613441565b5b8351805160208583010184815381860361338a576001820183525b5050508390509392505050565b61339f6134d2565b846020015184836133b09190613f52565b11156133d8576133d785600286856133c89190613f52565b6133d291906150db565b613441565b5b60006001836101006133ea9190615268565b6133f4919061418d565b905085518386820101858319825116178152815185880111156134175784870182525b505085915050949350505050565b6000818311156134375782905061343b565b8190505b92915050565b6000826000015190506134548383612e6a565b5061345f8382613059565b50505050565b6040518060a0016040528060008019168152602001600073ffffffffffffffffffffffffffffffffffffffff16815260200160007bffffffffffffffffffffffffffffffffffffffffffffffffffffffff19168152602001600081526020016134cc6134d2565b81525090565b604051806040016040528060608152602001600081525090565b6000604051905090565b600080fd5b600080fd5b60007fffffffff0000000000000000000000000000000000000000000000000000000082169050919050565b61353581613500565b811461354057600080fd5b50565b6000813590506135528161352c565b92915050565b60006020828403121561356e5761356d6134f6565b5b600061357c84828501613543565b91505092915050565b60008115159050919050565b61359a81613585565b82525050565b60006020820190506135b56000830184613591565b92915050565b600081519050919050565b600082825260208201905092915050565b60005b838110156135f55780820151818401526020810190506135da565b83811115613604576000848401525b50505050565b6000601f19601f8301169050919050565b6000613626826135bb565b61363081856135c6565b93506136408185602086016135d7565b6136498161360a565b840191505092915050565b6000602082019050818103600083015261366e818461361b565b905092915050565b6000819050919050565b61368981613676565b811461369457600080fd5b50565b6000813590506136a681613680565b92915050565b6000602082840312156136c2576136c16134f6565b5b60006136d084828501613697565b91505092915050565b600073ffffffffffffffffffffffffffffffffffffffff82169050919050565b6000613704826136d9565b9050919050565b613714816136f9565b82525050565b600060208201905061372f600083018461370b565b92915050565b61373e816136f9565b811461374957600080fd5b50565b60008135905061375b81613735565b92915050565b60008060408385031215613778576137776134f6565b5b60006137868582860161374c565b925050602061379785828601613697565b9150509250929050565b6000806000606084860312156137ba576137b96134f6565b5b60006137c88682870161374c565b93505060206137d98682870161374c565b92505060406137ea86828701613697565b9150509250925092565b600080fd5b600080fd5b600080fd5b60008083601f840112613819576138186137f4565b5b8235905067ffffffffffffffff811115613836576138356137f9565b5b602083019150836001820283011115613852576138516137fe565b5b9250929050565b600080602083850312156138705761386f6134f6565b5b600083013567ffffffffffffffff81111561388e5761388d6134fb565b5b61389a85828601613803565b92509250509250929050565b6000819050919050565b6138b9816138a6565b81146138c457600080fd5b50565b6000813590506138d6816138b0565b92915050565b600080fd5b7f4e487b7100000000000000000000000000000000000000000000000000000000600052604160045260246000fd5b6139198261360a565b810181811067ffffffffffffffff82111715613938576139376138e1565b5b80604052505050565b600061394b6134ec565b90506139578282613910565b919050565b600067ffffffffffffffff821115613977576139766138e1565b5b6139808261360a565b9050602081019050919050565b82818337600083830152505050565b60006139af6139aa8461395c565b613941565b9050828152602081018484840111156139cb576139ca6138dc565b5b6139d684828561398d565b509392505050565b600082601f8301126139f3576139f26137f4565b5b8135613a0384826020860161399c565b91505092915050565b600080600080600080600060e0888a031215613a2b57613a2a6134f6565b5b6000613a398a828b016138c7565b975050602088013567ffffffffffffffff811115613a5a57613a596134fb565b5b613a668a828b016139de565b965050604088013567ffffffffffffffff811115613a8757613a866134fb565b5b613a938a828b016139de565b955050606088013567ffffffffffffffff811115613ab457613ab36134fb565b5b613ac08a828b016139de565b945050608088013567ffffffffffffffff811115613ae157613ae06134fb565b5b613aed8a828b016139de565b93505060a088013567ffffffffffffffff811115613b0e57613b0d6134fb565b5b613b1a8a828b016139de565b92505060c088013567ffffffffffffffff811115613b3b57613b3a6134fb565b5b613b478a828b016139de565b91505092959891949750929550565b600081519050919050565b600082825260208201905092915050565b6000613b7d82613b56565b613b878185613b61565b9350613b978185602086016135d7565b613ba08161360a565b840191505092915050565b6000604082019050613bc06000830185613591565b8181036020830152613bd28184613b72565b90509392505050565b600060208284031215613bf157613bf06134f6565b5b6000613bff8482850161374c565b91505092915050565b613c1181613676565b82525050565b6000602082019050613c2c6000830184613c08565b92915050565b613c3b81613585565b8114613c4657600080fd5b50565b600081359050613c5881613c32565b92915050565b60008060408385031215613c7557613c746134f6565b5b6000613c838582860161374c565b9250506020613c9485828601613c49565b9150509250929050565b600067ffffffffffffffff821115613cb957613cb86138e1565b5b613cc28261360a565b9050602081019050919050565b6000613ce2613cdd84613c9e565b613941565b905082815260208101848484011115613cfe57613cfd6138dc565b5b613d0984828561398d565b509392505050565b600082601f830112613d2657613d256137f4565b5b8135613d36848260208601613ccf565b91505092915050565b60008060008060808587031215613d5957613d586134f6565b5b6000613d678782880161374c565b9450506020613d788782880161374c565b9350506040613d8987828801613697565b925050606085013567ffffffffffffffff811115613daa57613da96134fb565b5b613db687828801613d11565b91505092959194509250565b60008060408385031215613dd957613dd86134f6565b5b600083013567ffffffffffffffff811115613df757613df66134fb565b5b613e03858286016139de565b925050602083013567ffffffffffffffff811115613e2457613e236134fb565b5b613e30858286016139de565b9150509250929050565b60008060408385031215613e5157613e506134f6565b5b6000613e5f8582860161374c565b9250506020613e708582860161374c565b9150509250929050565b600060208284031215613e9057613e8f6134f6565b5b600082013567ffffffffffffffff811115613eae57613ead6134fb565b5b613eba848285016139de565b91505092915050565b7f4e487b7100000000000000000000000000000000000000000000000000000000600052602260045260246000fd5b60006002820490506001821680613f0a57607f821691505b602082108103613f1d57613f1c613ec3565b5b50919050565b7f4e487b7100000000000000000000000000000000000000000000000000000000600052601160045260246000fd5b6000613f5d82613676565b9150613f6883613676565b9250827fffffffffffffffffffffffffffffffffffffffffffffffffffffffffffffffff03821115613f9d57613f9c613f23565b5b828201905092915050565b7f4e487b7100000000000000000000000000000000000000000000000000000000600052603260045260246000fd5b7f4552433732313a20617070726f76616c20746f2063757272656e74206f776e6560008201527f7200000000000000000000000000000000000000000000000000000000000000602082015250565b60006140336021836135c6565b915061403e82613fd7565b604082019050919050565b6000602082019050818103600083015261406281614026565b9050919050565b7f4552433732313a20617070726f76652063616c6c6572206973206e6f7420746f60008201527f6b656e206f776e6572206e6f7220617070726f76656420666f7220616c6c0000602082015250565b60006140c5603e836135c6565b91506140d082614069565b604082019050919050565b600060208201905081810360008301526140f4816140b8565b9050919050565b7f4552433732313a2063616c6c6572206973206e6f7420746f6b656e206f776e6560008201527f72206e6f7220617070726f766564000000000000000000000000000000000000602082015250565b6000614157602e836135c6565b9150614162826140fb565b604082019050919050565b600060208201905081810360008301526141868161414a565b9050919050565b600061419882613676565b91506141a383613676565b9250828210156141b6576141b5613f23565b5b828203905092915050565b600060c08201905081810360008301526141db818961361b565b905081810360208301526141ef818861361b565b90508181036040830152614203818761361b565b90508181036060830152614217818661361b565b9050818103608083015261422b818561361b565b905081810360a083015261423f818461361b565b9050979650505050505050565b7f4552433732313a20696e76616c696420746f6b656e2049440000000000000000600082015250565b60006142826018836135c6565b915061428d8261424c565b602082019050919050565b600060208201905081810360008301526142b181614275565b9050919050565b7f4552433732313a2061646472657373207a65726f206973206e6f74206120766160008201527f6c6964206f776e65720000000000000000000000000000000000000000000000602082015250565b60006143146029836135c6565b915061431f826142b8565b604082019050919050565b6000602082019050818103600083015261434381614307565b9050919050565b7f4d7573742062652070726f706f736564206f776e657200000000000000000000600082015250565b60006143806016836135c6565b915061438b8261434a565b602082019050919050565b600060208201905081810360008301526143af81614373565b9050919050565b6000815190506143c581613680565b92915050565b6000602082840312156143e1576143e06134f6565b5b60006143ef848285016143b6565b91505092915050565b600060408201905061440d600083018561370b565b61441a6020830184613c08565b9392505050565b60008151905061443081613c32565b92915050565b60006020828403121561444c5761444b6134f6565b5b600061445a84828501614421565b91505092915050565b7f556e61626c6520746f207472616e736665720000000000000000000000000000600082015250565b60006144996012836135c6565b91506144a482614463565b602082019050919050565b600060208201905081810360008301526144c88161448c565b9050919050565b7f5468652066756e647320646f6e27742073756666696369656e74000000000000600082015250565b6000614505601a836135c6565b9150614510826144cf565b602082019050919050565b60006020820190508181036000830152614534816144f8565b9050919050565b600081905092915050565b6000614551826135bb565b61455b818561453b565b935061456b8185602086016135d7565b80840191505092915050565b60006145838284614546565b915081905092915050565b7f536f75726365206d75737420626520746865206f7261636c65206f662074686560008201527f2072657175657374000000000000000000000000000000000000000000000000602082015250565b60006145ea6028836135c6565b91506145f58261458e565b604082019050919050565b60006020820190508181036000830152614619816145dd565b9050919050565b7f45524337323155524953746f726167653a2055524920736574206f66206e6f6e60008201527f6578697374656e7420746f6b656e000000000000000000000000000000000000602082015250565b600061467c602e836135c6565b915061468782614620565b604082019050919050565b600060208201905081810360008301526146ab8161466f565b9050919050565b60008190508160005260206000209050919050565b60006020601f8301049050919050565b600082821b905092915050565b6000600883026147147fffffffffffffffffffffffffffffffffffffffffffffffffffffffffffffffff826146d7565b61471e86836146d7565b95508019841693508086168417925050509392505050565b6000819050919050565b600061475b61475661475184613676565b614736565b613676565b9050919050565b6000819050919050565b61477583614740565b61478961478182614762565b8484546146e4565b825550505050565b600090565b61479e614791565b6147a981848461476c565b505050565b5b818110156147cd576147c2600082614796565b6001810190506147af565b5050565b601f821115614812576147e3816146b2565b6147ec846146c7565b810160208510156147fb578190505b61480f614807856146c7565b8301826147ae565b50505b505050565b600082821c905092915050565b600061483560001984600802614817565b1980831691505092915050565b600061484e8383614824565b9150826002028217905092915050565b614867826135bb565b67ffffffffffffffff8111156148805761487f6138e1565b5b61488a8254613ef2565b6148958282856147d1565b600060209050601f8311600181146148c857600084156148b6578287015190505b6148c08582614842565b865550614928565b601f1984166148d6866146b2565b60005b828110156148fe578489015182556001820191506020850194506020810190506148d9565b8683101561491b5784890151614917601f891682614824565b8355505b6001600288020188555050505b505050505050565b7f4552433732313a207472616e736665722066726f6d20696e636f72726563742060008201527f6f776e6572000000000000000000000000000000000000000000000000000000602082015250565b600061498c6025836135c6565b915061499782614930565b604082019050919050565b600060208201905081810360008301526149bb8161497f565b9050919050565b7f4552433732313a207472616e7366657220746f20746865207a65726f2061646460008201527f7265737300000000000000000000000000000000000000000000000000000000602082015250565b6000614a1e6024836135c6565b9150614a29826149c2565b604082019050919050565b60006020820190508181036000830152614a4d81614a11565b9050919050565b7f4f6e6c792063616c6c61626c65206279206f776e657200000000000000000000600082015250565b6000614a8a6016836135c6565b9150614a9582614a54565b602082019050919050565b60006020820190508181036000830152614ab981614a7d565b9050919050565b7f4552433732313a20617070726f766520746f2063616c6c657200000000000000600082015250565b6000614af66019836135c6565b9150614b0182614ac0565b602082019050919050565b60006020820190508181036000830152614b2581614ae9565b9050919050565b7f4552433732313a207472616e7366657220746f206e6f6e20455243373231526560008201527f63656976657220696d706c656d656e7465720000000000000000000000000000602082015250565b6000614b886032836135c6565b9150614b9382614b2c565b604082019050919050565b60006020820190508181036000830152614bb781614b7b565b9050919050565b6000614bca8285614546565b9150614bd68284614546565b91508190509392505050565b7f43616e6e6f74207472616e7366657220746f2073656c66000000000000000000600082015250565b6000614c186017836135c6565b9150614c2382614be2565b602082019050919050565b60006020820190508181036000830152614c4781614c0b565b9050919050565b6000608082019050614c63600083018761370b565b614c70602083018661370b565b614c7d6040830185613c08565b8181036060830152614c8f8184613b72565b905095945050505050565b600081519050614ca98161352c565b92915050565b600060208284031215614cc557614cc46134f6565b5b6000614cd384828501614c9a565b91505092915050565b614ce5816138a6565b82525050565b614cf481613500565b82525050565b600061010082019050614d10600083018b61370b565b614d1d602083018a613c08565b614d2a6040830189614cdc565b614d37606083018861370b565b614d446080830187614ceb565b614d5160a0830186613c08565b614d5e60c0830185613c08565b81810360e0830152614d708184613b72565b90509998505050505050505050565b7f4552433732313a206d696e7420746f20746865207a65726f2061646472657373600082015250565b6000614db56020836135c6565b9150614dc082614d7f565b602082019050919050565b60006020820190508181036000830152614de481614da8565b9050919050565b7f4552433732313a20746f6b656e20616c7265616479206d696e74656400000000600082015250565b6000614e21601c836135c6565b9150614e2c82614deb565b602082019050919050565b60006020820190508181036000830152614e5081614e14565b9050919050565b6000614e6282613676565b91507fffffffffffffffffffffffffffffffffffffffffffffffffffffffffffffffff8203614e9457614e93613f23565b5b600182019050919050565b7f4e487b7100000000000000000000000000000000000000000000000000000000600052601260045260246000fd5b6000614ed982613676565b9150614ee483613676565b925082614ef457614ef3614e9f565b5b828204905092915050565b6000614f0a82613676565b9150614f1583613676565b925082614f2557614f24614e9f565b5b828206905092915050565b6000614f4b614f46614f41846136d9565b614736565b6136d9565b9050919050565b6000614f5d82614f30565b9050919050565b6000614f6f82614f52565b9050919050565b60008160601b9050919050565b6000614f8e82614f76565b9050919050565b6000614fa082614f83565b9050919050565b614fb8614fb382614f64565b614f95565b82525050565b6000819050919050565b614fd9614fd482613676565b614fbe565b82525050565b6000614feb8285614fa7565b601482019150614ffb8284614fc8565b6020820191508190509392505050565b6000606082019050615020600083018661370b565b61502d6020830185613c08565b818103604083015261503f8184613b72565b9050949350505050565b7f756e61626c6520746f207472616e73666572416e6443616c6c20746f206f726160008201527f636c650000000000000000000000000000000000000000000000000000000000602082015250565b60006150a56023836135c6565b91506150b082615049565b604082019050919050565b600060208201905081810360008301526150d481615098565b9050919050565b60006150e682613676565b91506150f183613676565b9250817fffffffffffffffffffffffffffffffffffffffffffffffffffffffffffffffff048311821515161561512a57615129613f23565b5b828202905092915050565b60008160011c9050919050565b6000808291508390505b600185111561518c5780860481111561516857615167613f23565b5b60018516156151775780820291505b808102905061518585615135565b945061514c565b94509492505050565b6000826151a55760019050615261565b816151b35760009050615261565b81600181146151c957600281146151d357615202565b6001915050615261565b60ff8411156151e5576151e4613f23565b5b8360020a9150848211156151fc576151fb613f23565b5b50615261565b5060208310610133831016604e8410600b84101617156152375782820a90508381111561523257615231613f23565b5b615261565b6152448484846001615142565b9250905081840481111561525b5761525a613f23565b5b81810290505b9392505050565b600061527382613676565b915061527e83613676565b92506152ab7fffffffffffffffffffffffffffffffffffffffffffffffffffffffffffffffff8484615195565b90509291505056fea2646970667358221220316c5b513d98bcac0084f8bdef918937c1826228a3f4e80c1148351dd477e1ea64736f6c634300080f003368747470733a2f2f676174657761792e70696e6174612e636c6f75642f697066732f516d585446595269784c757964434c795a5a31547561446f756e4748476b7739614469584568434b59587973597168747470733a2f2f676174657761792e70696e6174612e636c6f75642f697066732f516d52413241397831536f7a6448484c5338346363443472746764695661614878534778676f4b6e6d445063786a68747470733a2f2f676174657761792e70696e6174612e636c6f75642f697066732f516d5572434d4e41465256477a52465a6e556b65747042575862586b793259676661366979567a686f4e51686d4b68747470733a2f2f676174657761792e70696e6174612e636c6f75642f697066732f516d58664452446672444a384b424d61523548747363754135664c5a793475577a79637234467741344a6b7a533368747470733a2f2f676174657761792e70696e6174612e636c6f75642f697066732f516d65443865444c69327732475370426f78696433726e5a4c586f376945655a4a324e7667676846513346566177","opcodes":"PUSH1 0xE0 PUSH1 0x40 MSTORE PUSH1 0x1 PUSH1 0xB SSTORE PUSH1 0x78 PUSH1 0x80 SWAP1 DUP2 MSTORE POP PUSH8 0x11C37937E080000 PUSH1 0xA0 SWAP1 DUP2 MSTORE POP PUSH1 0x0 PUSH1 0xC0 SWAP1 DUP2 MSTORE POP PUSH1 0x40 MLOAD DUP1 PUSH1 0xA0 ADD PUSH1 0x40 MSTORE DUP1 PUSH1 0x40 MLOAD DUP1 PUSH1 0x80 ADD PUSH1 0x40 MSTORE DUP1 PUSH1 0x50 DUP2 MSTORE PUSH1 0x20 ADD PUSH3 0x60C7 PUSH1 0x50 SWAP2 CODECOPY DUP2 MSTORE PUSH1 0x20 ADD PUSH1 0x40 MLOAD DUP1 PUSH1 0x80 ADD PUSH1 0x40 MSTORE DUP1 PUSH1 0x50 DUP2 MSTORE PUSH1 0x20 ADD PUSH3 0x6167 PUSH1 0x50 SWAP2 CODECOPY DUP2 MSTORE PUSH1 0x20 ADD PUSH1 0x40 MLOAD DUP1 PUSH1 0x80 ADD PUSH1 0x40 MSTORE DUP1 PUSH1 0x50 DUP2 MSTORE PUSH1 0x20 ADD PUSH3 0x6077 PUSH1 0x50 SWAP2 CODECOPY DUP2 MSTORE PUSH1 0x20 ADD PUSH1 0x40 MLOAD DUP1 PUSH1 0x80 ADD PUSH1 0x40 MSTORE DUP1 PUSH1 0x50 DUP2 MSTORE PUSH1 0x20 ADD PUSH3 0x6117 PUSH1 0x50 SWAP2 CODECOPY DUP2 MSTORE PUSH1 0x20 ADD PUSH1 0x40 MLOAD DUP1 PUSH1 0x80 ADD PUSH1 0x40 MSTORE DUP1 PUSH1 0x50 DUP2 MSTORE PUSH1 0x20 ADD PUSH3 0x6027 PUSH1 0x50 SWAP2 CODECOPY DUP2 MSTORE POP PUSH1 0x14 SWAP1 PUSH1 0x5 PUSH3 0xDE SWAP3 SWAP2 SWAP1 PUSH3 0x4E0 JUMP JUMPDEST POP CALLVALUE DUP1 ISZERO PUSH3 0xEC JUMPI PUSH1 0x0 DUP1 REVERT JUMPDEST POP PUSH1 0x40 MLOAD PUSH3 0x61B7 CODESIZE SUB DUP1 PUSH3 0x61B7 DUP4 CODECOPY DUP2 DUP2 ADD PUSH1 0x40 MSTORE DUP2 ADD SWAP1 PUSH3 0x112 SWAP2 SWAP1 PUSH3 0x76A JUMP JUMPDEST CALLER DUP1 PUSH1 0x0 DUP5 DUP5 DUP2 PUSH1 0x0 SWAP1 DUP2 PUSH3 0x129 SWAP2 SWAP1 PUSH3 0xA3A JUMP JUMPDEST POP DUP1 PUSH1 0x1 SWAP1 DUP2 PUSH3 0x13B SWAP2 SWAP1 PUSH3 0xA3A JUMP JUMPDEST POP POP POP PUSH1 0x0 PUSH20 0xFFFFFFFFFFFFFFFFFFFFFFFFFFFFFFFFFFFFFFFF AND DUP3 PUSH20 0xFFFFFFFFFFFFFFFFFFFFFFFFFFFFFFFFFFFFFFFF AND SUB PUSH3 0x1B0 JUMPI PUSH1 0x40 MLOAD PUSH32 0x8C379A000000000000000000000000000000000000000000000000000000000 DUP2 MSTORE PUSH1 0x4 ADD PUSH3 0x1A7 SWAP1 PUSH3 0xB82 JUMP JUMPDEST PUSH1 0x40 MLOAD DUP1 SWAP2 SUB SWAP1 REVERT JUMPDEST DUP2 PUSH1 0xD PUSH1 0x0 PUSH2 0x100 EXP DUP2 SLOAD DUP2 PUSH20 0xFFFFFFFFFFFFFFFFFFFFFFFFFFFFFFFFFFFFFFFF MUL NOT AND SWAP1 DUP4 PUSH20 0xFFFFFFFFFFFFFFFFFFFFFFFFFFFFFFFFFFFFFFFF AND MUL OR SWAP1 SSTORE POP PUSH1 0x0 PUSH20 0xFFFFFFFFFFFFFFFFFFFFFFFFFFFFFFFFFFFFFFFF AND DUP2 PUSH20 0xFFFFFFFFFFFFFFFFFFFFFFFFFFFFFFFFFFFFFFFF AND EQ PUSH3 0x238 JUMPI PUSH3 0x237 DUP2 PUSH3 0x327 PUSH1 0x20 SHL PUSH1 0x20 SHR JUMP JUMPDEST JUMPDEST POP POP POP PUSH3 0x260 PUSH20 0x326C977E6EFC84E512BB9C30F76E30C160ED06FB PUSH3 0x458 PUSH1 0x20 SHL PUSH1 0x20 SHR JUMP JUMPDEST PUSH3 0x285 PUSH20 0xB00282B9DBFF5B6E07DDDFE5540CAEBF0D8C6FF7 PUSH3 0x49C PUSH1 0x20 SHL PUSH1 0x20 SHR JUMP JUMPDEST PUSH32 0x3038323864386461653739393463636438336461356463346330323631653336 PUSH1 0xF DUP2 SWAP1 SSTORE POP PUSH1 0xA PUSH8 0xDE0B6B3A7640000 PUSH1 0x1 PUSH3 0x2C5 SWAP2 SWAP1 PUSH3 0xBD3 JUMP JUMPDEST PUSH3 0x2D1 SWAP2 SWAP1 PUSH3 0xC63 JUMP JUMPDEST PUSH1 0x10 DUP2 SWAP1 SSTORE POP TIMESTAMP PUSH1 0x13 DUP2 SWAP1 SSTORE POP CALLER PUSH1 0x12 PUSH1 0x0 PUSH2 0x100 EXP DUP2 SLOAD DUP2 PUSH20 0xFFFFFFFFFFFFFFFFFFFFFFFFFFFFFFFFFFFFFFFF MUL NOT AND SWAP1 DUP4 PUSH20 0xFFFFFFFFFFFFFFFFFFFFFFFFFFFFFFFFFFFFFFFF AND MUL OR SWAP1 SSTORE POP POP POP PUSH3 0xD0D JUMP JUMPDEST CALLER PUSH20 0xFFFFFFFFFFFFFFFFFFFFFFFFFFFFFFFFFFFFFFFF AND DUP2 PUSH20 0xFFFFFFFFFFFFFFFFFFFFFFFFFFFFFFFFFFFFFFFF AND SUB PUSH3 0x398 JUMPI PUSH1 0x40 MLOAD PUSH32 0x8C379A000000000000000000000000000000000000000000000000000000000 DUP2 MSTORE PUSH1 0x4 ADD PUSH3 0x38F SWAP1 PUSH3 0xCEB JUMP JUMPDEST PUSH1 0x40 MLOAD DUP1 SWAP2 SUB SWAP1 REVERT JUMPDEST DUP1 PUSH1 0xE PUSH1 0x0 PUSH2 0x100 EXP DUP2 SLOAD DUP2 PUSH20 0xFFFFFFFFFFFFFFFFFFFFFFFFFFFFFFFFFFFFFFFF MUL NOT AND SWAP1 DUP4 PUSH20 0xFFFFFFFFFFFFFFFFFFFFFFFFFFFFFFFFFFFFFFFF AND MUL OR SWAP1 SSTORE POP DUP1 PUSH20 0xFFFFFFFFFFFFFFFFFFFFFFFFFFFFFFFFFFFFFFFF AND PUSH1 0xD PUSH1 0x0 SWAP1 SLOAD SWAP1 PUSH2 0x100 EXP SWAP1 DIV PUSH20 0xFFFFFFFFFFFFFFFFFFFFFFFFFFFFFFFFFFFFFFFF AND PUSH20 0xFFFFFFFFFFFFFFFFFFFFFFFFFFFFFFFFFFFFFFFF AND PUSH32 0xED8889F560326EB138920D842192F0EB3DD22B4F139C87A2C57538E05BAE1278 PUSH1 0x40 MLOAD PUSH1 0x40 MLOAD DUP1 SWAP2 SUB SWAP1 LOG3 POP JUMP JUMPDEST DUP1 PUSH1 0x9 PUSH1 0x0 PUSH2 0x100 EXP DUP2 SLOAD DUP2 PUSH20 0xFFFFFFFFFFFFFFFFFFFFFFFFFFFFFFFFFFFFFFFF MUL NOT AND SWAP1 DUP4 PUSH20 0xFFFFFFFFFFFFFFFFFFFFFFFFFFFFFFFFFFFFFFFF AND MUL OR SWAP1 SSTORE POP POP JUMP JUMPDEST DUP1 PUSH1 0xA PUSH1 0x0 PUSH2 0x100 EXP DUP2 SLOAD DUP2 PUSH20 0xFFFFFFFFFFFFFFFFFFFFFFFFFFFFFFFFFFFFFFFF MUL NOT AND SWAP1 DUP4 PUSH20 0xFFFFFFFFFFFFFFFFFFFFFFFFFFFFFFFFFFFFFFFF AND MUL OR SWAP1 SSTORE POP POP JUMP JUMPDEST DUP3 DUP1 SLOAD DUP3 DUP3 SSTORE SWAP1 PUSH1 0x0 MSTORE PUSH1 0x20 PUSH1 0x0 KECCAK256 SWAP1 DUP2 ADD SWAP3 DUP3 ISZERO PUSH3 0x52D JUMPI SWAP2 PUSH1 0x20 MUL DUP3 ADD JUMPDEST DUP3 DUP2 GT ISZERO PUSH3 0x52C JUMPI DUP3 MLOAD DUP3 SWAP1 DUP2 PUSH3 0x51B SWAP2 SWAP1 PUSH3 0xA3A JUMP JUMPDEST POP SWAP2 PUSH1 0x20 ADD SWAP2 SWAP1 PUSH1 0x1 ADD SWAP1 PUSH3 0x501 JUMP JUMPDEST JUMPDEST POP SWAP1 POP PUSH3 0x53C SWAP2 SWAP1 PUSH3 0x540 JUMP JUMPDEST POP SWAP1 JUMP JUMPDEST JUMPDEST DUP1 DUP3 GT ISZERO PUSH3 0x564 JUMPI PUSH1 0x0 DUP2 DUP2 PUSH3 0x55A SWAP2 SWAP1 PUSH3 0x568 JUMP JUMPDEST POP PUSH1 0x1 ADD PUSH3 0x541 JUMP JUMPDEST POP SWAP1 JUMP JUMPDEST POP DUP1 SLOAD PUSH3 0x576 SWAP1 PUSH3 0x829 JUMP JUMPDEST PUSH1 0x0 DUP3 SSTORE DUP1 PUSH1 0x1F LT PUSH3 0x58A JUMPI POP PUSH3 0x5AB JUMP JUMPDEST PUSH1 0x1F ADD PUSH1 0x20 SWAP1 DIV SWAP1 PUSH1 0x0 MSTORE PUSH1 0x20 PUSH1 0x0 KECCAK256 SWAP1 DUP2 ADD SWAP1 PUSH3 0x5AA SWAP2 SWAP1 PUSH3 0x5AE JUMP JUMPDEST JUMPDEST POP JUMP JUMPDEST JUMPDEST DUP1 DUP3 GT ISZERO PUSH3 0x5C9 JUMPI PUSH1 0x0 DUP2 PUSH1 0x0 SWAP1 SSTORE POP PUSH1 0x1 ADD PUSH3 0x5AF JUMP JUMPDEST POP SWAP1 JUMP JUMPDEST PUSH1 0x0 PUSH1 0x40 MLOAD SWAP1 POP SWAP1 JUMP JUMPDEST PUSH1 0x0 DUP1 REVERT JUMPDEST PUSH1 0x0 DUP1 REVERT JUMPDEST PUSH1 0x0 DUP1 REVERT JUMPDEST PUSH1 0x0 DUP1 REVERT JUMPDEST PUSH1 0x0 PUSH1 0x1F NOT PUSH1 0x1F DUP4 ADD AND SWAP1 POP SWAP2 SWAP1 POP JUMP JUMPDEST PUSH32 0x4E487B7100000000000000000000000000000000000000000000000000000000 PUSH1 0x0 MSTORE PUSH1 0x41 PUSH1 0x4 MSTORE PUSH1 0x24 PUSH1 0x0 REVERT JUMPDEST PUSH3 0x636 DUP3 PUSH3 0x5EB JUMP JUMPDEST DUP2 ADD DUP2 DUP2 LT PUSH8 0xFFFFFFFFFFFFFFFF DUP3 GT OR ISZERO PUSH3 0x658 JUMPI PUSH3 0x657 PUSH3 0x5FC JUMP JUMPDEST JUMPDEST DUP1 PUSH1 0x40 MSTORE POP POP POP JUMP JUMPDEST PUSH1 0x0 PUSH3 0x66D PUSH3 0x5CD JUMP JUMPDEST SWAP1 POP PUSH3 0x67B DUP3 DUP3 PUSH3 0x62B JUMP JUMPDEST SWAP2 SWAP1 POP JUMP JUMPDEST PUSH1 0x0 PUSH8 0xFFFFFFFFFFFFFFFF DUP3 GT ISZERO PUSH3 0x69E JUMPI PUSH3 0x69D PUSH3 0x5FC JUMP JUMPDEST JUMPDEST PUSH3 0x6A9 DUP3 PUSH3 0x5EB JUMP JUMPDEST SWAP1 POP PUSH1 0x20 DUP2 ADD SWAP1 POP SWAP2 SWAP1 POP JUMP JUMPDEST PUSH1 0x0 JUMPDEST DUP4 DUP2 LT ISZERO PUSH3 0x6D6 JUMPI DUP1 DUP3 ADD MLOAD DUP2 DUP5 ADD MSTORE PUSH1 0x20 DUP2 ADD SWAP1 POP PUSH3 0x6B9 JUMP JUMPDEST DUP4 DUP2 GT ISZERO PUSH3 0x6E6 JUMPI PUSH1 0x0 DUP5 DUP5 ADD MSTORE JUMPDEST POP POP POP POP JUMP JUMPDEST PUSH1 0x0 PUSH3 0x703 PUSH3 0x6FD DUP5 PUSH3 0x680 JUMP JUMPDEST PUSH3 0x661 JUMP JUMPDEST SWAP1 POP DUP3 DUP2 MSTORE PUSH1 0x20 DUP2 ADD DUP5 DUP5 DUP5 ADD GT ISZERO PUSH3 0x722 JUMPI PUSH3 0x721 PUSH3 0x5E6 JUMP JUMPDEST JUMPDEST PUSH3 0x72F DUP5 DUP3 DUP6 PUSH3 0x6B6 JUMP JUMPDEST POP SWAP4 SWAP3 POP POP POP JUMP JUMPDEST PUSH1 0x0 DUP3 PUSH1 0x1F DUP4 ADD SLT PUSH3 0x74F JUMPI PUSH3 0x74E PUSH3 0x5E1 JUMP JUMPDEST JUMPDEST DUP2 MLOAD PUSH3 0x761 DUP5 DUP3 PUSH1 0x20 DUP7 ADD PUSH3 0x6EC JUMP JUMPDEST SWAP2 POP POP SWAP3 SWAP2 POP POP JUMP JUMPDEST PUSH1 0x0 DUP1 PUSH1 0x40 DUP4 DUP6 SUB SLT ISZERO PUSH3 0x784 JUMPI PUSH3 0x783 PUSH3 0x5D7 JUMP JUMPDEST JUMPDEST PUSH1 0x0 DUP4 ADD MLOAD PUSH8 0xFFFFFFFFFFFFFFFF DUP2 GT ISZERO PUSH3 0x7A5 JUMPI PUSH3 0x7A4 PUSH3 0x5DC JUMP JUMPDEST JUMPDEST PUSH3 0x7B3 DUP6 DUP3 DUP7 ADD PUSH3 0x737 JUMP JUMPDEST SWAP3 POP POP PUSH1 0x20 DUP4 ADD MLOAD PUSH8 0xFFFFFFFFFFFFFFFF DUP2 GT ISZERO PUSH3 0x7D7 JUMPI PUSH3 0x7D6 PUSH3 0x5DC JUMP JUMPDEST JUMPDEST PUSH3 0x7E5 DUP6 DUP3 DUP7 ADD PUSH3 0x737 JUMP JUMPDEST SWAP2 POP POP SWAP3 POP SWAP3 SWAP1 POP JUMP JUMPDEST PUSH1 0x0 DUP2 MLOAD SWAP1 POP SWAP2 SWAP1 POP JUMP JUMPDEST PUSH32 0x4E487B7100000000000000000000000000000000000000000000000000000000 PUSH1 0x0 MSTORE PUSH1 0x22 PUSH1 0x4 MSTORE PUSH1 0x24 PUSH1 0x0 REVERT JUMPDEST PUSH1 0x0 PUSH1 0x2 DUP3 DIV SWAP1 POP PUSH1 0x1 DUP3 AND DUP1 PUSH3 0x842 JUMPI PUSH1 0x7F DUP3 AND SWAP2 POP JUMPDEST PUSH1 0x20 DUP3 LT DUP2 SUB PUSH3 0x858 JUMPI PUSH3 0x857 PUSH3 0x7FA JUMP JUMPDEST JUMPDEST POP SWAP2 SWAP1 POP JUMP JUMPDEST PUSH1 0x0 DUP2 SWAP1 POP DUP2 PUSH1 0x0 MSTORE PUSH1 0x20 PUSH1 0x0 KECCAK256 SWAP1 POP SWAP2 SWAP1 POP JUMP JUMPDEST PUSH1 0x0 PUSH1 0x20 PUSH1 0x1F DUP4 ADD DIV SWAP1 POP SWAP2 SWAP1 POP JUMP JUMPDEST PUSH1 0x0 DUP3 DUP3 SHL SWAP1 POP SWAP3 SWAP2 POP POP JUMP JUMPDEST PUSH1 0x0 PUSH1 0x8 DUP4 MUL PUSH3 0x8C2 PUSH32 0xFFFFFFFFFFFFFFFFFFFFFFFFFFFFFFFFFFFFFFFFFFFFFFFFFFFFFFFFFFFFFFFF DUP3 PUSH3 0x883 JUMP JUMPDEST PUSH3 0x8CE DUP7 DUP4 PUSH3 0x883 JUMP JUMPDEST SWAP6 POP DUP1 NOT DUP5 AND SWAP4 POP DUP1 DUP7 AND DUP5 OR SWAP3 POP POP POP SWAP4 SWAP3 POP POP POP JUMP JUMPDEST PUSH1 0x0 DUP2 SWAP1 POP SWAP2 SWAP1 POP JUMP JUMPDEST PUSH1 0x0 DUP2 SWAP1 POP SWAP2 SWAP1 POP JUMP JUMPDEST PUSH1 0x0 PUSH3 0x91B PUSH3 0x915 PUSH3 0x90F DUP5 PUSH3 0x8E6 JUMP JUMPDEST PUSH3 0x8F0 JUMP JUMPDEST PUSH3 0x8E6 JUMP JUMPDEST SWAP1 POP SWAP2 SWAP1 POP JUMP JUMPDEST PUSH1 0x0 DUP2 SWAP1 POP SWAP2 SWAP1 POP JUMP JUMPDEST PUSH3 0x937 DUP4 PUSH3 0x8FA JUMP JUMPDEST PUSH3 0x94F PUSH3 0x946 DUP3 PUSH3 0x922 JUMP JUMPDEST DUP5 DUP5 SLOAD PUSH3 0x890 JUMP JUMPDEST DUP3 SSTORE POP POP POP POP JUMP JUMPDEST PUSH1 0x0 SWAP1 JUMP JUMPDEST PUSH3 0x966 PUSH3 0x957 JUMP JUMPDEST PUSH3 0x973 DUP2 DUP5 DUP5 PUSH3 0x92C JUMP JUMPDEST POP POP POP JUMP JUMPDEST JUMPDEST DUP2 DUP2 LT ISZERO PUSH3 0x99B JUMPI PUSH3 0x98F PUSH1 0x0 DUP3 PUSH3 0x95C JUMP JUMPDEST PUSH1 0x1 DUP2 ADD SWAP1 POP PUSH3 0x979 JUMP JUMPDEST POP POP JUMP JUMPDEST PUSH1 0x1F DUP3 GT ISZERO PUSH3 0x9EA JUMPI PUSH3 0x9B4 DUP2 PUSH3 0x85E JUMP JUMPDEST PUSH3 0x9BF DUP5 PUSH3 0x873 JUMP JUMPDEST DUP2 ADD PUSH1 0x20 DUP6 LT ISZERO PUSH3 0x9CF JUMPI DUP2 SWAP1 POP JUMPDEST PUSH3 0x9E7 PUSH3 0x9DE DUP6 PUSH3 0x873 JUMP JUMPDEST DUP4 ADD DUP3 PUSH3 0x978 JUMP JUMPDEST POP POP JUMPDEST POP POP POP JUMP JUMPDEST PUSH1 0x0 DUP3 DUP3 SHR SWAP1 POP SWAP3 SWAP2 POP POP JUMP JUMPDEST PUSH1 0x0 PUSH3 0xA0F PUSH1 0x0 NOT DUP5 PUSH1 0x8 MUL PUSH3 0x9EF JUMP JUMPDEST NOT DUP1 DUP4 AND SWAP2 POP POP SWAP3 SWAP2 POP POP JUMP JUMPDEST PUSH1 0x0 PUSH3 0xA2A DUP4 DUP4 PUSH3 0x9FC JUMP JUMPDEST SWAP2 POP DUP3 PUSH1 0x2 MUL DUP3 OR SWAP1 POP SWAP3 SWAP2 POP POP JUMP JUMPDEST PUSH3 0xA45 DUP3 PUSH3 0x7EF JUMP JUMPDEST PUSH8 0xFFFFFFFFFFFFFFFF DUP2 GT ISZERO PUSH3 0xA61 JUMPI PUSH3 0xA60 PUSH3 0x5FC JUMP JUMPDEST JUMPDEST PUSH3 0xA6D DUP3 SLOAD PUSH3 0x829 JUMP JUMPDEST PUSH3 0xA7A DUP3 DUP3 DUP6 PUSH3 0x99F JUMP JUMPDEST PUSH1 0x0 PUSH1 0x20 SWAP1 POP PUSH1 0x1F DUP4 GT PUSH1 0x1 DUP2 EQ PUSH3 0xAB2 JUMPI PUSH1 0x0 DUP5 ISZERO PUSH3 0xA9D JUMPI DUP3 DUP8 ADD MLOAD SWAP1 POP JUMPDEST PUSH3 0xAA9 DUP6 DUP3 PUSH3 0xA1C JUMP JUMPDEST DUP7 SSTORE POP PUSH3 0xB19 JUMP JUMPDEST PUSH1 0x1F NOT DUP5 AND PUSH3 0xAC2 DUP7 PUSH3 0x85E JUMP JUMPDEST PUSH1 0x0 JUMPDEST DUP3 DUP2 LT ISZERO PUSH3 0xAEC JUMPI DUP5 DUP10 ADD MLOAD DUP3 SSTORE PUSH1 0x1 DUP3 ADD SWAP2 POP PUSH1 0x20 DUP6 ADD SWAP5 POP PUSH1 0x20 DUP2 ADD SWAP1 POP PUSH3 0xAC5 JUMP JUMPDEST DUP7 DUP4 LT ISZERO PUSH3 0xB0C JUMPI DUP5 DUP10 ADD MLOAD PUSH3 0xB08 PUSH1 0x1F DUP10 AND DUP3 PUSH3 0x9FC JUMP JUMPDEST DUP4 SSTORE POP JUMPDEST PUSH1 0x1 PUSH1 0x2 DUP9 MUL ADD DUP9 SSTORE POP POP POP JUMPDEST POP POP POP POP POP POP JUMP JUMPDEST PUSH1 0x0 DUP3 DUP3 MSTORE PUSH1 0x20 DUP3 ADD SWAP1 POP SWAP3 SWAP2 POP POP JUMP JUMPDEST PUSH32 0x43616E6E6F7420736574206F776E657220746F207A65726F0000000000000000 PUSH1 0x0 DUP3 ADD MSTORE POP JUMP JUMPDEST PUSH1 0x0 PUSH3 0xB6A PUSH1 0x18 DUP4 PUSH3 0xB21 JUMP JUMPDEST SWAP2 POP PUSH3 0xB77 DUP3 PUSH3 0xB32 JUMP JUMPDEST PUSH1 0x20 DUP3 ADD SWAP1 POP SWAP2 SWAP1 POP JUMP JUMPDEST PUSH1 0x0 PUSH1 0x20 DUP3 ADD SWAP1 POP DUP2 DUP2 SUB PUSH1 0x0 DUP4 ADD MSTORE PUSH3 0xB9D DUP2 PUSH3 0xB5B JUMP JUMPDEST SWAP1 POP SWAP2 SWAP1 POP JUMP JUMPDEST PUSH32 0x4E487B7100000000000000000000000000000000000000000000000000000000 PUSH1 0x0 MSTORE PUSH1 0x11 PUSH1 0x4 MSTORE PUSH1 0x24 PUSH1 0x0 REVERT JUMPDEST PUSH1 0x0 PUSH3 0xBE0 DUP3 PUSH3 0x8E6 JUMP JUMPDEST SWAP2 POP PUSH3 0xBED DUP4 PUSH3 0x8E6 JUMP JUMPDEST SWAP3 POP DUP2 PUSH32 0xFFFFFFFFFFFFFFFFFFFFFFFFFFFFFFFFFFFFFFFFFFFFFFFFFFFFFFFFFFFFFFFF DIV DUP4 GT DUP3 ISZERO ISZERO AND ISZERO PUSH3 0xC29 JUMPI PUSH3 0xC28 PUSH3 0xBA4 JUMP JUMPDEST JUMPDEST DUP3 DUP3 MUL SWAP1 POP SWAP3 SWAP2 POP POP JUMP JUMPDEST PUSH32 0x4E487B7100000000000000000000000000000000000000000000000000000000 PUSH1 0x0 MSTORE PUSH1 0x12 PUSH1 0x4 MSTORE PUSH1 0x24 PUSH1 0x0 REVERT JUMPDEST PUSH1 0x0 PUSH3 0xC70 DUP3 PUSH3 0x8E6 JUMP JUMPDEST SWAP2 POP PUSH3 0xC7D DUP4 PUSH3 0x8E6 JUMP JUMPDEST SWAP3 POP DUP3 PUSH3 0xC90 JUMPI PUSH3 0xC8F PUSH3 0xC34 JUMP JUMPDEST JUMPDEST DUP3 DUP3 DIV SWAP1 POP SWAP3 SWAP2 POP POP JUMP JUMPDEST PUSH32 0x43616E6E6F74207472616E7366657220746F2073656C66000000000000000000 PUSH1 0x0 DUP3 ADD MSTORE POP JUMP JUMPDEST PUSH1 0x0 PUSH3 0xCD3 PUSH1 0x17 DUP4 PUSH3 0xB21 JUMP JUMPDEST SWAP2 POP PUSH3 0xCE0 DUP3 PUSH3 0xC9B JUMP JUMPDEST PUSH1 0x20 DUP3 ADD SWAP1 POP SWAP2 SWAP1 POP JUMP JUMPDEST PUSH1 0x0 PUSH1 0x20 DUP3 ADD SWAP1 POP DUP2 DUP2 SUB PUSH1 0x0 DUP4 ADD MSTORE PUSH3 0xD06 DUP2 PUSH3 0xCC4 JUMP JUMPDEST SWAP1 POP SWAP2 SWAP1 POP JUMP JUMPDEST PUSH1 0x80 MLOAD PUSH1 0xA0 MLOAD PUSH1 0xC0 MLOAD PUSH2 0x52E9 PUSH3 0xD3E PUSH1 0x0 CODECOPY PUSH1 0x0 POP POP PUSH1 0x0 POP POP PUSH1 0x0 DUP2 DUP2 PUSH2 0xAC1 ADD MSTORE PUSH2 0xCE2 ADD MSTORE PUSH2 0x52E9 PUSH1 0x0 RETURN INVALID PUSH1 0x80 PUSH1 0x40 MSTORE PUSH1 0x4 CALLDATASIZE LT PUSH2 0x19C JUMPI PUSH1 0x0 CALLDATALOAD PUSH1 0xE0 SHR DUP1 PUSH4 0x85BF9D5B GT PUSH2 0xEC JUMPI DUP1 PUSH4 0xB88D4FDE GT PUSH2 0x8A JUMPI DUP1 PUSH4 0xE063AD33 GT PUSH2 0x64 JUMPI DUP1 PUSH4 0xE063AD33 EQ PUSH2 0x5C8 JUMPI DUP1 PUSH4 0xE985E9C5 EQ PUSH2 0x5F1 JUMPI DUP1 PUSH4 0xF2FDE38B EQ PUSH2 0x62E JUMPI DUP1 PUSH4 0xFFEBD172 EQ PUSH2 0x657 JUMPI PUSH2 0x19C JUMP JUMPDEST DUP1 PUSH4 0xB88D4FDE EQ PUSH2 0x525 JUMPI DUP1 PUSH4 0xBED34BBA EQ PUSH2 0x54E JUMPI DUP1 PUSH4 0xC87B56DD EQ PUSH2 0x58B JUMPI PUSH2 0x19C JUMP JUMPDEST DUP1 PUSH4 0x95D89B41 GT PUSH2 0xC6 JUMPI DUP1 PUSH4 0x95D89B41 EQ PUSH2 0x48A JUMPI DUP1 PUSH4 0x98BDF6F5 EQ PUSH2 0x4B5 JUMPI DUP1 PUSH4 0xA1448194 EQ PUSH2 0x4E0 JUMPI DUP1 PUSH4 0xA22CB465 EQ PUSH2 0x4FC JUMPI PUSH2 0x19C JUMP JUMPDEST DUP1 PUSH4 0x85BF9D5B EQ PUSH2 0x40B JUMPI DUP1 PUSH4 0x8DA5CB5B EQ PUSH2 0x448 JUMPI DUP1 PUSH4 0x8DC654A2 EQ PUSH2 0x473 JUMPI PUSH2 0x19C JUMP JUMPDEST DUP1 PUSH4 0x42842E0E GT PUSH2 0x159 JUMPI DUP1 PUSH4 0x6352211E GT PUSH2 0x133 JUMPI DUP1 PUSH4 0x6352211E EQ PUSH2 0x33C JUMPI DUP1 PUSH4 0x6E04FF0D EQ PUSH2 0x379 JUMPI DUP1 PUSH4 0x70A08231 EQ PUSH2 0x3B7 JUMPI DUP1 PUSH4 0x79BA5097 EQ PUSH2 0x3F4 JUMPI PUSH2 0x19C JUMP JUMPDEST DUP1 PUSH4 0x42842E0E EQ PUSH2 0x2C1 JUMPI DUP1 PUSH4 0x4585E33B EQ PUSH2 0x2EA JUMPI DUP1 PUSH4 0x52D0B7FB EQ PUSH2 0x313 JUMPI PUSH2 0x19C JUMP JUMPDEST DUP1 PUSH4 0x1FFC9A7 EQ PUSH2 0x1A1 JUMPI DUP1 PUSH4 0x6FDDE03 EQ PUSH2 0x1DE JUMPI DUP1 PUSH4 0x7391DD6 EQ PUSH2 0x209 JUMPI DUP1 PUSH4 0x81812FC EQ PUSH2 0x232 JUMPI DUP1 PUSH4 0x95EA7B3 EQ PUSH2 0x26F JUMPI DUP1 PUSH4 0x23B872DD EQ PUSH2 0x298 JUMPI JUMPDEST PUSH1 0x0 DUP1 REVERT JUMPDEST CALLVALUE DUP1 ISZERO PUSH2 0x1AD JUMPI PUSH1 0x0 DUP1 REVERT JUMPDEST POP PUSH2 0x1C8 PUSH1 0x4 DUP1 CALLDATASIZE SUB DUP2 ADD SWAP1 PUSH2 0x1C3 SWAP2 SWAP1 PUSH2 0x3558 JUMP JUMPDEST PUSH2 0x680 JUMP JUMPDEST PUSH1 0x40 MLOAD PUSH2 0x1D5 SWAP2 SWAP1 PUSH2 0x35A0 JUMP JUMPDEST PUSH1 0x40 MLOAD DUP1 SWAP2 SUB SWAP1 RETURN JUMPDEST CALLVALUE DUP1 ISZERO PUSH2 0x1EA JUMPI PUSH1 0x0 DUP1 REVERT JUMPDEST POP PUSH2 0x1F3 PUSH2 0x762 JUMP JUMPDEST PUSH1 0x40 MLOAD PUSH2 0x200 SWAP2 SWAP1 PUSH2 0x3654 JUMP JUMPDEST PUSH1 0x40 MLOAD DUP1 SWAP2 SUB SWAP1 RETURN JUMPDEST CALLVALUE DUP1 ISZERO PUSH2 0x215 JUMPI PUSH1 0x0 DUP1 REVERT JUMPDEST POP PUSH2 0x230 PUSH1 0x4 DUP1 CALLDATASIZE SUB DUP2 ADD SWAP1 PUSH2 0x22B SWAP2 SWAP1 PUSH2 0x36AC JUMP JUMPDEST PUSH2 0x7F4 JUMP JUMPDEST STOP JUMPDEST CALLVALUE DUP1 ISZERO PUSH2 0x23E JUMPI PUSH1 0x0 DUP1 REVERT JUMPDEST POP PUSH2 0x259 PUSH1 0x4 DUP1 CALLDATASIZE SUB DUP2 ADD SWAP1 PUSH2 0x254 SWAP2 SWAP1 PUSH2 0x36AC JUMP JUMPDEST PUSH2 0x8E2 JUMP JUMPDEST PUSH1 0x40 MLOAD PUSH2 0x266 SWAP2 SWAP1 PUSH2 0x371A JUMP JUMPDEST PUSH1 0x40 MLOAD DUP1 SWAP2 SUB SWAP1 RETURN JUMPDEST CALLVALUE DUP1 ISZERO PUSH2 0x27B JUMPI PUSH1 0x0 DUP1 REVERT JUMPDEST POP PUSH2 0x296 PUSH1 0x4 DUP1 CALLDATASIZE SUB DUP2 ADD SWAP1 PUSH2 0x291 SWAP2 SWAP1 PUSH2 0x3761 JUMP JUMPDEST PUSH2 0x928 JUMP JUMPDEST STOP JUMPDEST CALLVALUE DUP1 ISZERO PUSH2 0x2A4 JUMPI PUSH1 0x0 DUP1 REVERT JUMPDEST POP PUSH2 0x2BF PUSH1 0x4 DUP1 CALLDATASIZE SUB DUP2 ADD SWAP1 PUSH2 0x2BA SWAP2 SWAP1 PUSH2 0x37A1 JUMP JUMPDEST PUSH2 0xA3F JUMP JUMPDEST STOP JUMPDEST CALLVALUE DUP1 ISZERO PUSH2 0x2CD JUMPI PUSH1 0x0 DUP1 REVERT JUMPDEST POP PUSH2 0x2E8 PUSH1 0x4 DUP1 CALLDATASIZE SUB DUP2 ADD SWAP1 PUSH2 0x2E3 SWAP2 SWAP1 PUSH2 0x37A1 JUMP JUMPDEST PUSH2 0xA9F JUMP JUMPDEST STOP JUMPDEST CALLVALUE DUP1 ISZERO PUSH2 0x2F6 JUMPI PUSH1 0x0 DUP1 REVERT JUMPDEST POP PUSH2 0x311 PUSH1 0x4 DUP1 CALLDATASIZE SUB DUP2 ADD SWAP1 PUSH2 0x30C SWAP2 SWAP1 PUSH2 0x3859 JUMP JUMPDEST PUSH2 0xABF JUMP JUMPDEST STOP JUMPDEST CALLVALUE DUP1 ISZERO PUSH2 0x31F JUMPI PUSH1 0x0 DUP1 REVERT JUMPDEST POP PUSH2 0x33A PUSH1 0x4 DUP1 CALLDATASIZE SUB DUP2 ADD SWAP1 PUSH2 0x335 SWAP2 SWAP1 PUSH2 0x3A0C JUMP JUMPDEST PUSH2 0xBD5 JUMP JUMPDEST STOP JUMPDEST CALLVALUE DUP1 ISZERO PUSH2 0x348 JUMPI PUSH1 0x0 DUP1 REVERT JUMPDEST POP PUSH2 0x363 PUSH1 0x4 DUP1 CALLDATASIZE SUB DUP2 ADD SWAP1 PUSH2 0x35E SWAP2 SWAP1 PUSH2 0x36AC JUMP JUMPDEST PUSH2 0xC20 JUMP JUMPDEST PUSH1 0x40 MLOAD PUSH2 0x370 SWAP2 SWAP1 PUSH2 0x371A JUMP JUMPDEST PUSH1 0x40 MLOAD DUP1 SWAP2 SUB SWAP1 RETURN JUMPDEST CALLVALUE DUP1 ISZERO PUSH2 0x385 JUMPI PUSH1 0x0 DUP1 REVERT JUMPDEST POP PUSH2 0x3A0 PUSH1 0x4 DUP1 CALLDATASIZE SUB DUP2 ADD SWAP1 PUSH2 0x39B SWAP2 SWAP1 PUSH2 0x3859 JUMP JUMPDEST PUSH2 0xCD1 JUMP JUMPDEST PUSH1 0x40 MLOAD PUSH2 0x3AE SWAP3 SWAP2 SWAP1 PUSH2 0x3BAB JUMP JUMPDEST PUSH1 0x40 MLOAD DUP1 SWAP2 SUB SWAP1 RETURN JUMPDEST CALLVALUE DUP1 ISZERO PUSH2 0x3C3 JUMPI PUSH1 0x0 DUP1 REVERT JUMPDEST POP PUSH2 0x3DE PUSH1 0x4 DUP1 CALLDATASIZE SUB DUP2 ADD SWAP1 PUSH2 0x3D9 SWAP2 SWAP1 PUSH2 0x3BDB JUMP JUMPDEST PUSH2 0xD1B JUMP JUMPDEST PUSH1 0x40 MLOAD PUSH2 0x3EB SWAP2 SWAP1 PUSH2 0x3C17 JUMP JUMPDEST PUSH1 0x40 MLOAD DUP1 SWAP2 SUB SWAP1 RETURN JUMPDEST CALLVALUE DUP1 ISZERO PUSH2 0x400 JUMPI PUSH1 0x0 DUP1 REVERT JUMPDEST POP PUSH2 0x409 PUSH2 0xDD2 JUMP JUMPDEST STOP JUMPDEST CALLVALUE DUP1 ISZERO PUSH2 0x417 JUMPI PUSH1 0x0 DUP1 REVERT JUMPDEST POP PUSH2 0x432 PUSH1 0x4 DUP1 CALLDATASIZE SUB DUP2 ADD SWAP1 PUSH2 0x42D SWAP2 SWAP1 PUSH2 0x36AC JUMP JUMPDEST PUSH2 0xF69 JUMP JUMPDEST PUSH1 0x40 MLOAD PUSH2 0x43F SWAP2 SWAP1 PUSH2 0x3C17 JUMP JUMPDEST PUSH1 0x40 MLOAD DUP1 SWAP2 SUB SWAP1 RETURN JUMPDEST CALLVALUE DUP1 ISZERO PUSH2 0x454 JUMPI PUSH1 0x0 DUP1 REVERT JUMPDEST POP PUSH2 0x45D PUSH2 0x1282 JUMP JUMPDEST PUSH1 0x40 MLOAD PUSH2 0x46A SWAP2 SWAP1 PUSH2 0x371A JUMP JUMPDEST PUSH1 0x40 MLOAD DUP1 SWAP2 SUB SWAP1 RETURN JUMPDEST CALLVALUE DUP1 ISZERO PUSH2 0x47F JUMPI PUSH1 0x0 DUP1 REVERT JUMPDEST POP PUSH2 0x488 PUSH2 0x12AC JUMP JUMPDEST STOP JUMPDEST CALLVALUE DUP1 ISZERO PUSH2 0x496 JUMPI PUSH1 0x0 DUP1 REVERT JUMPDEST POP PUSH2 0x49F PUSH2 0x13F9 JUMP JUMPDEST PUSH1 0x40 MLOAD PUSH2 0x4AC SWAP2 SWAP1 PUSH2 0x3654 JUMP JUMPDEST PUSH1 0x40 MLOAD DUP1 SWAP2 SUB SWAP1 RETURN JUMPDEST CALLVALUE DUP1 ISZERO PUSH2 0x4C1 JUMPI PUSH1 0x0 DUP1 REVERT JUMPDEST POP PUSH2 0x4CA PUSH2 0x148B JUMP JUMPDEST PUSH1 0x40 MLOAD PUSH2 0x4D7 SWAP2 SWAP1 PUSH2 0x3C17 JUMP JUMPDEST PUSH1 0x40 MLOAD DUP1 SWAP2 SUB SWAP1 RETURN JUMPDEST PUSH2 0x4FA PUSH1 0x4 DUP1 CALLDATASIZE SUB DUP2 ADD SWAP1 PUSH2 0x4F5 SWAP2 SWAP1 PUSH2 0x3761 JUMP JUMPDEST PUSH2 0x1497 JUMP JUMPDEST STOP JUMPDEST CALLVALUE DUP1 ISZERO PUSH2 0x508 JUMPI PUSH1 0x0 DUP1 REVERT JUMPDEST POP PUSH2 0x523 PUSH1 0x4 DUP1 CALLDATASIZE SUB DUP2 ADD SWAP1 PUSH2 0x51E SWAP2 SWAP1 PUSH2 0x3C5E JUMP JUMPDEST PUSH2 0x1601 JUMP JUMPDEST STOP JUMPDEST CALLVALUE DUP1 ISZERO PUSH2 0x531 JUMPI PUSH1 0x0 DUP1 REVERT JUMPDEST POP PUSH2 0x54C PUSH1 0x4 DUP1 CALLDATASIZE SUB DUP2 ADD SWAP1 PUSH2 0x547 SWAP2 SWAP1 PUSH2 0x3D3F JUMP JUMPDEST PUSH2 0x1617 JUMP JUMPDEST STOP JUMPDEST CALLVALUE DUP1 ISZERO PUSH2 0x55A JUMPI PUSH1 0x0 DUP1 REVERT JUMPDEST POP PUSH2 0x575 PUSH1 0x4 DUP1 CALLDATASIZE SUB DUP2 ADD SWAP1 PUSH2 0x570 SWAP2 SWAP1 PUSH2 0x3DC2 JUMP JUMPDEST PUSH2 0x1679 JUMP JUMPDEST PUSH1 0x40 MLOAD PUSH2 0x582 SWAP2 SWAP1 PUSH2 0x35A0 JUMP JUMPDEST PUSH1 0x40 MLOAD DUP1 SWAP2 SUB SWAP1 RETURN JUMPDEST CALLVALUE DUP1 ISZERO PUSH2 0x597 JUMPI PUSH1 0x0 DUP1 REVERT JUMPDEST POP PUSH2 0x5B2 PUSH1 0x4 DUP1 CALLDATASIZE SUB DUP2 ADD SWAP1 PUSH2 0x5AD SWAP2 SWAP1 PUSH2 0x36AC JUMP JUMPDEST PUSH2 0x16D2 JUMP JUMPDEST PUSH1 0x40 MLOAD PUSH2 0x5BF SWAP2 SWAP1 PUSH2 0x3654 JUMP JUMPDEST PUSH1 0x40 MLOAD DUP1 SWAP2 SUB SWAP1 RETURN JUMPDEST CALLVALUE DUP1 ISZERO PUSH2 0x5D4 JUMPI PUSH1 0x0 DUP1 REVERT JUMPDEST POP PUSH2 0x5EF PUSH1 0x4 DUP1 CALLDATASIZE SUB DUP2 ADD SWAP1 PUSH2 0x5EA SWAP2 SWAP1 PUSH2 0x3A0C JUMP JUMPDEST PUSH2 0x16E4 JUMP JUMPDEST STOP JUMPDEST CALLVALUE DUP1 ISZERO PUSH2 0x5FD JUMPI PUSH1 0x0 DUP1 REVERT JUMPDEST POP PUSH2 0x618 PUSH1 0x4 DUP1 CALLDATASIZE SUB DUP2 ADD SWAP1 PUSH2 0x613 SWAP2 SWAP1 PUSH2 0x3E3A JUMP JUMPDEST PUSH2 0x1802 JUMP JUMPDEST PUSH1 0x40 MLOAD PUSH2 0x625 SWAP2 SWAP1 PUSH2 0x35A0 JUMP JUMPDEST PUSH1 0x40 MLOAD DUP1 SWAP2 SUB SWAP1 RETURN JUMPDEST CALLVALUE DUP1 ISZERO PUSH2 0x63A JUMPI PUSH1 0x0 DUP1 REVERT JUMPDEST POP PUSH2 0x655 PUSH1 0x4 DUP1 CALLDATASIZE SUB DUP2 ADD SWAP1 PUSH2 0x650 SWAP2 SWAP1 PUSH2 0x3BDB JUMP JUMPDEST PUSH2 0x1896 JUMP JUMPDEST STOP JUMPDEST CALLVALUE DUP1 ISZERO PUSH2 0x663 JUMPI PUSH1 0x0 DUP1 REVERT JUMPDEST POP PUSH2 0x67E PUSH1 0x4 DUP1 CALLDATASIZE SUB DUP2 ADD SWAP1 PUSH2 0x679 SWAP2 SWAP1 PUSH2 0x3E7A JUMP JUMPDEST PUSH2 0x18AA JUMP JUMPDEST STOP JUMPDEST PUSH1 0x0 PUSH32 0x80AC58CD00000000000000000000000000000000000000000000000000000000 PUSH28 0xFFFFFFFFFFFFFFFFFFFFFFFFFFFFFFFFFFFFFFFFFFFFFFFFFFFFFFFF NOT AND DUP3 PUSH28 0xFFFFFFFFFFFFFFFFFFFFFFFFFFFFFFFFFFFFFFFFFFFFFFFFFFFFFFFF NOT AND EQ DUP1 PUSH2 0x74B JUMPI POP PUSH32 0x5B5E139F00000000000000000000000000000000000000000000000000000000 PUSH28 0xFFFFFFFFFFFFFFFFFFFFFFFFFFFFFFFFFFFFFFFFFFFFFFFFFFFFFFFF NOT AND DUP3 PUSH28 0xFFFFFFFFFFFFFFFFFFFFFFFFFFFFFFFFFFFFFFFFFFFFFFFFFFFFFFFF NOT AND EQ JUMPDEST DUP1 PUSH2 0x75B JUMPI POP PUSH2 0x75A DUP3 PUSH2 0x1C17 JUMP JUMPDEST JUMPDEST SWAP1 POP SWAP2 SWAP1 POP JUMP JUMPDEST PUSH1 0x60 PUSH1 0x0 DUP1 SLOAD PUSH2 0x771 SWAP1 PUSH2 0x3EF2 JUMP JUMPDEST DUP1 PUSH1 0x1F ADD PUSH1 0x20 DUP1 SWAP2 DIV MUL PUSH1 0x20 ADD PUSH1 0x40 MLOAD SWAP1 DUP2 ADD PUSH1 0x40 MSTORE DUP1 SWAP3 SWAP2 SWAP1 DUP2 DUP2 MSTORE PUSH1 0x20 ADD DUP3 DUP1 SLOAD PUSH2 0x79D SWAP1 PUSH2 0x3EF2 JUMP JUMPDEST DUP1 ISZERO PUSH2 0x7EA JUMPI DUP1 PUSH1 0x1F LT PUSH2 0x7BF JUMPI PUSH2 0x100 DUP1 DUP4 SLOAD DIV MUL DUP4 MSTORE SWAP2 PUSH1 0x20 ADD SWAP2 PUSH2 0x7EA JUMP JUMPDEST DUP3 ADD SWAP2 SWAP1 PUSH1 0x0 MSTORE PUSH1 0x20 PUSH1 0x0 KECCAK256 SWAP1 JUMPDEST DUP2 SLOAD DUP2 MSTORE SWAP1 PUSH1 0x1 ADD SWAP1 PUSH1 0x20 ADD DUP1 DUP4 GT PUSH2 0x7CD JUMPI DUP3 SWAP1 SUB PUSH1 0x1F AND DUP3 ADD SWAP2 JUMPDEST POP POP POP POP POP SWAP1 POP SWAP1 JUMP JUMPDEST PUSH1 0x4 PUSH2 0x7FF DUP3 PUSH2 0xF69 JUMP JUMPDEST LT ISZERO PUSH2 0x8DF JUMPI PUSH1 0x0 PUSH1 0x1 PUSH2 0x812 DUP4 PUSH2 0xF69 JUMP JUMPDEST PUSH2 0x81C SWAP2 SWAP1 PUSH2 0x3F52 JUMP JUMPDEST SWAP1 POP PUSH1 0x0 PUSH1 0x14 DUP3 DUP2 SLOAD DUP2 LT PUSH2 0x834 JUMPI PUSH2 0x833 PUSH2 0x3FA8 JUMP JUMPDEST JUMPDEST SWAP1 PUSH1 0x0 MSTORE PUSH1 0x20 PUSH1 0x0 KECCAK256 ADD DUP1 SLOAD PUSH2 0x849 SWAP1 PUSH2 0x3EF2 JUMP JUMPDEST DUP1 PUSH1 0x1F ADD PUSH1 0x20 DUP1 SWAP2 DIV MUL PUSH1 0x20 ADD PUSH1 0x40 MLOAD SWAP1 DUP2 ADD PUSH1 0x40 MSTORE DUP1 SWAP3 SWAP2 SWAP1 DUP2 DUP2 MSTORE PUSH1 0x20 ADD DUP3 DUP1 SLOAD PUSH2 0x875 SWAP1 PUSH2 0x3EF2 JUMP JUMPDEST DUP1 ISZERO PUSH2 0x8C2 JUMPI DUP1 PUSH1 0x1F LT PUSH2 0x897 JUMPI PUSH2 0x100 DUP1 DUP4 SLOAD DIV MUL DUP4 MSTORE SWAP2 PUSH1 0x20 ADD SWAP2 PUSH2 0x8C2 JUMP JUMPDEST DUP3 ADD SWAP2 SWAP1 PUSH1 0x0 MSTORE PUSH1 0x20 PUSH1 0x0 KECCAK256 SWAP1 JUMPDEST DUP2 SLOAD DUP2 MSTORE SWAP1 PUSH1 0x1 ADD SWAP1 PUSH1 0x20 ADD DUP1 DUP4 GT PUSH2 0x8A5 JUMPI DUP3 SWAP1 SUB PUSH1 0x1F AND DUP3 ADD SWAP2 JUMPDEST POP POP POP POP POP SWAP1 POP PUSH2 0x8D3 DUP4 DUP3 PUSH2 0x1C81 JUMP JUMPDEST PUSH2 0x8DC DUP2 PUSH2 0x18AA JUMP JUMPDEST POP POP JUMPDEST POP JUMP JUMPDEST PUSH1 0x0 PUSH2 0x8ED DUP3 PUSH2 0x1CEE JUMP JUMPDEST PUSH1 0x4 PUSH1 0x0 DUP4 DUP2 MSTORE PUSH1 0x20 ADD SWAP1 DUP2 MSTORE PUSH1 0x20 ADD PUSH1 0x0 KECCAK256 PUSH1 0x0 SWAP1 SLOAD SWAP1 PUSH2 0x100 EXP SWAP1 DIV PUSH20 0xFFFFFFFFFFFFFFFFFFFFFFFFFFFFFFFFFFFFFFFF AND SWAP1 POP SWAP2 SWAP1 POP JUMP JUMPDEST PUSH1 0x0 PUSH2 0x933 DUP3 PUSH2 0xC20 JUMP JUMPDEST SWAP1 POP DUP1 PUSH20 0xFFFFFFFFFFFFFFFFFFFFFFFFFFFFFFFFFFFFFFFF AND DUP4 PUSH20 0xFFFFFFFFFFFFFFFFFFFFFFFFFFFFFFFFFFFFFFFF AND SUB PUSH2 0x9A3 JUMPI PUSH1 0x40 MLOAD PUSH32 0x8C379A000000000000000000000000000000000000000000000000000000000 DUP2 MSTORE PUSH1 0x4 ADD PUSH2 0x99A SWAP1 PUSH2 0x4049 JUMP JUMPDEST PUSH1 0x40 MLOAD DUP1 SWAP2 SUB SWAP1 REVERT JUMPDEST DUP1 PUSH20 0xFFFFFFFFFFFFFFFFFFFFFFFFFFFFFFFFFFFFFFFF AND PUSH2 0x9C2 PUSH2 0x1D39 JUMP JUMPDEST PUSH20 0xFFFFFFFFFFFFFFFFFFFFFFFFFFFFFFFFFFFFFFFF AND EQ DUP1 PUSH2 0x9F1 JUMPI POP PUSH2 0x9F0 DUP2 PUSH2 0x9EB PUSH2 0x1D39 JUMP JUMPDEST PUSH2 0x1802 JUMP JUMPDEST JUMPDEST PUSH2 0xA30 JUMPI PUSH1 0x40 MLOAD PUSH32 0x8C379A000000000000000000000000000000000000000000000000000000000 DUP2 MSTORE PUSH1 0x4 ADD PUSH2 0xA27 SWAP1 PUSH2 0x40DB JUMP JUMPDEST PUSH1 0x40 MLOAD DUP1 SWAP2 SUB SWAP1 REVERT JUMPDEST PUSH2 0xA3A DUP4 DUP4 PUSH2 0x1D41 JUMP JUMPDEST POP POP POP JUMP JUMPDEST PUSH2 0xA50 PUSH2 0xA4A PUSH2 0x1D39 JUMP JUMPDEST DUP3 PUSH2 0x1DFA JUMP JUMPDEST PUSH2 0xA8F JUMPI PUSH1 0x40 MLOAD PUSH32 0x8C379A000000000000000000000000000000000000000000000000000000000 DUP2 MSTORE PUSH1 0x4 ADD PUSH2 0xA86 SWAP1 PUSH2 0x416D JUMP JUMPDEST PUSH1 0x40 MLOAD DUP1 SWAP2 SUB SWAP1 REVERT JUMPDEST PUSH2 0xA9A DUP4 DUP4 DUP4 PUSH2 0x1E8F JUMP JUMPDEST POP POP POP JUMP JUMPDEST PUSH2 0xABA DUP4 DUP4 DUP4 PUSH1 0x40 MLOAD DUP1 PUSH1 0x20 ADD PUSH1 0x40 MSTORE DUP1 PUSH1 0x0 DUP2 MSTORE POP PUSH2 0x1617 JUMP JUMPDEST POP POP POP JUMP JUMPDEST PUSH32 0x0 PUSH1 0x13 SLOAD TIMESTAMP PUSH2 0xAEE SWAP2 SWAP1 PUSH2 0x418D JUMP JUMPDEST GT ISZERO PUSH2 0xBD1 JUMPI TIMESTAMP PUSH1 0x13 DUP2 SWAP1 SSTORE POP PUSH1 0x0 PUSH1 0x1 PUSH2 0xB09 PUSH1 0x11 PUSH2 0x20F5 JUMP JUMPDEST PUSH2 0xB13 SWAP2 SWAP1 PUSH2 0x418D JUMP JUMPDEST SWAP1 POP PUSH2 0xB1E DUP2 PUSH2 0x7F4 JUMP JUMPDEST PUSH2 0xBCF DUP2 PUSH1 0x14 PUSH1 0x0 DUP2 SLOAD DUP2 LT PUSH2 0xB37 JUMPI PUSH2 0xB36 PUSH2 0x3FA8 JUMP JUMPDEST JUMPDEST SWAP1 PUSH1 0x0 MSTORE PUSH1 0x20 PUSH1 0x0 KECCAK256 ADD DUP1 SLOAD PUSH2 0xB4C SWAP1 PUSH2 0x3EF2 JUMP JUMPDEST DUP1 PUSH1 0x1F ADD PUSH1 0x20 DUP1 SWAP2 DIV MUL PUSH1 0x20 ADD PUSH1 0x40 MLOAD SWAP1 DUP2 ADD PUSH1 0x40 MSTORE DUP1 SWAP3 SWAP2 SWAP1 DUP2 DUP2 MSTORE PUSH1 0x20 ADD DUP3 DUP1 SLOAD PUSH2 0xB78 SWAP1 PUSH2 0x3EF2 JUMP JUMPDEST DUP1 ISZERO PUSH2 0xBC5 JUMPI DUP1 PUSH1 0x1F LT PUSH2 0xB9A JUMPI PUSH2 0x100 DUP1 DUP4 SLOAD DIV MUL DUP4 MSTORE SWAP2 PUSH1 0x20 ADD SWAP2 PUSH2 0xBC5 JUMP JUMPDEST DUP3 ADD SWAP2 SWAP1 PUSH1 0x0 MSTORE PUSH1 0x20 PUSH1 0x0 KECCAK256 SWAP1 JUMPDEST DUP2 SLOAD DUP2 MSTORE SWAP1 PUSH1 0x1 ADD SWAP1 PUSH1 0x20 ADD DUP1 DUP4 GT PUSH2 0xBA8 JUMPI DUP3 SWAP1 SUB PUSH1 0x1F AND DUP3 ADD SWAP2 JUMPDEST POP POP POP POP POP PUSH2 0x1C81 JUMP JUMPDEST POP JUMPDEST POP POP JUMP JUMPDEST DUP7 PUSH32 0x9BBE9BDB256FD5A26A4734003AE01898187A7C798258E71AA74CD015BAD7CEF1 DUP8 DUP8 DUP8 DUP8 DUP8 DUP8 PUSH1 0x40 MLOAD PUSH2 0xC0F SWAP7 SWAP6 SWAP5 SWAP4 SWAP3 SWAP2 SWAP1 PUSH2 0x41C1 JUMP JUMPDEST PUSH1 0x40 MLOAD DUP1 SWAP2 SUB SWAP1 LOG2 POP POP POP POP POP POP POP JUMP JUMPDEST PUSH1 0x0 DUP1 PUSH1 0x2 PUSH1 0x0 DUP5 DUP2 MSTORE PUSH1 0x20 ADD SWAP1 DUP2 MSTORE PUSH1 0x20 ADD PUSH1 0x0 KECCAK256 PUSH1 0x0 SWAP1 SLOAD SWAP1 PUSH2 0x100 EXP SWAP1 DIV PUSH20 0xFFFFFFFFFFFFFFFFFFFFFFFFFFFFFFFFFFFFFFFF AND SWAP1 POP PUSH1 0x0 PUSH20 0xFFFFFFFFFFFFFFFFFFFFFFFFFFFFFFFFFFFFFFFF AND DUP2 PUSH20 0xFFFFFFFFFFFFFFFFFFFFFFFFFFFFFFFFFFFFFFFF AND SUB PUSH2 0xCC8 JUMPI PUSH1 0x40 MLOAD PUSH32 0x8C379A000000000000000000000000000000000000000000000000000000000 DUP2 MSTORE PUSH1 0x4 ADD PUSH2 0xCBF SWAP1 PUSH2 0x4298 JUMP JUMPDEST PUSH1 0x40 MLOAD DUP1 SWAP2 SUB SWAP1 REVERT JUMPDEST DUP1 SWAP2 POP POP SWAP2 SWAP1 POP JUMP JUMPDEST PUSH1 0x0 PUSH1 0x60 PUSH1 0x0 DUP1 ISZERO DUP1 ISZERO PUSH2 0xD11 JUMPI POP PUSH32 0x0 PUSH1 0x13 SLOAD TIMESTAMP PUSH2 0xD0F SWAP2 SWAP1 PUSH2 0x418D JUMP JUMPDEST GT JUMPDEST SWAP3 POP POP SWAP3 POP SWAP3 SWAP1 POP JUMP JUMPDEST PUSH1 0x0 DUP1 PUSH20 0xFFFFFFFFFFFFFFFFFFFFFFFFFFFFFFFFFFFFFFFF AND DUP3 PUSH20 0xFFFFFFFFFFFFFFFFFFFFFFFFFFFFFFFFFFFFFFFF AND SUB PUSH2 0xD8B JUMPI PUSH1 0x40 MLOAD PUSH32 0x8C379A000000000000000000000000000000000000000000000000000000000 DUP2 MSTORE PUSH1 0x4 ADD PUSH2 0xD82 SWAP1 PUSH2 0x432A JUMP JUMPDEST PUSH1 0x40 MLOAD DUP1 SWAP2 SUB SWAP1 REVERT JUMPDEST PUSH1 0x3 PUSH1 0x0 DUP4 PUSH20 0xFFFFFFFFFFFFFFFFFFFFFFFFFFFFFFFFFFFFFFFF AND PUSH20 0xFFFFFFFFFFFFFFFFFFFFFFFFFFFFFFFFFFFFFFFF AND DUP2 MSTORE PUSH1 0x20 ADD SWAP1 DUP2 MSTORE PUSH1 0x20 ADD PUSH1 0x0 KECCAK256 SLOAD SWAP1 POP SWAP2 SWAP1 POP JUMP JUMPDEST PUSH1 0xE PUSH1 0x0 SWAP1 SLOAD SWAP1 PUSH2 0x100 EXP SWAP1 DIV PUSH20 0xFFFFFFFFFFFFFFFFFFFFFFFFFFFFFFFFFFFFFFFF AND PUSH20 0xFFFFFFFFFFFFFFFFFFFFFFFFFFFFFFFFFFFFFFFF AND CALLER PUSH20 0xFFFFFFFFFFFFFFFFFFFFFFFFFFFFFFFFFFFFFFFF AND EQ PUSH2 0xE62 JUMPI PUSH1 0x40 MLOAD PUSH32 0x8C379A000000000000000000000000000000000000000000000000000000000 DUP2 MSTORE PUSH1 0x4 ADD PUSH2 0xE59 SWAP1 PUSH2 0x4396 JUMP JUMPDEST PUSH1 0x40 MLOAD DUP1 SWAP2 SUB SWAP1 REVERT JUMPDEST PUSH1 0x0 PUSH1 0xD PUSH1 0x0 SWAP1 SLOAD SWAP1 PUSH2 0x100 EXP SWAP1 DIV PUSH20 0xFFFFFFFFFFFFFFFFFFFFFFFFFFFFFFFFFFFFFFFF AND SWAP1 POP CALLER PUSH1 0xD PUSH1 0x0 PUSH2 0x100 EXP DUP2 SLOAD DUP2 PUSH20 0xFFFFFFFFFFFFFFFFFFFFFFFFFFFFFFFFFFFFFFFF MUL NOT AND SWAP1 DUP4 PUSH20 0xFFFFFFFFFFFFFFFFFFFFFFFFFFFFFFFFFFFFFFFF AND MUL OR SWAP1 SSTORE POP PUSH1 0x0 PUSH1 0xE PUSH1 0x0 PUSH2 0x100 EXP DUP2 SLOAD DUP2 PUSH20 0xFFFFFFFFFFFFFFFFFFFFFFFFFFFFFFFFFFFFFFFF MUL NOT AND SWAP1 DUP4 PUSH20 0xFFFFFFFFFFFFFFFFFFFFFFFFFFFFFFFFFFFFFFFF AND MUL OR SWAP1 SSTORE POP CALLER PUSH20 0xFFFFFFFFFFFFFFFFFFFFFFFFFFFFFFFFFFFFFFFF AND DUP2 PUSH20 0xFFFFFFFFFFFFFFFFFFFFFFFFFFFFFFFFFFFFFFFF AND PUSH32 0x8BE0079C531659141344CD1FD0A4F28419497F9722A3DAAFE3B4186F6B6457E0 PUSH1 0x40 MLOAD PUSH1 0x40 MLOAD DUP1 SWAP2 SUB SWAP1 LOG3 POP JUMP JUMPDEST PUSH1 0x0 DUP1 PUSH2 0xF75 DUP4 PUSH2 0x16D2 JUMP JUMPDEST SWAP1 POP PUSH2 0x1028 DUP2 PUSH1 0x14 PUSH1 0x0 DUP2 SLOAD DUP2 LT PUSH2 0xF90 JUMPI PUSH2 0xF8F PUSH2 0x3FA8 JUMP JUMPDEST JUMPDEST SWAP1 PUSH1 0x0 MSTORE PUSH1 0x20 PUSH1 0x0 KECCAK256 ADD DUP1 SLOAD PUSH2 0xFA5 SWAP1 PUSH2 0x3EF2 JUMP JUMPDEST DUP1 PUSH1 0x1F ADD PUSH1 0x20 DUP1 SWAP2 DIV MUL PUSH1 0x20 ADD PUSH1 0x40 MLOAD SWAP1 DUP2 ADD PUSH1 0x40 MSTORE DUP1 SWAP3 SWAP2 SWAP1 DUP2 DUP2 MSTORE PUSH1 0x20 ADD DUP3 DUP1 SLOAD PUSH2 0xFD1 SWAP1 PUSH2 0x3EF2 JUMP JUMPDEST DUP1 ISZERO PUSH2 0x101E JUMPI DUP1 PUSH1 0x1F LT PUSH2 0xFF3 JUMPI PUSH2 0x100 DUP1 DUP4 SLOAD DIV MUL DUP4 MSTORE SWAP2 PUSH1 0x20 ADD SWAP2 PUSH2 0x101E JUMP JUMPDEST DUP3 ADD SWAP2 SWAP1 PUSH1 0x0 MSTORE PUSH1 0x20 PUSH1 0x0 KECCAK256 SWAP1 JUMPDEST DUP2 SLOAD DUP2 MSTORE SWAP1 PUSH1 0x1 ADD SWAP1 PUSH1 0x20 ADD DUP1 DUP4 GT PUSH2 0x1001 JUMPI DUP3 SWAP1 SUB PUSH1 0x1F AND DUP3 ADD SWAP2 JUMPDEST POP POP POP POP POP PUSH2 0x1679 JUMP JUMPDEST ISZERO PUSH2 0x1037 JUMPI PUSH1 0x0 SWAP2 POP POP PUSH2 0x127D JUMP JUMPDEST PUSH2 0x10E8 DUP2 PUSH1 0x14 PUSH1 0x1 DUP2 SLOAD DUP2 LT PUSH2 0x1050 JUMPI PUSH2 0x104F PUSH2 0x3FA8 JUMP JUMPDEST JUMPDEST SWAP1 PUSH1 0x0 MSTORE PUSH1 0x20 PUSH1 0x0 KECCAK256 ADD DUP1 SLOAD PUSH2 0x1065 SWAP1 PUSH2 0x3EF2 JUMP JUMPDEST DUP1 PUSH1 0x1F ADD PUSH1 0x20 DUP1 SWAP2 DIV MUL PUSH1 0x20 ADD PUSH1 0x40 MLOAD SWAP1 DUP2 ADD PUSH1 0x40 MSTORE DUP1 SWAP3 SWAP2 SWAP1 DUP2 DUP2 MSTORE PUSH1 0x20 ADD DUP3 DUP1 SLOAD PUSH2 0x1091 SWAP1 PUSH2 0x3EF2 JUMP JUMPDEST DUP1 ISZERO PUSH2 0x10DE JUMPI DUP1 PUSH1 0x1F LT PUSH2 0x10B3 JUMPI PUSH2 0x100 DUP1 DUP4 SLOAD DIV MUL DUP4 MSTORE SWAP2 PUSH1 0x20 ADD SWAP2 PUSH2 0x10DE JUMP JUMPDEST DUP3 ADD SWAP2 SWAP1 PUSH1 0x0 MSTORE PUSH1 0x20 PUSH1 0x0 KECCAK256 SWAP1 JUMPDEST DUP2 SLOAD DUP2 MSTORE SWAP1 PUSH1 0x1 ADD SWAP1 PUSH1 0x20 ADD DUP1 DUP4 GT PUSH2 0x10C1 JUMPI DUP3 SWAP1 SUB PUSH1 0x1F AND DUP3 ADD SWAP2 JUMPDEST POP POP POP POP POP PUSH2 0x1679 JUMP JUMPDEST ISZERO PUSH2 0x10F7 JUMPI PUSH1 0x1 SWAP2 POP POP PUSH2 0x127D JUMP JUMPDEST PUSH2 0x11A8 DUP2 PUSH1 0x14 PUSH1 0x2 DUP2 SLOAD DUP2 LT PUSH2 0x1110 JUMPI PUSH2 0x110F PUSH2 0x3FA8 JUMP JUMPDEST JUMPDEST SWAP1 PUSH1 0x0 MSTORE PUSH1 0x20 PUSH1 0x0 KECCAK256 ADD DUP1 SLOAD PUSH2 0x1125 SWAP1 PUSH2 0x3EF2 JUMP JUMPDEST DUP1 PUSH1 0x1F ADD PUSH1 0x20 DUP1 SWAP2 DIV MUL PUSH1 0x20 ADD PUSH1 0x40 MLOAD SWAP1 DUP2 ADD PUSH1 0x40 MSTORE DUP1 SWAP3 SWAP2 SWAP1 DUP2 DUP2 MSTORE PUSH1 0x20 ADD DUP3 DUP1 SLOAD PUSH2 0x1151 SWAP1 PUSH2 0x3EF2 JUMP JUMPDEST DUP1 ISZERO PUSH2 0x119E JUMPI DUP1 PUSH1 0x1F LT PUSH2 0x1173 JUMPI PUSH2 0x100 DUP1 DUP4 SLOAD DIV MUL DUP4 MSTORE SWAP2 PUSH1 0x20 ADD SWAP2 PUSH2 0x119E JUMP JUMPDEST DUP3 ADD SWAP2 SWAP1 PUSH1 0x0 MSTORE PUSH1 0x20 PUSH1 0x0 KECCAK256 SWAP1 JUMPDEST DUP2 SLOAD DUP2 MSTORE SWAP1 PUSH1 0x1 ADD SWAP1 PUSH1 0x20 ADD DUP1 DUP4 GT PUSH2 0x1181 JUMPI DUP3 SWAP1 SUB PUSH1 0x1F AND DUP3 ADD SWAP2 JUMPDEST POP POP POP POP POP PUSH2 0x1679 JUMP JUMPDEST ISZERO PUSH2 0x11B7 JUMPI PUSH1 0x2 SWAP2 POP POP PUSH2 0x127D JUMP JUMPDEST PUSH2 0x1268 DUP2 PUSH1 0x14 PUSH1 0x3 DUP2 SLOAD DUP2 LT PUSH2 0x11D0 JUMPI PUSH2 0x11CF PUSH2 0x3FA8 JUMP JUMPDEST JUMPDEST SWAP1 PUSH1 0x0 MSTORE PUSH1 0x20 PUSH1 0x0 KECCAK256 ADD DUP1 SLOAD PUSH2 0x11E5 SWAP1 PUSH2 0x3EF2 JUMP JUMPDEST DUP1 PUSH1 0x1F ADD PUSH1 0x20 DUP1 SWAP2 DIV MUL PUSH1 0x20 ADD PUSH1 0x40 MLOAD SWAP1 DUP2 ADD PUSH1 0x40 MSTORE DUP1 SWAP3 SWAP2 SWAP1 DUP2 DUP2 MSTORE PUSH1 0x20 ADD DUP3 DUP1 SLOAD PUSH2 0x1211 SWAP1 PUSH2 0x3EF2 JUMP JUMPDEST DUP1 ISZERO PUSH2 0x125E JUMPI DUP1 PUSH1 0x1F LT PUSH2 0x1233 JUMPI PUSH2 0x100 DUP1 DUP4 SLOAD DIV MUL DUP4 MSTORE SWAP2 PUSH1 0x20 ADD SWAP2 PUSH2 0x125E JUMP JUMPDEST DUP3 ADD SWAP2 SWAP1 PUSH1 0x0 MSTORE PUSH1 0x20 PUSH1 0x0 KECCAK256 SWAP1 JUMPDEST DUP2 SLOAD DUP2 MSTORE SWAP1 PUSH1 0x1 ADD SWAP1 PUSH1 0x20 ADD DUP1 DUP4 GT PUSH2 0x1241 JUMPI DUP3 SWAP1 SUB PUSH1 0x1F AND DUP3 ADD SWAP2 JUMPDEST POP POP POP POP POP PUSH2 0x1679 JUMP JUMPDEST ISZERO PUSH2 0x1277 JUMPI PUSH1 0x3 SWAP2 POP POP PUSH2 0x127D JUMP JUMPDEST PUSH1 0x4 SWAP2 POP POP JUMPDEST SWAP2 SWAP1 POP JUMP JUMPDEST PUSH1 0x0 PUSH1 0xD PUSH1 0x0 SWAP1 SLOAD SWAP1 PUSH2 0x100 EXP SWAP1 DIV PUSH20 0xFFFFFFFFFFFFFFFFFFFFFFFFFFFFFFFFFFFFFFFF AND SWAP1 POP SWAP1 JUMP JUMPDEST PUSH2 0x12B4 PUSH2 0x2103 JUMP JUMPDEST PUSH1 0x0 PUSH2 0x12BE PUSH2 0x2195 JUMP JUMPDEST SWAP1 POP DUP1 PUSH20 0xFFFFFFFFFFFFFFFFFFFFFFFFFFFFFFFFFFFFFFFF AND PUSH4 0xA9059CBB CALLER DUP4 PUSH20 0xFFFFFFFFFFFFFFFFFFFFFFFFFFFFFFFFFFFFFFFF AND PUSH4 0x70A08231 ADDRESS PUSH1 0x40 MLOAD DUP3 PUSH4 0xFFFFFFFF AND PUSH1 0xE0 SHL DUP2 MSTORE PUSH1 0x4 ADD PUSH2 0x1316 SWAP2 SWAP1 PUSH2 0x371A JUMP JUMPDEST PUSH1 0x20 PUSH1 0x40 MLOAD DUP1 DUP4 SUB DUP2 DUP7 GAS STATICCALL ISZERO DUP1 ISZERO PUSH2 0x1333 JUMPI RETURNDATASIZE PUSH1 0x0 DUP1 RETURNDATACOPY RETURNDATASIZE PUSH1 0x0 REVERT JUMPDEST POP POP POP POP PUSH1 0x40 MLOAD RETURNDATASIZE PUSH1 0x1F NOT PUSH1 0x1F DUP3 ADD AND DUP3 ADD DUP1 PUSH1 0x40 MSTORE POP DUP2 ADD SWAP1 PUSH2 0x1357 SWAP2 SWAP1 PUSH2 0x43CB JUMP JUMPDEST PUSH1 0x40 MLOAD DUP4 PUSH4 0xFFFFFFFF AND PUSH1 0xE0 SHL DUP2 MSTORE PUSH1 0x4 ADD PUSH2 0x1374 SWAP3 SWAP2 SWAP1 PUSH2 0x43F8 JUMP JUMPDEST PUSH1 0x20 PUSH1 0x40 MLOAD DUP1 DUP4 SUB DUP2 PUSH1 0x0 DUP8 GAS CALL ISZERO DUP1 ISZERO PUSH2 0x1393 JUMPI RETURNDATASIZE PUSH1 0x0 DUP1 RETURNDATACOPY RETURNDATASIZE PUSH1 0x0 REVERT JUMPDEST POP POP POP POP PUSH1 0x40 MLOAD RETURNDATASIZE PUSH1 0x1F NOT PUSH1 0x1F DUP3 ADD AND DUP3 ADD DUP1 PUSH1 0x40 MSTORE POP DUP2 ADD SWAP1 PUSH2 0x13B7 SWAP2 SWAP1 PUSH2 0x4436 JUMP JUMPDEST PUSH2 0x13F6 JUMPI PUSH1 0x40 MLOAD PUSH32 0x8C379A000000000000000000000000000000000000000000000000000000000 DUP2 MSTORE PUSH1 0x4 ADD PUSH2 0x13ED SWAP1 PUSH2 0x44AF JUMP JUMPDEST PUSH1 0x40 MLOAD DUP1 SWAP2 SUB SWAP1 REVERT JUMPDEST POP JUMP JUMPDEST PUSH1 0x60 PUSH1 0x1 DUP1 SLOAD PUSH2 0x1408 SWAP1 PUSH2 0x3EF2 JUMP JUMPDEST DUP1 PUSH1 0x1F ADD PUSH1 0x20 DUP1 SWAP2 DIV MUL PUSH1 0x20 ADD PUSH1 0x40 MLOAD SWAP1 DUP2 ADD PUSH1 0x40 MSTORE DUP1 SWAP3 SWAP2 SWAP1 DUP2 DUP2 MSTORE PUSH1 0x20 ADD DUP3 DUP1 SLOAD PUSH2 0x1434 SWAP1 PUSH2 0x3EF2 JUMP JUMPDEST DUP1 ISZERO PUSH2 0x1481 JUMPI DUP1 PUSH1 0x1F LT PUSH2 0x1456 JUMPI PUSH2 0x100 DUP1 DUP4 SLOAD DIV MUL DUP4 MSTORE SWAP2 PUSH1 0x20 ADD SWAP2 PUSH2 0x1481 JUMP JUMPDEST DUP3 ADD SWAP2 SWAP1 PUSH1 0x0 MSTORE PUSH1 0x20 PUSH1 0x0 KECCAK256 SWAP1 JUMPDEST DUP2 SLOAD DUP2 MSTORE SWAP1 PUSH1 0x1 ADD SWAP1 PUSH1 0x20 ADD DUP1 DUP4 GT PUSH2 0x1464 JUMPI DUP3 SWAP1 SUB PUSH1 0x1F AND DUP3 ADD SWAP2 JUMPDEST POP POP POP POP POP SWAP1 POP SWAP1 JUMP JUMPDEST PUSH1 0x11 DUP1 PUSH1 0x0 ADD SLOAD SWAP1 POP DUP2 JUMP JUMPDEST PUSH2 0x149F PUSH2 0x2103 JUMP JUMPDEST DUP1 CALLVALUE LT ISZERO PUSH2 0x14E2 JUMPI PUSH1 0x40 MLOAD PUSH32 0x8C379A000000000000000000000000000000000000000000000000000000000 DUP2 MSTORE PUSH1 0x4 ADD PUSH2 0x14D9 SWAP1 PUSH2 0x451B JUMP JUMPDEST PUSH1 0x40 MLOAD DUP1 SWAP2 SUB SWAP1 REVERT JUMPDEST DUP2 PUSH20 0xFFFFFFFFFFFFFFFFFFFFFFFFFFFFFFFFFFFFFFFF AND PUSH2 0x8FC CALLVALUE SWAP1 DUP2 ISZERO MUL SWAP1 PUSH1 0x40 MLOAD PUSH1 0x0 PUSH1 0x40 MLOAD DUP1 DUP4 SUB DUP2 DUP6 DUP9 DUP9 CALL SWAP4 POP POP POP POP ISZERO DUP1 ISZERO PUSH2 0x1528 JUMPI RETURNDATASIZE PUSH1 0x0 DUP1 RETURNDATACOPY RETURNDATASIZE PUSH1 0x0 REVERT JUMPDEST POP PUSH1 0x0 PUSH2 0x1535 PUSH1 0x11 PUSH2 0x20F5 JUMP JUMPDEST SWAP1 POP PUSH2 0x1541 PUSH1 0x11 PUSH2 0x21BF JUMP JUMPDEST PUSH2 0x154B DUP4 DUP3 PUSH2 0x21D5 JUMP JUMPDEST PUSH2 0x15FC DUP2 PUSH1 0x14 PUSH1 0x0 DUP2 SLOAD DUP2 LT PUSH2 0x1564 JUMPI PUSH2 0x1563 PUSH2 0x3FA8 JUMP JUMPDEST JUMPDEST SWAP1 PUSH1 0x0 MSTORE PUSH1 0x20 PUSH1 0x0 KECCAK256 ADD DUP1 SLOAD PUSH2 0x1579 SWAP1 PUSH2 0x3EF2 JUMP JUMPDEST DUP1 PUSH1 0x1F ADD PUSH1 0x20 DUP1 SWAP2 DIV MUL PUSH1 0x20 ADD PUSH1 0x40 MLOAD SWAP1 DUP2 ADD PUSH1 0x40 MSTORE DUP1 SWAP3 SWAP2 SWAP1 DUP2 DUP2 MSTORE PUSH1 0x20 ADD DUP3 DUP1 SLOAD PUSH2 0x15A5 SWAP1 PUSH2 0x3EF2 JUMP JUMPDEST DUP1 ISZERO PUSH2 0x15F2 JUMPI DUP1 PUSH1 0x1F LT PUSH2 0x15C7 JUMPI PUSH2 0x100 DUP1 DUP4 SLOAD DIV MUL DUP4 MSTORE SWAP2 PUSH1 0x20 ADD SWAP2 PUSH2 0x15F2 JUMP JUMPDEST DUP3 ADD SWAP2 SWAP1 PUSH1 0x0 MSTORE PUSH1 0x20 PUSH1 0x0 KECCAK256 SWAP1 JUMPDEST DUP2 SLOAD DUP2 MSTORE SWAP1 PUSH1 0x1 ADD SWAP1 PUSH1 0x20 ADD DUP1 DUP4 GT PUSH2 0x15D5 JUMPI DUP3 SWAP1 SUB PUSH1 0x1F AND DUP3 ADD SWAP2 JUMPDEST POP POP POP POP POP PUSH2 0x1C81 JUMP JUMPDEST POP POP POP JUMP JUMPDEST PUSH2 0x1613 PUSH2 0x160C PUSH2 0x1D39 JUMP JUMPDEST DUP4 DUP4 PUSH2 0x21F3 JUMP JUMPDEST POP POP JUMP JUMPDEST PUSH2 0x1628 PUSH2 0x1622 PUSH2 0x1D39 JUMP JUMPDEST DUP4 PUSH2 0x1DFA JUMP JUMPDEST PUSH2 0x1667 JUMPI PUSH1 0x40 MLOAD PUSH32 0x8C379A000000000000000000000000000000000000000000000000000000000 DUP2 MSTORE PUSH1 0x4 ADD PUSH2 0x165E SWAP1 PUSH2 0x416D JUMP JUMPDEST PUSH1 0x40 MLOAD DUP1 SWAP2 SUB SWAP1 REVERT JUMPDEST PUSH2 0x1673 DUP5 DUP5 DUP5 DUP5 PUSH2 0x235F JUMP JUMPDEST POP POP POP POP JUMP JUMPDEST PUSH1 0x0 DUP2 PUSH1 0x40 MLOAD PUSH1 0x20 ADD PUSH2 0x168C SWAP2 SWAP1 PUSH2 0x4577 JUMP JUMPDEST PUSH1 0x40 MLOAD PUSH1 0x20 DUP2 DUP4 SUB SUB DUP2 MSTORE SWAP1 PUSH1 0x40 MSTORE DUP1 MLOAD SWAP1 PUSH1 0x20 ADD KECCAK256 DUP4 PUSH1 0x40 MLOAD PUSH1 0x20 ADD PUSH2 0x16B3 SWAP2 SWAP1 PUSH2 0x4577 JUMP JUMPDEST PUSH1 0x40 MLOAD PUSH1 0x20 DUP2 DUP4 SUB SUB DUP2 MSTORE SWAP1 PUSH1 0x40 MSTORE DUP1 MLOAD SWAP1 PUSH1 0x20 ADD KECCAK256 EQ SWAP1 POP SWAP3 SWAP2 POP POP JUMP JUMPDEST PUSH1 0x60 PUSH2 0x16DD DUP3 PUSH2 0x23BB JUMP JUMPDEST SWAP1 POP SWAP2 SWAP1 POP JUMP JUMPDEST DUP7 PUSH1 0xC PUSH1 0x0 DUP3 DUP2 MSTORE PUSH1 0x20 ADD SWAP1 DUP2 MSTORE PUSH1 0x20 ADD PUSH1 0x0 KECCAK256 PUSH1 0x0 SWAP1 SLOAD SWAP1 PUSH2 0x100 EXP SWAP1 DIV PUSH20 0xFFFFFFFFFFFFFFFFFFFFFFFFFFFFFFFFFFFFFFFF AND PUSH20 0xFFFFFFFFFFFFFFFFFFFFFFFFFFFFFFFFFFFFFFFF AND CALLER PUSH20 0xFFFFFFFFFFFFFFFFFFFFFFFFFFFFFFFFFFFFFFFF AND EQ PUSH2 0x1786 JUMPI PUSH1 0x40 MLOAD PUSH32 0x8C379A000000000000000000000000000000000000000000000000000000000 DUP2 MSTORE PUSH1 0x4 ADD PUSH2 0x177D SWAP1 PUSH2 0x4600 JUMP JUMPDEST PUSH1 0x40 MLOAD DUP1 SWAP2 SUB SWAP1 REVERT JUMPDEST PUSH1 0xC PUSH1 0x0 DUP3 DUP2 MSTORE PUSH1 0x20 ADD SWAP1 DUP2 MSTORE PUSH1 0x20 ADD PUSH1 0x0 KECCAK256 PUSH1 0x0 PUSH2 0x100 EXP DUP2 SLOAD SWAP1 PUSH20 0xFFFFFFFFFFFFFFFFFFFFFFFFFFFFFFFFFFFFFFFF MUL NOT AND SWAP1 SSTORE DUP1 PUSH32 0x7CC135E0CEBB02C3480AE5D74D377283180A2601F8F644EDF7987B009316C63A PUSH1 0x40 MLOAD PUSH1 0x40 MLOAD DUP1 SWAP2 SUB SWAP1 LOG2 PUSH2 0x17F8 DUP9 DUP9 DUP9 DUP9 DUP9 DUP9 DUP9 PUSH2 0xBD5 JUMP JUMPDEST POP POP POP POP POP POP POP POP JUMP JUMPDEST PUSH1 0x0 PUSH1 0x5 PUSH1 0x0 DUP5 PUSH20 0xFFFFFFFFFFFFFFFFFFFFFFFFFFFFFFFFFFFFFFFF AND PUSH20 0xFFFFFFFFFFFFFFFFFFFFFFFFFFFFFFFFFFFFFFFF AND DUP2 MSTORE PUSH1 0x20 ADD SWAP1 DUP2 MSTORE PUSH1 0x20 ADD PUSH1 0x0 KECCAK256 PUSH1 0x0 DUP4 PUSH20 0xFFFFFFFFFFFFFFFFFFFFFFFFFFFFFFFFFFFFFFFF AND PUSH20 0xFFFFFFFFFFFFFFFFFFFFFFFFFFFFFFFFFFFFFFFF AND DUP2 MSTORE PUSH1 0x20 ADD SWAP1 DUP2 MSTORE PUSH1 0x20 ADD PUSH1 0x0 KECCAK256 PUSH1 0x0 SWAP1 SLOAD SWAP1 PUSH2 0x100 EXP SWAP1 DIV PUSH1 0xFF AND SWAP1 POP SWAP3 SWAP2 POP POP JUMP JUMPDEST PUSH2 0x189E PUSH2 0x2103 JUMP JUMPDEST PUSH2 0x18A7 DUP2 PUSH2 0x24CD JUMP JUMPDEST POP JUMP JUMPDEST PUSH1 0x0 PUSH2 0x18C0 PUSH1 0xF SLOAD ADDRESS PUSH4 0xE063AD33 PUSH1 0xE0 SHL PUSH2 0x25FB JUMP JUMPDEST SWAP1 POP PUSH2 0x190C PUSH1 0x40 MLOAD DUP1 PUSH1 0x40 ADD PUSH1 0x40 MSTORE DUP1 PUSH1 0x3 DUP2 MSTORE PUSH1 0x20 ADD PUSH32 0x6765740000000000000000000000000000000000000000000000000000000000 DUP2 MSTORE POP DUP4 DUP4 PUSH2 0x262C SWAP1 SWAP3 SWAP2 SWAP1 PUSH4 0xFFFFFFFF AND JUMP JUMPDEST PUSH2 0x198B PUSH1 0x40 MLOAD DUP1 PUSH1 0x40 ADD PUSH1 0x40 MSTORE DUP1 PUSH1 0x4 DUP2 MSTORE PUSH1 0x20 ADD PUSH32 0x6D65616E00000000000000000000000000000000000000000000000000000000 DUP2 MSTORE POP PUSH1 0x40 MLOAD DUP1 PUSH1 0x40 ADD PUSH1 0x40 MSTORE DUP1 PUSH1 0x9 DUP2 MSTORE PUSH1 0x20 ADD PUSH32 0x6E6476692C6D65616E0000000000000000000000000000000000000000000000 DUP2 MSTORE POP DUP4 PUSH2 0x262C SWAP1 SWAP3 SWAP2 SWAP1 PUSH4 0xFFFFFFFF AND JUMP JUMPDEST PUSH2 0x1A0A PUSH1 0x40 MLOAD DUP1 PUSH1 0x40 ADD PUSH1 0x40 MSTORE DUP1 PUSH1 0x3 DUP2 MSTORE PUSH1 0x20 ADD PUSH32 0x7374640000000000000000000000000000000000000000000000000000000000 DUP2 MSTORE POP PUSH1 0x40 MLOAD DUP1 PUSH1 0x40 ADD PUSH1 0x40 MSTORE DUP1 PUSH1 0x8 DUP2 MSTORE PUSH1 0x20 ADD PUSH32 0x6E6476692C737464000000000000000000000000000000000000000000000000 DUP2 MSTORE POP DUP4 PUSH2 0x262C SWAP1 SWAP3 SWAP2 SWAP1 PUSH4 0xFFFFFFFF AND JUMP JUMPDEST PUSH2 0x1A89 PUSH1 0x40 MLOAD DUP1 PUSH1 0x40 ADD PUSH1 0x40 MSTORE DUP1 PUSH1 0x3 DUP2 MSTORE PUSH1 0x20 ADD PUSH32 0x6D61780000000000000000000000000000000000000000000000000000000000 DUP2 MSTORE POP PUSH1 0x40 MLOAD DUP1 PUSH1 0x40 ADD PUSH1 0x40 MSTORE DUP1 PUSH1 0x8 DUP2 MSTORE PUSH1 0x20 ADD PUSH32 0x6E6476692C6D6178000000000000000000000000000000000000000000000000 DUP2 MSTORE POP DUP4 PUSH2 0x262C SWAP1 SWAP3 SWAP2 SWAP1 PUSH4 0xFFFFFFFF AND JUMP JUMPDEST PUSH2 0x1B08 PUSH1 0x40 MLOAD DUP1 PUSH1 0x40 ADD PUSH1 0x40 MSTORE DUP1 PUSH1 0x3 DUP2 MSTORE PUSH1 0x20 ADD PUSH32 0x6D696E0000000000000000000000000000000000000000000000000000000000 DUP2 MSTORE POP PUSH1 0x40 MLOAD DUP1 PUSH1 0x40 ADD PUSH1 0x40 MSTORE DUP1 PUSH1 0x8 DUP2 MSTORE PUSH1 0x20 ADD PUSH32 0x6E6476692C6D696E000000000000000000000000000000000000000000000000 DUP2 MSTORE POP DUP4 PUSH2 0x262C SWAP1 SWAP3 SWAP2 SWAP1 PUSH4 0xFFFFFFFF AND JUMP JUMPDEST PUSH2 0x1B87 PUSH1 0x40 MLOAD DUP1 PUSH1 0x40 ADD PUSH1 0x40 MSTORE DUP1 PUSH1 0x6 DUP2 MSTORE PUSH1 0x20 ADD PUSH32 0x757569645F700000000000000000000000000000000000000000000000000000 DUP2 MSTORE POP PUSH1 0x40 MLOAD DUP1 PUSH1 0x40 ADD PUSH1 0x40 MSTORE DUP1 PUSH1 0xB DUP2 MSTORE PUSH1 0x20 ADD PUSH32 0x6E6476692C757569645F70000000000000000000000000000000000000000000 DUP2 MSTORE POP DUP4 PUSH2 0x262C SWAP1 SWAP3 SWAP2 SWAP1 PUSH4 0xFFFFFFFF AND JUMP JUMPDEST PUSH2 0x1C06 PUSH1 0x40 MLOAD DUP1 PUSH1 0x40 ADD PUSH1 0x40 MSTORE DUP1 PUSH1 0x4 DUP2 MSTORE PUSH1 0x20 ADD PUSH32 0x69645F7000000000000000000000000000000000000000000000000000000000 DUP2 MSTORE POP PUSH1 0x40 MLOAD DUP1 PUSH1 0x40 ADD PUSH1 0x40 MSTORE DUP1 PUSH1 0x9 DUP2 MSTORE PUSH1 0x20 ADD PUSH32 0x6E6476692C69645F700000000000000000000000000000000000000000000000 DUP2 MSTORE POP DUP4 PUSH2 0x262C SWAP1 SWAP3 SWAP2 SWAP1 PUSH4 0xFFFFFFFF AND JUMP JUMPDEST PUSH2 0x1C12 DUP2 PUSH1 0x10 SLOAD PUSH2 0x265F JUMP JUMPDEST POP POP POP JUMP JUMPDEST PUSH1 0x0 PUSH32 0x1FFC9A700000000000000000000000000000000000000000000000000000000 PUSH28 0xFFFFFFFFFFFFFFFFFFFFFFFFFFFFFFFFFFFFFFFFFFFFFFFFFFFFFFFF NOT AND DUP3 PUSH28 0xFFFFFFFFFFFFFFFFFFFFFFFFFFFFFFFFFFFFFFFFFFFFFFFFFFFFFFFF NOT AND EQ SWAP1 POP SWAP2 SWAP1 POP JUMP JUMPDEST PUSH2 0x1C8A DUP3 PUSH2 0x2696 JUMP JUMPDEST PUSH2 0x1CC9 JUMPI PUSH1 0x40 MLOAD PUSH32 0x8C379A000000000000000000000000000000000000000000000000000000000 DUP2 MSTORE PUSH1 0x4 ADD PUSH2 0x1CC0 SWAP1 PUSH2 0x4692 JUMP JUMPDEST PUSH1 0x40 MLOAD DUP1 SWAP2 SUB SWAP1 REVERT JUMPDEST DUP1 PUSH1 0x6 PUSH1 0x0 DUP5 DUP2 MSTORE PUSH1 0x20 ADD SWAP1 DUP2 MSTORE PUSH1 0x20 ADD PUSH1 0x0 KECCAK256 SWAP1 DUP2 PUSH2 0x1CE9 SWAP2 SWAP1 PUSH2 0x485E JUMP JUMPDEST POP POP POP JUMP JUMPDEST PUSH2 0x1CF7 DUP2 PUSH2 0x2696 JUMP JUMPDEST PUSH2 0x1D36 JUMPI PUSH1 0x40 MLOAD PUSH32 0x8C379A000000000000000000000000000000000000000000000000000000000 DUP2 MSTORE PUSH1 0x4 ADD PUSH2 0x1D2D SWAP1 PUSH2 0x4298 JUMP JUMPDEST PUSH1 0x40 MLOAD DUP1 SWAP2 SUB SWAP1 REVERT JUMPDEST POP JUMP JUMPDEST PUSH1 0x0 CALLER SWAP1 POP SWAP1 JUMP JUMPDEST DUP2 PUSH1 0x4 PUSH1 0x0 DUP4 DUP2 MSTORE PUSH1 0x20 ADD SWAP1 DUP2 MSTORE PUSH1 0x20 ADD PUSH1 0x0 KECCAK256 PUSH1 0x0 PUSH2 0x100 EXP DUP2 SLOAD DUP2 PUSH20 0xFFFFFFFFFFFFFFFFFFFFFFFFFFFFFFFFFFFFFFFF MUL NOT AND SWAP1 DUP4 PUSH20 0xFFFFFFFFFFFFFFFFFFFFFFFFFFFFFFFFFFFFFFFF AND MUL OR SWAP1 SSTORE POP DUP1 DUP3 PUSH20 0xFFFFFFFFFFFFFFFFFFFFFFFFFFFFFFFFFFFFFFFF AND PUSH2 0x1DB4 DUP4 PUSH2 0xC20 JUMP JUMPDEST PUSH20 0xFFFFFFFFFFFFFFFFFFFFFFFFFFFFFFFFFFFFFFFF AND PUSH32 0x8C5BE1E5EBEC7D5BD14F71427D1E84F3DD0314C0F7B2291E5B200AC8C7C3B925 PUSH1 0x40 MLOAD PUSH1 0x40 MLOAD DUP1 SWAP2 SUB SWAP1 LOG4 POP POP JUMP JUMPDEST PUSH1 0x0 DUP1 PUSH2 0x1E06 DUP4 PUSH2 0xC20 JUMP JUMPDEST SWAP1 POP DUP1 PUSH20 0xFFFFFFFFFFFFFFFFFFFFFFFFFFFFFFFFFFFFFFFF AND DUP5 PUSH20 0xFFFFFFFFFFFFFFFFFFFFFFFFFFFFFFFFFFFFFFFF AND EQ DUP1 PUSH2 0x1E48 JUMPI POP PUSH2 0x1E47 DUP2 DUP6 PUSH2 0x1802 JUMP JUMPDEST JUMPDEST DUP1 PUSH2 0x1E86 JUMPI POP DUP4 PUSH20 0xFFFFFFFFFFFFFFFFFFFFFFFFFFFFFFFFFFFFFFFF AND PUSH2 0x1E6E DUP5 PUSH2 0x8E2 JUMP JUMPDEST PUSH20 0xFFFFFFFFFFFFFFFFFFFFFFFFFFFFFFFFFFFFFFFF AND EQ JUMPDEST SWAP2 POP POP SWAP3 SWAP2 POP POP JUMP JUMPDEST DUP3 PUSH20 0xFFFFFFFFFFFFFFFFFFFFFFFFFFFFFFFFFFFFFFFF AND PUSH2 0x1EAF DUP3 PUSH2 0xC20 JUMP JUMPDEST PUSH20 0xFFFFFFFFFFFFFFFFFFFFFFFFFFFFFFFFFFFFFFFF AND EQ PUSH2 0x1F05 JUMPI PUSH1 0x40 MLOAD PUSH32 0x8C379A000000000000000000000000000000000000000000000000000000000 DUP2 MSTORE PUSH1 0x4 ADD PUSH2 0x1EFC SWAP1 PUSH2 0x49A2 JUMP JUMPDEST PUSH1 0x40 MLOAD DUP1 SWAP2 SUB SWAP1 REVERT JUMPDEST PUSH1 0x0 PUSH20 0xFFFFFFFFFFFFFFFFFFFFFFFFFFFFFFFFFFFFFFFF AND DUP3 PUSH20 0xFFFFFFFFFFFFFFFFFFFFFFFFFFFFFFFFFFFFFFFF AND SUB PUSH2 0x1F74 JUMPI PUSH1 0x40 MLOAD PUSH32 0x8C379A000000000000000000000000000000000000000000000000000000000 DUP2 MSTORE PUSH1 0x4 ADD PUSH2 0x1F6B SWAP1 PUSH2 0x4A34 JUMP JUMPDEST PUSH1 0x40 MLOAD DUP1 SWAP2 SUB SWAP1 REVERT JUMPDEST PUSH2 0x1F7F DUP4 DUP4 DUP4 PUSH2 0x2702 JUMP JUMPDEST PUSH2 0x1F8A PUSH1 0x0 DUP3 PUSH2 0x1D41 JUMP JUMPDEST PUSH1 0x1 PUSH1 0x3 PUSH1 0x0 DUP6 PUSH20 0xFFFFFFFFFFFFFFFFFFFFFFFFFFFFFFFFFFFFFFFF AND PUSH20 0xFFFFFFFFFFFFFFFFFFFFFFFFFFFFFFFFFFFFFFFF AND DUP2 MSTORE PUSH1 0x20 ADD SWAP1 DUP2 MSTORE PUSH1 0x20 ADD PUSH1 0x0 KECCAK256 PUSH1 0x0 DUP3 DUP3 SLOAD PUSH2 0x1FDA SWAP2 SWAP1 PUSH2 0x418D JUMP JUMPDEST SWAP3 POP POP DUP2 SWAP1 SSTORE POP PUSH1 0x1 PUSH1 0x3 PUSH1 0x0 DUP5 PUSH20 0xFFFFFFFFFFFFFFFFFFFFFFFFFFFFFFFFFFFFFFFF AND PUSH20 0xFFFFFFFFFFFFFFFFFFFFFFFFFFFFFFFFFFFFFFFF AND DUP2 MSTORE PUSH1 0x20 ADD SWAP1 DUP2 MSTORE PUSH1 0x20 ADD PUSH1 0x0 KECCAK256 PUSH1 0x0 DUP3 DUP3 SLOAD PUSH2 0x2031 SWAP2 SWAP1 PUSH2 0x3F52 JUMP JUMPDEST SWAP3 POP POP DUP2 SWAP1 SSTORE POP DUP2 PUSH1 0x2 PUSH1 0x0 DUP4 DUP2 MSTORE PUSH1 0x20 ADD SWAP1 DUP2 MSTORE PUSH1 0x20 ADD PUSH1 0x0 KECCAK256 PUSH1 0x0 PUSH2 0x100 EXP DUP2 SLOAD DUP2 PUSH20 0xFFFFFFFFFFFFFFFFFFFFFFFFFFFFFFFFFFFFFFFF MUL NOT AND SWAP1 DUP4 PUSH20 0xFFFFFFFFFFFFFFFFFFFFFFFFFFFFFFFFFFFFFFFF AND MUL OR SWAP1 SSTORE POP DUP1 DUP3 PUSH20 0xFFFFFFFFFFFFFFFFFFFFFFFFFFFFFFFFFFFFFFFF AND DUP5 PUSH20 0xFFFFFFFFFFFFFFFFFFFFFFFFFFFFFFFFFFFFFFFF AND PUSH32 0xDDF252AD1BE2C89B69C2B068FC378DAA952BA7F163C4A11628F55A4DF523B3EF PUSH1 0x40 MLOAD PUSH1 0x40 MLOAD DUP1 SWAP2 SUB SWAP1 LOG4 PUSH2 0x20F0 DUP4 DUP4 DUP4 PUSH2 0x2707 JUMP JUMPDEST POP POP POP JUMP JUMPDEST PUSH1 0x0 DUP2 PUSH1 0x0 ADD SLOAD SWAP1 POP SWAP2 SWAP1 POP JUMP JUMPDEST PUSH1 0xD PUSH1 0x0 SWAP1 SLOAD SWAP1 PUSH2 0x100 EXP SWAP1 DIV PUSH20 0xFFFFFFFFFFFFFFFFFFFFFFFFFFFFFFFFFFFFFFFF AND PUSH20 0xFFFFFFFFFFFFFFFFFFFFFFFFFFFFFFFFFFFFFFFF AND CALLER PUSH20 0xFFFFFFFFFFFFFFFFFFFFFFFFFFFFFFFFFFFFFFFF AND EQ PUSH2 0x2193 JUMPI PUSH1 0x40 MLOAD PUSH32 0x8C379A000000000000000000000000000000000000000000000000000000000 DUP2 MSTORE PUSH1 0x4 ADD PUSH2 0x218A SWAP1 PUSH2 0x4AA0 JUMP JUMPDEST PUSH1 0x40 MLOAD DUP1 SWAP2 SUB SWAP1 REVERT JUMPDEST JUMP JUMPDEST PUSH1 0x0 PUSH1 0x9 PUSH1 0x0 SWAP1 SLOAD SWAP1 PUSH2 0x100 EXP SWAP1 DIV PUSH20 0xFFFFFFFFFFFFFFFFFFFFFFFFFFFFFFFFFFFFFFFF AND SWAP1 POP SWAP1 JUMP JUMPDEST PUSH1 0x1 DUP2 PUSH1 0x0 ADD PUSH1 0x0 DUP3 DUP3 SLOAD ADD SWAP3 POP POP DUP2 SWAP1 SSTORE POP POP JUMP JUMPDEST PUSH2 0x21EF DUP3 DUP3 PUSH1 0x40 MLOAD DUP1 PUSH1 0x20 ADD PUSH1 0x40 MSTORE DUP1 PUSH1 0x0 DUP2 MSTORE POP PUSH2 0x270C JUMP JUMPDEST POP POP JUMP JUMPDEST DUP2 PUSH20 0xFFFFFFFFFFFFFFFFFFFFFFFFFFFFFFFFFFFFFFFF AND DUP4 PUSH20 0xFFFFFFFFFFFFFFFFFFFFFFFFFFFFFFFFFFFFFFFF AND SUB PUSH2 0x2261 JUMPI PUSH1 0x40 MLOAD PUSH32 0x8C379A000000000000000000000000000000000000000000000000000000000 DUP2 MSTORE PUSH1 0x4 ADD PUSH2 0x2258 SWAP1 PUSH2 0x4B0C JUMP JUMPDEST PUSH1 0x40 MLOAD DUP1 SWAP2 SUB SWAP1 REVERT JUMPDEST DUP1 PUSH1 0x5 PUSH1 0x0 DUP6 PUSH20 0xFFFFFFFFFFFFFFFFFFFFFFFFFFFFFFFFFFFFFFFF AND PUSH20 0xFFFFFFFFFFFFFFFFFFFFFFFFFFFFFFFFFFFFFFFF AND DUP2 MSTORE PUSH1 0x20 ADD SWAP1 DUP2 MSTORE PUSH1 0x20 ADD PUSH1 0x0 KECCAK256 PUSH1 0x0 DUP5 PUSH20 0xFFFFFFFFFFFFFFFFFFFFFFFFFFFFFFFFFFFFFFFF AND PUSH20 0xFFFFFFFFFFFFFFFFFFFFFFFFFFFFFFFFFFFFFFFF AND DUP2 MSTORE PUSH1 0x20 ADD SWAP1 DUP2 MSTORE PUSH1 0x20 ADD PUSH1 0x0 KECCAK256 PUSH1 0x0 PUSH2 0x100 EXP DUP2 SLOAD DUP2 PUSH1 0xFF MUL NOT AND SWAP1 DUP4 ISZERO ISZERO MUL OR SWAP1 SSTORE POP DUP2 PUSH20 0xFFFFFFFFFFFFFFFFFFFFFFFFFFFFFFFFFFFFFFFF AND DUP4 PUSH20 0xFFFFFFFFFFFFFFFFFFFFFFFFFFFFFFFFFFFFFFFF AND PUSH32 0x17307EAB39AB6107E8899845AD3D59BD9653F200F220920489CA2B5937696C31 DUP4 PUSH1 0x40 MLOAD PUSH2 0x2352 SWAP2 SWAP1 PUSH2 0x35A0 JUMP JUMPDEST PUSH1 0x40 MLOAD DUP1 SWAP2 SUB SWAP1 LOG3 POP POP POP JUMP JUMPDEST PUSH2 0x236A DUP5 DUP5 DUP5 PUSH2 0x1E8F JUMP JUMPDEST PUSH2 0x2376 DUP5 DUP5 DUP5 DUP5 PUSH2 0x2767 JUMP JUMPDEST PUSH2 0x23B5 JUMPI PUSH1 0x40 MLOAD PUSH32 0x8C379A000000000000000000000000000000000000000000000000000000000 DUP2 MSTORE PUSH1 0x4 ADD PUSH2 0x23AC SWAP1 PUSH2 0x4B9E JUMP JUMPDEST PUSH1 0x40 MLOAD DUP1 SWAP2 SUB SWAP1 REVERT JUMPDEST POP POP POP POP JUMP JUMPDEST PUSH1 0x60 PUSH2 0x23C6 DUP3 PUSH2 0x1CEE JUMP JUMPDEST PUSH1 0x0 PUSH1 0x6 PUSH1 0x0 DUP5 DUP2 MSTORE PUSH1 0x20 ADD SWAP1 DUP2 MSTORE PUSH1 0x20 ADD PUSH1 0x0 KECCAK256 DUP1 SLOAD PUSH2 0x23E6 SWAP1 PUSH2 0x3EF2 JUMP JUMPDEST DUP1 PUSH1 0x1F ADD PUSH1 0x20 DUP1 SWAP2 DIV MUL PUSH1 0x20 ADD PUSH1 0x40 MLOAD SWAP1 DUP2 ADD PUSH1 0x40 MSTORE DUP1 SWAP3 SWAP2 SWAP1 DUP2 DUP2 MSTORE PUSH1 0x20 ADD DUP3 DUP1 SLOAD PUSH2 0x2412 SWAP1 PUSH2 0x3EF2 JUMP JUMPDEST DUP1 ISZERO PUSH2 0x245F JUMPI DUP1 PUSH1 0x1F LT PUSH2 0x2434 JUMPI PUSH2 0x100 DUP1 DUP4 SLOAD DIV MUL DUP4 MSTORE SWAP2 PUSH1 0x20 ADD SWAP2 PUSH2 0x245F JUMP JUMPDEST DUP3 ADD SWAP2 SWAP1 PUSH1 0x0 MSTORE PUSH1 0x20 PUSH1 0x0 KECCAK256 SWAP1 JUMPDEST DUP2 SLOAD DUP2 MSTORE SWAP1 PUSH1 0x1 ADD SWAP1 PUSH1 0x20 ADD DUP1 DUP4 GT PUSH2 0x2442 JUMPI DUP3 SWAP1 SUB PUSH1 0x1F AND DUP3 ADD SWAP2 JUMPDEST POP POP POP POP POP SWAP1 POP PUSH1 0x0 PUSH2 0x2470 PUSH2 0x28EE JUMP JUMPDEST SWAP1 POP PUSH1 0x0 DUP2 MLOAD SUB PUSH2 0x2485 JUMPI DUP2 SWAP3 POP POP POP PUSH2 0x24C8 JUMP JUMPDEST PUSH1 0x0 DUP3 MLOAD GT ISZERO PUSH2 0x24BA JUMPI DUP1 DUP3 PUSH1 0x40 MLOAD PUSH1 0x20 ADD PUSH2 0x24A2 SWAP3 SWAP2 SWAP1 PUSH2 0x4BBE JUMP JUMPDEST PUSH1 0x40 MLOAD PUSH1 0x20 DUP2 DUP4 SUB SUB DUP2 MSTORE SWAP1 PUSH1 0x40 MSTORE SWAP3 POP POP POP PUSH2 0x24C8 JUMP JUMPDEST PUSH2 0x24C3 DUP5 PUSH2 0x2905 JUMP JUMPDEST SWAP3 POP POP POP JUMPDEST SWAP2 SWAP1 POP JUMP JUMPDEST CALLER PUSH20 0xFFFFFFFFFFFFFFFFFFFFFFFFFFFFFFFFFFFFFFFF AND DUP2 PUSH20 0xFFFFFFFFFFFFFFFFFFFFFFFFFFFFFFFFFFFFFFFF AND SUB PUSH2 0x253B JUMPI PUSH1 0x40 MLOAD PUSH32 0x8C379A000000000000000000000000000000000000000000000000000000000 DUP2 MSTORE PUSH1 0x4 ADD PUSH2 0x2532 SWAP1 PUSH2 0x4C2E JUMP JUMPDEST PUSH1 0x40 MLOAD DUP1 SWAP2 SUB SWAP1 REVERT JUMPDEST DUP1 PUSH1 0xE PUSH1 0x0 PUSH2 0x100 EXP DUP2 SLOAD DUP2 PUSH20 0xFFFFFFFFFFFFFFFFFFFFFFFFFFFFFFFFFFFFFFFF MUL NOT AND SWAP1 DUP4 PUSH20 0xFFFFFFFFFFFFFFFFFFFFFFFFFFFFFFFFFFFFFFFF AND MUL OR SWAP1 SSTORE POP DUP1 PUSH20 0xFFFFFFFFFFFFFFFFFFFFFFFFFFFFFFFFFFFFFFFF AND PUSH1 0xD PUSH1 0x0 SWAP1 SLOAD SWAP1 PUSH2 0x100 EXP SWAP1 DIV PUSH20 0xFFFFFFFFFFFFFFFFFFFFFFFFFFFFFFFFFFFFFFFF AND PUSH20 0xFFFFFFFFFFFFFFFFFFFFFFFFFFFFFFFFFFFFFFFF AND PUSH32 0xED8889F560326EB138920D842192F0EB3DD22B4F139C87A2C57538E05BAE1278 PUSH1 0x40 MLOAD PUSH1 0x40 MLOAD DUP1 SWAP2 SUB SWAP1 LOG3 POP JUMP JUMPDEST PUSH2 0x2603 PUSH2 0x3465 JUMP JUMPDEST PUSH2 0x260B PUSH2 0x3465 JUMP JUMPDEST PUSH2 0x2622 DUP6 DUP6 DUP6 DUP5 PUSH2 0x296D SWAP1 SWAP4 SWAP3 SWAP2 SWAP1 PUSH4 0xFFFFFFFF AND JUMP JUMPDEST SWAP2 POP POP SWAP4 SWAP3 POP POP POP JUMP JUMPDEST PUSH2 0x2643 DUP3 DUP5 PUSH1 0x80 ADD MLOAD PUSH2 0x2A1D SWAP1 SWAP2 SWAP1 PUSH4 0xFFFFFFFF AND JUMP JUMPDEST PUSH2 0x265A DUP2 DUP5 PUSH1 0x80 ADD MLOAD PUSH2 0x2A1D SWAP1 SWAP2 SWAP1 PUSH4 0xFFFFFFFF AND JUMP JUMPDEST POP POP POP JUMP JUMPDEST PUSH1 0x0 PUSH2 0x268E PUSH1 0xA PUSH1 0x0 SWAP1 SLOAD SWAP1 PUSH2 0x100 EXP SWAP1 DIV PUSH20 0xFFFFFFFFFFFFFFFFFFFFFFFFFFFFFFFFFFFFFFFF AND DUP5 DUP5 PUSH2 0x2A42 JUMP JUMPDEST SWAP1 POP SWAP3 SWAP2 POP POP JUMP JUMPDEST PUSH1 0x0 DUP1 PUSH20 0xFFFFFFFFFFFFFFFFFFFFFFFFFFFFFFFFFFFFFFFF AND PUSH1 0x2 PUSH1 0x0 DUP5 DUP2 MSTORE PUSH1 0x20 ADD SWAP1 DUP2 MSTORE PUSH1 0x20 ADD PUSH1 0x0 KECCAK256 PUSH1 0x0 SWAP1 SLOAD SWAP1 PUSH2 0x100 EXP SWAP1 DIV PUSH20 0xFFFFFFFFFFFFFFFFFFFFFFFFFFFFFFFFFFFFFFFF AND PUSH20 0xFFFFFFFFFFFFFFFFFFFFFFFFFFFFFFFFFFFFFFFF AND EQ ISZERO SWAP1 POP SWAP2 SWAP1 POP JUMP JUMPDEST POP POP POP JUMP JUMPDEST POP POP POP JUMP JUMPDEST PUSH2 0x2716 DUP4 DUP4 PUSH2 0x2B0E JUMP JUMPDEST PUSH2 0x2723 PUSH1 0x0 DUP5 DUP5 DUP5 PUSH2 0x2767 JUMP JUMPDEST PUSH2 0x2762 JUMPI PUSH1 0x40 MLOAD PUSH32 0x8C379A000000000000000000000000000000000000000000000000000000000 DUP2 MSTORE PUSH1 0x4 ADD PUSH2 0x2759 SWAP1 PUSH2 0x4B9E JUMP JUMPDEST PUSH1 0x40 MLOAD DUP1 SWAP2 SUB SWAP1 REVERT JUMPDEST POP POP POP JUMP JUMPDEST PUSH1 0x0 PUSH2 0x2788 DUP5 PUSH20 0xFFFFFFFFFFFFFFFFFFFFFFFFFFFFFFFFFFFFFFFF AND PUSH2 0x2CE7 JUMP JUMPDEST ISZERO PUSH2 0x28E1 JUMPI DUP4 PUSH20 0xFFFFFFFFFFFFFFFFFFFFFFFFFFFFFFFFFFFFFFFF AND PUSH4 0x150B7A02 PUSH2 0x27B1 PUSH2 0x1D39 JUMP JUMPDEST DUP8 DUP7 DUP7 PUSH1 0x40 MLOAD DUP6 PUSH4 0xFFFFFFFF AND PUSH1 0xE0 SHL DUP2 MSTORE PUSH1 0x4 ADD PUSH2 0x27D3 SWAP5 SWAP4 SWAP3 SWAP2 SWAP1 PUSH2 0x4C4E JUMP JUMPDEST PUSH1 0x20 PUSH1 0x40 MLOAD DUP1 DUP4 SUB DUP2 PUSH1 0x0 DUP8 GAS CALL SWAP3 POP POP POP DUP1 ISZERO PUSH2 0x280F JUMPI POP PUSH1 0x40 MLOAD RETURNDATASIZE PUSH1 0x1F NOT PUSH1 0x1F DUP3 ADD AND DUP3 ADD DUP1 PUSH1 0x40 MSTORE POP DUP2 ADD SWAP1 PUSH2 0x280C SWAP2 SWAP1 PUSH2 0x4CAF JUMP JUMPDEST PUSH1 0x1 JUMPDEST PUSH2 0x2891 JUMPI RETURNDATASIZE DUP1 PUSH1 0x0 DUP2 EQ PUSH2 0x283F JUMPI PUSH1 0x40 MLOAD SWAP2 POP PUSH1 0x1F NOT PUSH1 0x3F RETURNDATASIZE ADD AND DUP3 ADD PUSH1 0x40 MSTORE RETURNDATASIZE DUP3 MSTORE RETURNDATASIZE PUSH1 0x0 PUSH1 0x20 DUP5 ADD RETURNDATACOPY PUSH2 0x2844 JUMP JUMPDEST PUSH1 0x60 SWAP2 POP JUMPDEST POP PUSH1 0x0 DUP2 MLOAD SUB PUSH2 0x2889 JUMPI PUSH1 0x40 MLOAD PUSH32 0x8C379A000000000000000000000000000000000000000000000000000000000 DUP2 MSTORE PUSH1 0x4 ADD PUSH2 0x2880 SWAP1 PUSH2 0x4B9E JUMP JUMPDEST PUSH1 0x40 MLOAD DUP1 SWAP2 SUB SWAP1 REVERT JUMPDEST DUP1 MLOAD DUP2 PUSH1 0x20 ADD REVERT JUMPDEST PUSH4 0x150B7A02 PUSH1 0xE0 SHL PUSH28 0xFFFFFFFFFFFFFFFFFFFFFFFFFFFFFFFFFFFFFFFFFFFFFFFFFFFFFFFF NOT AND DUP2 PUSH28 0xFFFFFFFFFFFFFFFFFFFFFFFFFFFFFFFFFFFFFFFFFFFFFFFFFFFFFFFF NOT AND EQ SWAP2 POP POP PUSH2 0x28E6 JUMP JUMPDEST PUSH1 0x1 SWAP1 POP JUMPDEST SWAP5 SWAP4 POP POP POP POP JUMP JUMPDEST PUSH1 0x60 PUSH1 0x40 MLOAD DUP1 PUSH1 0x20 ADD PUSH1 0x40 MSTORE DUP1 PUSH1 0x0 DUP2 MSTORE POP SWAP1 POP SWAP1 JUMP JUMPDEST PUSH1 0x60 PUSH2 0x2910 DUP3 PUSH2 0x1CEE JUMP JUMPDEST PUSH1 0x0 PUSH2 0x291A PUSH2 0x28EE JUMP JUMPDEST SWAP1 POP PUSH1 0x0 DUP2 MLOAD GT PUSH2 0x293A JUMPI PUSH1 0x40 MLOAD DUP1 PUSH1 0x20 ADD PUSH1 0x40 MSTORE DUP1 PUSH1 0x0 DUP2 MSTORE POP PUSH2 0x2965 JUMP JUMPDEST DUP1 PUSH2 0x2944 DUP5 PUSH2 0x2D0A JUMP JUMPDEST PUSH1 0x40 MLOAD PUSH1 0x20 ADD PUSH2 0x2955 SWAP3 SWAP2 SWAP1 PUSH2 0x4BBE JUMP JUMPDEST PUSH1 0x40 MLOAD PUSH1 0x20 DUP2 DUP4 SUB SUB DUP2 MSTORE SWAP1 PUSH1 0x40 MSTORE JUMPDEST SWAP2 POP POP SWAP2 SWAP1 POP JUMP JUMPDEST PUSH2 0x2975 PUSH2 0x3465 JUMP JUMPDEST PUSH2 0x2985 DUP6 PUSH1 0x80 ADD MLOAD PUSH2 0x100 PUSH2 0x2E6A JUMP JUMPDEST POP DUP4 DUP6 PUSH1 0x0 ADD DUP2 DUP2 MSTORE POP POP DUP3 DUP6 PUSH1 0x20 ADD SWAP1 PUSH20 0xFFFFFFFFFFFFFFFFFFFFFFFFFFFFFFFFFFFFFFFF AND SWAP1 DUP2 PUSH20 0xFFFFFFFFFFFFFFFFFFFFFFFFFFFFFFFFFFFFFFFF AND DUP2 MSTORE POP POP DUP2 DUP6 PUSH1 0x40 ADD SWAP1 PUSH28 0xFFFFFFFFFFFFFFFFFFFFFFFFFFFFFFFFFFFFFFFFFFFFFFFFFFFFFFFF NOT AND SWAP1 DUP2 PUSH28 0xFFFFFFFFFFFFFFFFFFFFFFFFFFFFFFFFFFFFFFFFFFFFFFFFFFFFFFFF NOT AND DUP2 MSTORE POP POP DUP5 SWAP1 POP SWAP5 SWAP4 POP POP POP POP JUMP JUMPDEST PUSH2 0x2A2A DUP3 PUSH1 0x3 DUP4 MLOAD PUSH2 0x2ED4 JUMP JUMPDEST PUSH2 0x2A3D DUP2 DUP4 PUSH2 0x3059 SWAP1 SWAP2 SWAP1 PUSH4 0xFFFFFFFF AND JUMP JUMPDEST POP POP POP JUMP JUMPDEST PUSH1 0x0 DUP1 PUSH1 0xB SLOAD SWAP1 POP PUSH1 0x1 DUP2 PUSH2 0x2A57 SWAP2 SWAP1 PUSH2 0x3F52 JUMP JUMPDEST PUSH1 0xB DUP2 SWAP1 SSTORE POP PUSH1 0x0 PUSH4 0x40429946 PUSH1 0xE0 SHL PUSH1 0x0 DUP1 DUP8 PUSH1 0x0 ADD MLOAD ADDRESS DUP10 PUSH1 0x40 ADD MLOAD DUP8 PUSH1 0x1 DUP13 PUSH1 0x80 ADD MLOAD PUSH1 0x0 ADD MLOAD PUSH1 0x40 MLOAD PUSH1 0x24 ADD PUSH2 0x2A98 SWAP9 SWAP8 SWAP7 SWAP6 SWAP5 SWAP4 SWAP3 SWAP2 SWAP1 PUSH2 0x4CFA JUMP JUMPDEST PUSH1 0x40 MLOAD PUSH1 0x20 DUP2 DUP4 SUB SUB DUP2 MSTORE SWAP1 PUSH1 0x40 MSTORE SWAP1 PUSH28 0xFFFFFFFFFFFFFFFFFFFFFFFFFFFFFFFFFFFFFFFFFFFFFFFFFFFFFFFF NOT AND PUSH1 0x20 DUP3 ADD DUP1 MLOAD PUSH28 0xFFFFFFFFFFFFFFFFFFFFFFFFFFFFFFFFFFFFFFFFFFFFFFFFFFFFFFFF DUP4 DUP2 DUP4 AND OR DUP4 MSTORE POP POP POP POP SWAP1 POP PUSH2 0x2B03 DUP7 DUP4 DUP7 DUP5 PUSH2 0x307B JUMP JUMPDEST SWAP3 POP POP POP SWAP4 SWAP3 POP POP POP JUMP JUMPDEST PUSH1 0x0 PUSH20 0xFFFFFFFFFFFFFFFFFFFFFFFFFFFFFFFFFFFFFFFF AND DUP3 PUSH20 0xFFFFFFFFFFFFFFFFFFFFFFFFFFFFFFFFFFFFFFFF AND SUB PUSH2 0x2B7D JUMPI PUSH1 0x40 MLOAD PUSH32 0x8C379A000000000000000000000000000000000000000000000000000000000 DUP2 MSTORE PUSH1 0x4 ADD PUSH2 0x2B74 SWAP1 PUSH2 0x4DCB JUMP JUMPDEST PUSH1 0x40 MLOAD DUP1 SWAP2 SUB SWAP1 REVERT JUMPDEST PUSH2 0x2B86 DUP2 PUSH2 0x2696 JUMP JUMPDEST ISZERO PUSH2 0x2BC6 JUMPI PUSH1 0x40 MLOAD PUSH32 0x8C379A000000000000000000000000000000000000000000000000000000000 DUP2 MSTORE PUSH1 0x4 ADD PUSH2 0x2BBD SWAP1 PUSH2 0x4E37 JUMP JUMPDEST PUSH1 0x40 MLOAD DUP1 SWAP2 SUB SWAP1 REVERT JUMPDEST PUSH2 0x2BD2 PUSH1 0x0 DUP4 DUP4 PUSH2 0x2702 JUMP JUMPDEST PUSH1 0x1 PUSH1 0x3 PUSH1 0x0 DUP5 PUSH20 0xFFFFFFFFFFFFFFFFFFFFFFFFFFFFFFFFFFFFFFFF AND PUSH20 0xFFFFFFFFFFFFFFFFFFFFFFFFFFFFFFFFFFFFFFFF AND DUP2 MSTORE PUSH1 0x20 ADD SWAP1 DUP2 MSTORE PUSH1 0x20 ADD PUSH1 0x0 KECCAK256 PUSH1 0x0 DUP3 DUP3 SLOAD PUSH2 0x2C22 SWAP2 SWAP1 PUSH2 0x3F52 JUMP JUMPDEST SWAP3 POP POP DUP2 SWAP1 SSTORE POP DUP2 PUSH1 0x2 PUSH1 0x0 DUP4 DUP2 MSTORE PUSH1 0x20 ADD SWAP1 DUP2 MSTORE PUSH1 0x20 ADD PUSH1 0x0 KECCAK256 PUSH1 0x0 PUSH2 0x100 EXP DUP2 SLOAD DUP2 PUSH20 0xFFFFFFFFFFFFFFFFFFFFFFFFFFFFFFFFFFFFFFFF MUL NOT AND SWAP1 DUP4 PUSH20 0xFFFFFFFFFFFFFFFFFFFFFFFFFFFFFFFFFFFFFFFF AND MUL OR SWAP1 SSTORE POP DUP1 DUP3 PUSH20 0xFFFFFFFFFFFFFFFFFFFFFFFFFFFFFFFFFFFFFFFF AND PUSH1 0x0 PUSH20 0xFFFFFFFFFFFFFFFFFFFFFFFFFFFFFFFFFFFFFFFF AND PUSH32 0xDDF252AD1BE2C89B69C2B068FC378DAA952BA7F163C4A11628F55A4DF523B3EF PUSH1 0x40 MLOAD PUSH1 0x40 MLOAD DUP1 SWAP2 SUB SWAP1 LOG4 PUSH2 0x2CE3 PUSH1 0x0 DUP4 DUP4 PUSH2 0x2707 JUMP JUMPDEST POP POP JUMP JUMPDEST PUSH1 0x0 DUP1 DUP3 PUSH20 0xFFFFFFFFFFFFFFFFFFFFFFFFFFFFFFFFFFFFFFFF AND EXTCODESIZE GT SWAP1 POP SWAP2 SWAP1 POP JUMP JUMPDEST PUSH1 0x60 PUSH1 0x0 DUP3 SUB PUSH2 0x2D51 JUMPI PUSH1 0x40 MLOAD DUP1 PUSH1 0x40 ADD PUSH1 0x40 MSTORE DUP1 PUSH1 0x1 DUP2 MSTORE PUSH1 0x20 ADD PUSH32 0x3000000000000000000000000000000000000000000000000000000000000000 DUP2 MSTORE POP SWAP1 POP PUSH2 0x2E65 JUMP JUMPDEST PUSH1 0x0 DUP3 SWAP1 POP PUSH1 0x0 JUMPDEST PUSH1 0x0 DUP3 EQ PUSH2 0x2D83 JUMPI DUP1 DUP1 PUSH2 0x2D6C SWAP1 PUSH2 0x4E57 JUMP JUMPDEST SWAP2 POP POP PUSH1 0xA DUP3 PUSH2 0x2D7C SWAP2 SWAP1 PUSH2 0x4ECE JUMP JUMPDEST SWAP2 POP PUSH2 0x2D59 JUMP JUMPDEST PUSH1 0x0 DUP2 PUSH8 0xFFFFFFFFFFFFFFFF DUP2 GT ISZERO PUSH2 0x2D9F JUMPI PUSH2 0x2D9E PUSH2 0x38E1 JUMP JUMPDEST JUMPDEST PUSH1 0x40 MLOAD SWAP1 DUP1 DUP3 MSTORE DUP1 PUSH1 0x1F ADD PUSH1 0x1F NOT AND PUSH1 0x20 ADD DUP3 ADD PUSH1 0x40 MSTORE DUP1 ISZERO PUSH2 0x2DD1 JUMPI DUP2 PUSH1 0x20 ADD PUSH1 0x1 DUP3 MUL DUP1 CALLDATASIZE DUP4 CALLDATACOPY DUP1 DUP3 ADD SWAP2 POP POP SWAP1 POP JUMPDEST POP SWAP1 POP JUMPDEST PUSH1 0x0 DUP6 EQ PUSH2 0x2E5E JUMPI PUSH1 0x1 DUP3 PUSH2 0x2DEA SWAP2 SWAP1 PUSH2 0x418D JUMP JUMPDEST SWAP2 POP PUSH1 0xA DUP6 PUSH2 0x2DF9 SWAP2 SWAP1 PUSH2 0x4EFF JUMP JUMPDEST PUSH1 0x30 PUSH2 0x2E05 SWAP2 SWAP1 PUSH2 0x3F52 JUMP JUMPDEST PUSH1 0xF8 SHL DUP2 DUP4 DUP2 MLOAD DUP2 LT PUSH2 0x2E1B JUMPI PUSH2 0x2E1A PUSH2 0x3FA8 JUMP JUMPDEST JUMPDEST PUSH1 0x20 ADD ADD SWAP1 PUSH31 0xFFFFFFFFFFFFFFFFFFFFFFFFFFFFFFFFFFFFFFFFFFFFFFFFFFFFFFFFFFFFFF NOT AND SWAP1 DUP2 PUSH1 0x0 BYTE SWAP1 MSTORE8 POP PUSH1 0xA DUP6 PUSH2 0x2E57 SWAP2 SWAP1 PUSH2 0x4ECE JUMP JUMPDEST SWAP5 POP PUSH2 0x2DD5 JUMP JUMPDEST DUP1 SWAP4 POP POP POP POP JUMPDEST SWAP2 SWAP1 POP JUMP JUMPDEST PUSH2 0x2E72 PUSH2 0x34D2 JUMP JUMPDEST PUSH1 0x0 PUSH1 0x20 DUP4 PUSH2 0x2E81 SWAP2 SWAP1 PUSH2 0x4EFF JUMP JUMPDEST EQ PUSH2 0x2EAD JUMPI PUSH1 0x20 DUP3 PUSH2 0x2E93 SWAP2 SWAP1 PUSH2 0x4EFF JUMP JUMPDEST PUSH1 0x20 PUSH2 0x2E9F SWAP2 SWAP1 PUSH2 0x418D JUMP JUMPDEST DUP3 PUSH2 0x2EAA SWAP2 SWAP1 PUSH2 0x3F52 JUMP JUMPDEST SWAP2 POP JUMPDEST DUP2 DUP4 PUSH1 0x20 ADD DUP2 DUP2 MSTORE POP POP PUSH1 0x40 MLOAD DUP1 DUP5 MSTORE PUSH1 0x0 DUP2 MSTORE DUP3 DUP2 ADD PUSH1 0x20 ADD PUSH1 0x40 MSTORE POP DUP3 SWAP1 POP SWAP3 SWAP2 POP POP JUMP JUMPDEST PUSH1 0x17 DUP2 PUSH8 0xFFFFFFFFFFFFFFFF AND GT PUSH2 0x2F0B JUMPI PUSH2 0x2F05 DUP2 PUSH1 0x5 DUP5 PUSH1 0xFF AND SWAP1 SHL PUSH1 0xFF AND OR DUP5 PUSH2 0x3210 SWAP1 SWAP2 SWAP1 PUSH4 0xFFFFFFFF AND JUMP JUMPDEST POP PUSH2 0x3054 JUMP JUMPDEST PUSH1 0xFF DUP2 PUSH8 0xFFFFFFFFFFFFFFFF AND GT PUSH2 0x2F61 JUMPI PUSH2 0x2F3A PUSH1 0x18 PUSH1 0x5 DUP5 PUSH1 0xFF AND SWAP1 SHL OR DUP5 PUSH2 0x3210 SWAP1 SWAP2 SWAP1 PUSH4 0xFFFFFFFF AND JUMP JUMPDEST POP PUSH2 0x2F5B DUP2 PUSH8 0xFFFFFFFFFFFFFFFF AND PUSH1 0x1 DUP6 PUSH2 0x3230 SWAP1 SWAP3 SWAP2 SWAP1 PUSH4 0xFFFFFFFF AND JUMP JUMPDEST POP PUSH2 0x3053 JUMP JUMPDEST PUSH2 0xFFFF DUP2 PUSH8 0xFFFFFFFFFFFFFFFF AND GT PUSH2 0x2FB8 JUMPI PUSH2 0x2F91 PUSH1 0x19 PUSH1 0x5 DUP5 PUSH1 0xFF AND SWAP1 SHL OR DUP5 PUSH2 0x3210 SWAP1 SWAP2 SWAP1 PUSH4 0xFFFFFFFF AND JUMP JUMPDEST POP PUSH2 0x2FB2 DUP2 PUSH8 0xFFFFFFFFFFFFFFFF AND PUSH1 0x2 DUP6 PUSH2 0x3230 SWAP1 SWAP3 SWAP2 SWAP1 PUSH4 0xFFFFFFFF AND JUMP JUMPDEST POP PUSH2 0x3052 JUMP JUMPDEST PUSH4 0xFFFFFFFF DUP2 PUSH8 0xFFFFFFFFFFFFFFFF AND GT PUSH2 0x3011 JUMPI PUSH2 0x2FEA PUSH1 0x1A PUSH1 0x5 DUP5 PUSH1 0xFF AND SWAP1 SHL OR DUP5 PUSH2 0x3210 SWAP1 SWAP2 SWAP1 PUSH4 0xFFFFFFFF AND JUMP JUMPDEST POP PUSH2 0x300B DUP2 PUSH8 0xFFFFFFFFFFFFFFFF AND PUSH1 0x4 DUP6 PUSH2 0x3230 SWAP1 SWAP3 SWAP2 SWAP1 PUSH4 0xFFFFFFFF AND JUMP JUMPDEST POP PUSH2 0x3051 JUMP JUMPDEST PUSH2 0x302E PUSH1 0x1B PUSH1 0x5 DUP5 PUSH1 0xFF AND SWAP1 SHL OR DUP5 PUSH2 0x3210 SWAP1 SWAP2 SWAP1 PUSH4 0xFFFFFFFF AND JUMP JUMPDEST POP PUSH2 0x304F DUP2 PUSH8 0xFFFFFFFFFFFFFFFF AND PUSH1 0x8 DUP6 PUSH2 0x3230 SWAP1 SWAP3 SWAP2 SWAP1 PUSH4 0xFFFFFFFF AND JUMP JUMPDEST POP JUMPDEST JUMPDEST JUMPDEST JUMPDEST POP POP POP JUMP JUMPDEST PUSH2 0x3061 PUSH2 0x34D2 JUMP JUMPDEST PUSH2 0x3073 DUP4 DUP5 PUSH1 0x0 ADD MLOAD MLOAD DUP5 DUP6 MLOAD PUSH2 0x3252 JUMP JUMPDEST SWAP1 POP SWAP3 SWAP2 POP POP JUMP JUMPDEST PUSH1 0x0 ADDRESS DUP5 PUSH1 0x40 MLOAD PUSH1 0x20 ADD PUSH2 0x3090 SWAP3 SWAP2 SWAP1 PUSH2 0x4FDF JUMP JUMPDEST PUSH1 0x40 MLOAD PUSH1 0x20 DUP2 DUP4 SUB SUB DUP2 MSTORE SWAP1 PUSH1 0x40 MSTORE DUP1 MLOAD SWAP1 PUSH1 0x20 ADD KECCAK256 SWAP1 POP DUP5 PUSH1 0xC PUSH1 0x0 DUP4 DUP2 MSTORE PUSH1 0x20 ADD SWAP1 DUP2 MSTORE PUSH1 0x20 ADD PUSH1 0x0 KECCAK256 PUSH1 0x0 PUSH2 0x100 EXP DUP2 SLOAD DUP2 PUSH20 0xFFFFFFFFFFFFFFFFFFFFFFFFFFFFFFFFFFFFFFFF MUL NOT AND SWAP1 DUP4 PUSH20 0xFFFFFFFFFFFFFFFFFFFFFFFFFFFFFFFFFFFFFFFF AND MUL OR SWAP1 SSTORE POP DUP1 PUSH32 0xB5E6E01E79F91267DC17B4E6314D5D4D03593D2CEEE0FBB452B750BD70EA5AF9 PUSH1 0x40 MLOAD PUSH1 0x40 MLOAD DUP1 SWAP2 SUB SWAP1 LOG2 PUSH1 0x9 PUSH1 0x0 SWAP1 SLOAD SWAP1 PUSH2 0x100 EXP SWAP1 DIV PUSH20 0xFFFFFFFFFFFFFFFFFFFFFFFFFFFFFFFFFFFFFFFF AND PUSH20 0xFFFFFFFFFFFFFFFFFFFFFFFFFFFFFFFFFFFFFFFF AND PUSH4 0x4000AEA0 DUP7 DUP6 DUP6 PUSH1 0x40 MLOAD DUP5 PUSH4 0xFFFFFFFF AND PUSH1 0xE0 SHL DUP2 MSTORE PUSH1 0x4 ADD PUSH2 0x3186 SWAP4 SWAP3 SWAP2 SWAP1 PUSH2 0x500B JUMP JUMPDEST PUSH1 0x20 PUSH1 0x40 MLOAD DUP1 DUP4 SUB DUP2 PUSH1 0x0 DUP8 GAS CALL ISZERO DUP1 ISZERO PUSH2 0x31A5 JUMPI RETURNDATASIZE PUSH1 0x0 DUP1 RETURNDATACOPY RETURNDATASIZE PUSH1 0x0 REVERT JUMPDEST POP POP POP POP PUSH1 0x40 MLOAD RETURNDATASIZE PUSH1 0x1F NOT PUSH1 0x1F DUP3 ADD AND DUP3 ADD DUP1 PUSH1 0x40 MSTORE POP DUP2 ADD SWAP1 PUSH2 0x31C9 SWAP2 SWAP1 PUSH2 0x4436 JUMP JUMPDEST PUSH2 0x3208 JUMPI PUSH1 0x40 MLOAD PUSH32 0x8C379A000000000000000000000000000000000000000000000000000000000 DUP2 MSTORE PUSH1 0x4 ADD PUSH2 0x31FF SWAP1 PUSH2 0x50BB JUMP JUMPDEST PUSH1 0x40 MLOAD DUP1 SWAP2 SUB SWAP1 REVERT JUMPDEST SWAP5 SWAP4 POP POP POP POP JUMP JUMPDEST PUSH2 0x3218 PUSH2 0x34D2 JUMP JUMPDEST PUSH2 0x3228 DUP4 DUP5 PUSH1 0x0 ADD MLOAD MLOAD DUP5 PUSH2 0x3341 JUMP JUMPDEST SWAP1 POP SWAP3 SWAP2 POP POP JUMP JUMPDEST PUSH2 0x3238 PUSH2 0x34D2 JUMP JUMPDEST PUSH2 0x3249 DUP5 DUP6 PUSH1 0x0 ADD MLOAD MLOAD DUP6 DUP6 PUSH2 0x3397 JUMP JUMPDEST SWAP1 POP SWAP4 SWAP3 POP POP POP JUMP JUMPDEST PUSH2 0x325A PUSH2 0x34D2 JUMP JUMPDEST DUP3 MLOAD DUP3 GT ISZERO PUSH2 0x3268 JUMPI PUSH1 0x0 DUP1 REVERT JUMPDEST DUP5 PUSH1 0x20 ADD MLOAD DUP3 DUP6 PUSH2 0x3279 SWAP2 SWAP1 PUSH2 0x3F52 JUMP JUMPDEST GT ISZERO PUSH2 0x32AE JUMPI PUSH2 0x32AD DUP6 PUSH1 0x2 PUSH2 0x329E DUP9 PUSH1 0x20 ADD MLOAD DUP9 DUP8 PUSH2 0x3299 SWAP2 SWAP1 PUSH2 0x3F52 JUMP JUMPDEST PUSH2 0x3425 JUMP JUMPDEST PUSH2 0x32A8 SWAP2 SWAP1 PUSH2 0x50DB JUMP JUMPDEST PUSH2 0x3441 JUMP JUMPDEST JUMPDEST PUSH1 0x0 DUP1 DUP7 MLOAD DUP1 MLOAD DUP8 PUSH1 0x20 DUP4 ADD ADD SWAP4 POP DUP1 DUP9 DUP8 ADD GT ISZERO PUSH2 0x32CD JUMPI DUP8 DUP7 ADD DUP3 MSTORE JUMPDEST PUSH1 0x20 DUP8 ADD SWAP3 POP POP POP JUMPDEST PUSH1 0x20 DUP5 LT PUSH2 0x3314 JUMPI DUP1 MLOAD DUP3 MSTORE PUSH1 0x20 DUP3 PUSH2 0x32EF SWAP2 SWAP1 PUSH2 0x3F52 JUMP JUMPDEST SWAP2 POP PUSH1 0x20 DUP2 PUSH2 0x32FE SWAP2 SWAP1 PUSH2 0x3F52 JUMP JUMPDEST SWAP1 POP PUSH1 0x20 DUP5 PUSH2 0x330D SWAP2 SWAP1 PUSH2 0x418D JUMP JUMPDEST SWAP4 POP PUSH2 0x32D6 JUMP JUMPDEST PUSH1 0x0 PUSH1 0x1 DUP6 PUSH1 0x20 SUB PUSH2 0x100 EXP SUB SWAP1 POP DUP1 NOT DUP3 MLOAD AND DUP2 DUP5 MLOAD AND DUP2 DUP2 OR DUP6 MSTORE POP POP POP DUP7 SWAP3 POP POP POP SWAP5 SWAP4 POP POP POP POP JUMP JUMPDEST PUSH2 0x3349 PUSH2 0x34D2 JUMP JUMPDEST DUP4 PUSH1 0x20 ADD MLOAD DUP4 LT PUSH2 0x336F JUMPI PUSH2 0x336E DUP5 PUSH1 0x2 DUP7 PUSH1 0x20 ADD MLOAD PUSH2 0x3369 SWAP2 SWAP1 PUSH2 0x50DB JUMP JUMPDEST PUSH2 0x3441 JUMP JUMPDEST JUMPDEST DUP4 MLOAD DUP1 MLOAD PUSH1 0x20 DUP6 DUP4 ADD ADD DUP5 DUP2 MSTORE8 DUP2 DUP7 SUB PUSH2 0x338A JUMPI PUSH1 0x1 DUP3 ADD DUP4 MSTORE JUMPDEST POP POP POP DUP4 SWAP1 POP SWAP4 SWAP3 POP POP POP JUMP JUMPDEST PUSH2 0x339F PUSH2 0x34D2 JUMP JUMPDEST DUP5 PUSH1 0x20 ADD MLOAD DUP5 DUP4 PUSH2 0x33B0 SWAP2 SWAP1 PUSH2 0x3F52 JUMP JUMPDEST GT ISZERO PUSH2 0x33D8 JUMPI PUSH2 0x33D7 DUP6 PUSH1 0x2 DUP7 DUP6 PUSH2 0x33C8 SWAP2 SWAP1 PUSH2 0x3F52 JUMP JUMPDEST PUSH2 0x33D2 SWAP2 SWAP1 PUSH2 0x50DB JUMP JUMPDEST PUSH2 0x3441 JUMP JUMPDEST JUMPDEST PUSH1 0x0 PUSH1 0x1 DUP4 PUSH2 0x100 PUSH2 0x33EA SWAP2 SWAP1 PUSH2 0x5268 JUMP JUMPDEST PUSH2 0x33F4 SWAP2 SWAP1 PUSH2 0x418D JUMP JUMPDEST SWAP1 POP DUP6 MLOAD DUP4 DUP7 DUP3 ADD ADD DUP6 DUP4 NOT DUP3 MLOAD AND OR DUP2 MSTORE DUP2 MLOAD DUP6 DUP9 ADD GT ISZERO PUSH2 0x3417 JUMPI DUP5 DUP8 ADD DUP3 MSTORE JUMPDEST POP POP DUP6 SWAP2 POP POP SWAP5 SWAP4 POP POP POP POP JUMP JUMPDEST PUSH1 0x0 DUP2 DUP4 GT ISZERO PUSH2 0x3437 JUMPI DUP3 SWAP1 POP PUSH2 0x343B JUMP JUMPDEST DUP2 SWAP1 POP JUMPDEST SWAP3 SWAP2 POP POP JUMP JUMPDEST PUSH1 0x0 DUP3 PUSH1 0x0 ADD MLOAD SWAP1 POP PUSH2 0x3454 DUP4 DUP4 PUSH2 0x2E6A JUMP JUMPDEST POP PUSH2 0x345F DUP4 DUP3 PUSH2 0x3059 JUMP JUMPDEST POP POP POP POP JUMP JUMPDEST PUSH1 0x40 MLOAD DUP1 PUSH1 0xA0 ADD PUSH1 0x40 MSTORE DUP1 PUSH1 0x0 DUP1 NOT AND DUP2 MSTORE PUSH1 0x20 ADD PUSH1 0x0 PUSH20 0xFFFFFFFFFFFFFFFFFFFFFFFFFFFFFFFFFFFFFFFF AND DUP2 MSTORE PUSH1 0x20 ADD PUSH1 0x0 PUSH28 0xFFFFFFFFFFFFFFFFFFFFFFFFFFFFFFFFFFFFFFFFFFFFFFFFFFFFFFFF NOT AND DUP2 MSTORE PUSH1 0x20 ADD PUSH1 0x0 DUP2 MSTORE PUSH1 0x20 ADD PUSH2 0x34CC PUSH2 0x34D2 JUMP JUMPDEST DUP2 MSTORE POP SWAP1 JUMP JUMPDEST PUSH1 0x40 MLOAD DUP1 PUSH1 0x40 ADD PUSH1 0x40 MSTORE DUP1 PUSH1 0x60 DUP2 MSTORE PUSH1 0x20 ADD PUSH1 0x0 DUP2 MSTORE POP SWAP1 JUMP JUMPDEST PUSH1 0x0 PUSH1 0x40 MLOAD SWAP1 POP SWAP1 JUMP JUMPDEST PUSH1 0x0 DUP1 REVERT JUMPDEST PUSH1 0x0 DUP1 REVERT JUMPDEST PUSH1 0x0 PUSH32 0xFFFFFFFF00000000000000000000000000000000000000000000000000000000 DUP3 AND SWAP1 POP SWAP2 SWAP1 POP JUMP JUMPDEST PUSH2 0x3535 DUP2 PUSH2 0x3500 JUMP JUMPDEST DUP2 EQ PUSH2 0x3540 JUMPI PUSH1 0x0 DUP1 REVERT JUMPDEST POP JUMP JUMPDEST PUSH1 0x0 DUP2 CALLDATALOAD SWAP1 POP PUSH2 0x3552 DUP2 PUSH2 0x352C JUMP JUMPDEST SWAP3 SWAP2 POP POP JUMP JUMPDEST PUSH1 0x0 PUSH1 0x20 DUP3 DUP5 SUB SLT ISZERO PUSH2 0x356E JUMPI PUSH2 0x356D PUSH2 0x34F6 JUMP JUMPDEST JUMPDEST PUSH1 0x0 PUSH2 0x357C DUP5 DUP3 DUP6 ADD PUSH2 0x3543 JUMP JUMPDEST SWAP2 POP POP SWAP3 SWAP2 POP POP JUMP JUMPDEST PUSH1 0x0 DUP2 ISZERO ISZERO SWAP1 POP SWAP2 SWAP1 POP JUMP JUMPDEST PUSH2 0x359A DUP2 PUSH2 0x3585 JUMP JUMPDEST DUP3 MSTORE POP POP JUMP JUMPDEST PUSH1 0x0 PUSH1 0x20 DUP3 ADD SWAP1 POP PUSH2 0x35B5 PUSH1 0x0 DUP4 ADD DUP5 PUSH2 0x3591 JUMP JUMPDEST SWAP3 SWAP2 POP POP JUMP JUMPDEST PUSH1 0x0 DUP2 MLOAD SWAP1 POP SWAP2 SWAP1 POP JUMP JUMPDEST PUSH1 0x0 DUP3 DUP3 MSTORE PUSH1 0x20 DUP3 ADD SWAP1 POP SWAP3 SWAP2 POP POP JUMP JUMPDEST PUSH1 0x0 JUMPDEST DUP4 DUP2 LT ISZERO PUSH2 0x35F5 JUMPI DUP1 DUP3 ADD MLOAD DUP2 DUP5 ADD MSTORE PUSH1 0x20 DUP2 ADD SWAP1 POP PUSH2 0x35DA JUMP JUMPDEST DUP4 DUP2 GT ISZERO PUSH2 0x3604 JUMPI PUSH1 0x0 DUP5 DUP5 ADD MSTORE JUMPDEST POP POP POP POP JUMP JUMPDEST PUSH1 0x0 PUSH1 0x1F NOT PUSH1 0x1F DUP4 ADD AND SWAP1 POP SWAP2 SWAP1 POP JUMP JUMPDEST PUSH1 0x0 PUSH2 0x3626 DUP3 PUSH2 0x35BB JUMP JUMPDEST PUSH2 0x3630 DUP2 DUP6 PUSH2 0x35C6 JUMP JUMPDEST SWAP4 POP PUSH2 0x3640 DUP2 DUP6 PUSH1 0x20 DUP7 ADD PUSH2 0x35D7 JUMP JUMPDEST PUSH2 0x3649 DUP2 PUSH2 0x360A JUMP JUMPDEST DUP5 ADD SWAP2 POP POP SWAP3 SWAP2 POP POP JUMP JUMPDEST PUSH1 0x0 PUSH1 0x20 DUP3 ADD SWAP1 POP DUP2 DUP2 SUB PUSH1 0x0 DUP4 ADD MSTORE PUSH2 0x366E DUP2 DUP5 PUSH2 0x361B JUMP JUMPDEST SWAP1 POP SWAP3 SWAP2 POP POP JUMP JUMPDEST PUSH1 0x0 DUP2 SWAP1 POP SWAP2 SWAP1 POP JUMP JUMPDEST PUSH2 0x3689 DUP2 PUSH2 0x3676 JUMP JUMPDEST DUP2 EQ PUSH2 0x3694 JUMPI PUSH1 0x0 DUP1 REVERT JUMPDEST POP JUMP JUMPDEST PUSH1 0x0 DUP2 CALLDATALOAD SWAP1 POP PUSH2 0x36A6 DUP2 PUSH2 0x3680 JUMP JUMPDEST SWAP3 SWAP2 POP POP JUMP JUMPDEST PUSH1 0x0 PUSH1 0x20 DUP3 DUP5 SUB SLT ISZERO PUSH2 0x36C2 JUMPI PUSH2 0x36C1 PUSH2 0x34F6 JUMP JUMPDEST JUMPDEST PUSH1 0x0 PUSH2 0x36D0 DUP5 DUP3 DUP6 ADD PUSH2 0x3697 JUMP JUMPDEST SWAP2 POP POP SWAP3 SWAP2 POP POP JUMP JUMPDEST PUSH1 0x0 PUSH20 0xFFFFFFFFFFFFFFFFFFFFFFFFFFFFFFFFFFFFFFFF DUP3 AND SWAP1 POP SWAP2 SWAP1 POP JUMP JUMPDEST PUSH1 0x0 PUSH2 0x3704 DUP3 PUSH2 0x36D9 JUMP JUMPDEST SWAP1 POP SWAP2 SWAP1 POP JUMP JUMPDEST PUSH2 0x3714 DUP2 PUSH2 0x36F9 JUMP JUMPDEST DUP3 MSTORE POP POP JUMP JUMPDEST PUSH1 0x0 PUSH1 0x20 DUP3 ADD SWAP1 POP PUSH2 0x372F PUSH1 0x0 DUP4 ADD DUP5 PUSH2 0x370B JUMP JUMPDEST SWAP3 SWAP2 POP POP JUMP JUMPDEST PUSH2 0x373E DUP2 PUSH2 0x36F9 JUMP JUMPDEST DUP2 EQ PUSH2 0x3749 JUMPI PUSH1 0x0 DUP1 REVERT JUMPDEST POP JUMP JUMPDEST PUSH1 0x0 DUP2 CALLDATALOAD SWAP1 POP PUSH2 0x375B DUP2 PUSH2 0x3735 JUMP JUMPDEST SWAP3 SWAP2 POP POP JUMP JUMPDEST PUSH1 0x0 DUP1 PUSH1 0x40 DUP4 DUP6 SUB SLT ISZERO PUSH2 0x3778 JUMPI PUSH2 0x3777 PUSH2 0x34F6 JUMP JUMPDEST JUMPDEST PUSH1 0x0 PUSH2 0x3786 DUP6 DUP3 DUP7 ADD PUSH2 0x374C JUMP JUMPDEST SWAP3 POP POP PUSH1 0x20 PUSH2 0x3797 DUP6 DUP3 DUP7 ADD PUSH2 0x3697 JUMP JUMPDEST SWAP2 POP POP SWAP3 POP SWAP3 SWAP1 POP JUMP JUMPDEST PUSH1 0x0 DUP1 PUSH1 0x0 PUSH1 0x60 DUP5 DUP7 SUB SLT ISZERO PUSH2 0x37BA JUMPI PUSH2 0x37B9 PUSH2 0x34F6 JUMP JUMPDEST JUMPDEST PUSH1 0x0 PUSH2 0x37C8 DUP7 DUP3 DUP8 ADD PUSH2 0x374C JUMP JUMPDEST SWAP4 POP POP PUSH1 0x20 PUSH2 0x37D9 DUP7 DUP3 DUP8 ADD PUSH2 0x374C JUMP JUMPDEST SWAP3 POP POP PUSH1 0x40 PUSH2 0x37EA DUP7 DUP3 DUP8 ADD PUSH2 0x3697 JUMP JUMPDEST SWAP2 POP POP SWAP3 POP SWAP3 POP SWAP3 JUMP JUMPDEST PUSH1 0x0 DUP1 REVERT JUMPDEST PUSH1 0x0 DUP1 REVERT JUMPDEST PUSH1 0x0 DUP1 REVERT JUMPDEST PUSH1 0x0 DUP1 DUP4 PUSH1 0x1F DUP5 ADD SLT PUSH2 0x3819 JUMPI PUSH2 0x3818 PUSH2 0x37F4 JUMP JUMPDEST JUMPDEST DUP3 CALLDATALOAD SWAP1 POP PUSH8 0xFFFFFFFFFFFFFFFF DUP2 GT ISZERO PUSH2 0x3836 JUMPI PUSH2 0x3835 PUSH2 0x37F9 JUMP JUMPDEST JUMPDEST PUSH1 0x20 DUP4 ADD SWAP2 POP DUP4 PUSH1 0x1 DUP3 MUL DUP4 ADD GT ISZERO PUSH2 0x3852 JUMPI PUSH2 0x3851 PUSH2 0x37FE JUMP JUMPDEST JUMPDEST SWAP3 POP SWAP3 SWAP1 POP JUMP JUMPDEST PUSH1 0x0 DUP1 PUSH1 0x20 DUP4 DUP6 SUB SLT ISZERO PUSH2 0x3870 JUMPI PUSH2 0x386F PUSH2 0x34F6 JUMP JUMPDEST JUMPDEST PUSH1 0x0 DUP4 ADD CALLDATALOAD PUSH8 0xFFFFFFFFFFFFFFFF DUP2 GT ISZERO PUSH2 0x388E JUMPI PUSH2 0x388D PUSH2 0x34FB JUMP JUMPDEST JUMPDEST PUSH2 0x389A DUP6 DUP3 DUP7 ADD PUSH2 0x3803 JUMP JUMPDEST SWAP3 POP SWAP3 POP POP SWAP3 POP SWAP3 SWAP1 POP JUMP JUMPDEST PUSH1 0x0 DUP2 SWAP1 POP SWAP2 SWAP1 POP JUMP JUMPDEST PUSH2 0x38B9 DUP2 PUSH2 0x38A6 JUMP JUMPDEST DUP2 EQ PUSH2 0x38C4 JUMPI PUSH1 0x0 DUP1 REVERT JUMPDEST POP JUMP JUMPDEST PUSH1 0x0 DUP2 CALLDATALOAD SWAP1 POP PUSH2 0x38D6 DUP2 PUSH2 0x38B0 JUMP JUMPDEST SWAP3 SWAP2 POP POP JUMP JUMPDEST PUSH1 0x0 DUP1 REVERT JUMPDEST PUSH32 0x4E487B7100000000000000000000000000000000000000000000000000000000 PUSH1 0x0 MSTORE PUSH1 0x41 PUSH1 0x4 MSTORE PUSH1 0x24 PUSH1 0x0 REVERT JUMPDEST PUSH2 0x3919 DUP3 PUSH2 0x360A JUMP JUMPDEST DUP2 ADD DUP2 DUP2 LT PUSH8 0xFFFFFFFFFFFFFFFF DUP3 GT OR ISZERO PUSH2 0x3938 JUMPI PUSH2 0x3937 PUSH2 0x38E1 JUMP JUMPDEST JUMPDEST DUP1 PUSH1 0x40 MSTORE POP POP POP JUMP JUMPDEST PUSH1 0x0 PUSH2 0x394B PUSH2 0x34EC JUMP JUMPDEST SWAP1 POP PUSH2 0x3957 DUP3 DUP3 PUSH2 0x3910 JUMP JUMPDEST SWAP2 SWAP1 POP JUMP JUMPDEST PUSH1 0x0 PUSH8 0xFFFFFFFFFFFFFFFF DUP3 GT ISZERO PUSH2 0x3977 JUMPI PUSH2 0x3976 PUSH2 0x38E1 JUMP JUMPDEST JUMPDEST PUSH2 0x3980 DUP3 PUSH2 0x360A JUMP JUMPDEST SWAP1 POP PUSH1 0x20 DUP2 ADD SWAP1 POP SWAP2 SWAP1 POP JUMP JUMPDEST DUP3 DUP2 DUP4 CALLDATACOPY PUSH1 0x0 DUP4 DUP4 ADD MSTORE POP POP POP JUMP JUMPDEST PUSH1 0x0 PUSH2 0x39AF PUSH2 0x39AA DUP5 PUSH2 0x395C JUMP JUMPDEST PUSH2 0x3941 JUMP JUMPDEST SWAP1 POP DUP3 DUP2 MSTORE PUSH1 0x20 DUP2 ADD DUP5 DUP5 DUP5 ADD GT ISZERO PUSH2 0x39CB JUMPI PUSH2 0x39CA PUSH2 0x38DC JUMP JUMPDEST JUMPDEST PUSH2 0x39D6 DUP5 DUP3 DUP6 PUSH2 0x398D JUMP JUMPDEST POP SWAP4 SWAP3 POP POP POP JUMP JUMPDEST PUSH1 0x0 DUP3 PUSH1 0x1F DUP4 ADD SLT PUSH2 0x39F3 JUMPI PUSH2 0x39F2 PUSH2 0x37F4 JUMP JUMPDEST JUMPDEST DUP2 CALLDATALOAD PUSH2 0x3A03 DUP5 DUP3 PUSH1 0x20 DUP7 ADD PUSH2 0x399C JUMP JUMPDEST SWAP2 POP POP SWAP3 SWAP2 POP POP JUMP JUMPDEST PUSH1 0x0 DUP1 PUSH1 0x0 DUP1 PUSH1 0x0 DUP1 PUSH1 0x0 PUSH1 0xE0 DUP9 DUP11 SUB SLT ISZERO PUSH2 0x3A2B JUMPI PUSH2 0x3A2A PUSH2 0x34F6 JUMP JUMPDEST JUMPDEST PUSH1 0x0 PUSH2 0x3A39 DUP11 DUP3 DUP12 ADD PUSH2 0x38C7 JUMP JUMPDEST SWAP8 POP POP PUSH1 0x20 DUP9 ADD CALLDATALOAD PUSH8 0xFFFFFFFFFFFFFFFF DUP2 GT ISZERO PUSH2 0x3A5A JUMPI PUSH2 0x3A59 PUSH2 0x34FB JUMP JUMPDEST JUMPDEST PUSH2 0x3A66 DUP11 DUP3 DUP12 ADD PUSH2 0x39DE JUMP JUMPDEST SWAP7 POP POP PUSH1 0x40 DUP9 ADD CALLDATALOAD PUSH8 0xFFFFFFFFFFFFFFFF DUP2 GT ISZERO PUSH2 0x3A87 JUMPI PUSH2 0x3A86 PUSH2 0x34FB JUMP JUMPDEST JUMPDEST PUSH2 0x3A93 DUP11 DUP3 DUP12 ADD PUSH2 0x39DE JUMP JUMPDEST SWAP6 POP POP PUSH1 0x60 DUP9 ADD CALLDATALOAD PUSH8 0xFFFFFFFFFFFFFFFF DUP2 GT ISZERO PUSH2 0x3AB4 JUMPI PUSH2 0x3AB3 PUSH2 0x34FB JUMP JUMPDEST JUMPDEST PUSH2 0x3AC0 DUP11 DUP3 DUP12 ADD PUSH2 0x39DE JUMP JUMPDEST SWAP5 POP POP PUSH1 0x80 DUP9 ADD CALLDATALOAD PUSH8 0xFFFFFFFFFFFFFFFF DUP2 GT ISZERO PUSH2 0x3AE1 JUMPI PUSH2 0x3AE0 PUSH2 0x34FB JUMP JUMPDEST JUMPDEST PUSH2 0x3AED DUP11 DUP3 DUP12 ADD PUSH2 0x39DE JUMP JUMPDEST SWAP4 POP POP PUSH1 0xA0 DUP9 ADD CALLDATALOAD PUSH8 0xFFFFFFFFFFFFFFFF DUP2 GT ISZERO PUSH2 0x3B0E JUMPI PUSH2 0x3B0D PUSH2 0x34FB JUMP JUMPDEST JUMPDEST PUSH2 0x3B1A DUP11 DUP3 DUP12 ADD PUSH2 0x39DE JUMP JUMPDEST SWAP3 POP POP PUSH1 0xC0 DUP9 ADD CALLDATALOAD PUSH8 0xFFFFFFFFFFFFFFFF DUP2 GT ISZERO PUSH2 0x3B3B JUMPI PUSH2 0x3B3A PUSH2 0x34FB JUMP JUMPDEST JUMPDEST PUSH2 0x3B47 DUP11 DUP3 DUP12 ADD PUSH2 0x39DE JUMP JUMPDEST SWAP2 POP POP SWAP3 SWAP6 SWAP9 SWAP2 SWAP5 SWAP8 POP SWAP3 SWAP6 POP JUMP JUMPDEST PUSH1 0x0 DUP2 MLOAD SWAP1 POP SWAP2 SWAP1 POP JUMP JUMPDEST PUSH1 0x0 DUP3 DUP3 MSTORE PUSH1 0x20 DUP3 ADD SWAP1 POP SWAP3 SWAP2 POP POP JUMP JUMPDEST PUSH1 0x0 PUSH2 0x3B7D DUP3 PUSH2 0x3B56 JUMP JUMPDEST PUSH2 0x3B87 DUP2 DUP6 PUSH2 0x3B61 JUMP JUMPDEST SWAP4 POP PUSH2 0x3B97 DUP2 DUP6 PUSH1 0x20 DUP7 ADD PUSH2 0x35D7 JUMP JUMPDEST PUSH2 0x3BA0 DUP2 PUSH2 0x360A JUMP JUMPDEST DUP5 ADD SWAP2 POP POP SWAP3 SWAP2 POP POP JUMP JUMPDEST PUSH1 0x0 PUSH1 0x40 DUP3 ADD SWAP1 POP PUSH2 0x3BC0 PUSH1 0x0 DUP4 ADD DUP6 PUSH2 0x3591 JUMP JUMPDEST DUP2 DUP2 SUB PUSH1 0x20 DUP4 ADD MSTORE PUSH2 0x3BD2 DUP2 DUP5 PUSH2 0x3B72 JUMP JUMPDEST SWAP1 POP SWAP4 SWAP3 POP POP POP JUMP JUMPDEST PUSH1 0x0 PUSH1 0x20 DUP3 DUP5 SUB SLT ISZERO PUSH2 0x3BF1 JUMPI PUSH2 0x3BF0 PUSH2 0x34F6 JUMP JUMPDEST JUMPDEST PUSH1 0x0 PUSH2 0x3BFF DUP5 DUP3 DUP6 ADD PUSH2 0x374C JUMP JUMPDEST SWAP2 POP POP SWAP3 SWAP2 POP POP JUMP JUMPDEST PUSH2 0x3C11 DUP2 PUSH2 0x3676 JUMP JUMPDEST DUP3 MSTORE POP POP JUMP JUMPDEST PUSH1 0x0 PUSH1 0x20 DUP3 ADD SWAP1 POP PUSH2 0x3C2C PUSH1 0x0 DUP4 ADD DUP5 PUSH2 0x3C08 JUMP JUMPDEST SWAP3 SWAP2 POP POP JUMP JUMPDEST PUSH2 0x3C3B DUP2 PUSH2 0x3585 JUMP JUMPDEST DUP2 EQ PUSH2 0x3C46 JUMPI PUSH1 0x0 DUP1 REVERT JUMPDEST POP JUMP JUMPDEST PUSH1 0x0 DUP2 CALLDATALOAD SWAP1 POP PUSH2 0x3C58 DUP2 PUSH2 0x3C32 JUMP JUMPDEST SWAP3 SWAP2 POP POP JUMP JUMPDEST PUSH1 0x0 DUP1 PUSH1 0x40 DUP4 DUP6 SUB SLT ISZERO PUSH2 0x3C75 JUMPI PUSH2 0x3C74 PUSH2 0x34F6 JUMP JUMPDEST JUMPDEST PUSH1 0x0 PUSH2 0x3C83 DUP6 DUP3 DUP7 ADD PUSH2 0x374C JUMP JUMPDEST SWAP3 POP POP PUSH1 0x20 PUSH2 0x3C94 DUP6 DUP3 DUP7 ADD PUSH2 0x3C49 JUMP JUMPDEST SWAP2 POP POP SWAP3 POP SWAP3 SWAP1 POP JUMP JUMPDEST PUSH1 0x0 PUSH8 0xFFFFFFFFFFFFFFFF DUP3 GT ISZERO PUSH2 0x3CB9 JUMPI PUSH2 0x3CB8 PUSH2 0x38E1 JUMP JUMPDEST JUMPDEST PUSH2 0x3CC2 DUP3 PUSH2 0x360A JUMP JUMPDEST SWAP1 POP PUSH1 0x20 DUP2 ADD SWAP1 POP SWAP2 SWAP1 POP JUMP JUMPDEST PUSH1 0x0 PUSH2 0x3CE2 PUSH2 0x3CDD DUP5 PUSH2 0x3C9E JUMP JUMPDEST PUSH2 0x3941 JUMP JUMPDEST SWAP1 POP DUP3 DUP2 MSTORE PUSH1 0x20 DUP2 ADD DUP5 DUP5 DUP5 ADD GT ISZERO PUSH2 0x3CFE JUMPI PUSH2 0x3CFD PUSH2 0x38DC JUMP JUMPDEST JUMPDEST PUSH2 0x3D09 DUP5 DUP3 DUP6 PUSH2 0x398D JUMP JUMPDEST POP SWAP4 SWAP3 POP POP POP JUMP JUMPDEST PUSH1 0x0 DUP3 PUSH1 0x1F DUP4 ADD SLT PUSH2 0x3D26 JUMPI PUSH2 0x3D25 PUSH2 0x37F4 JUMP JUMPDEST JUMPDEST DUP2 CALLDATALOAD PUSH2 0x3D36 DUP5 DUP3 PUSH1 0x20 DUP7 ADD PUSH2 0x3CCF JUMP JUMPDEST SWAP2 POP POP SWAP3 SWAP2 POP POP JUMP JUMPDEST PUSH1 0x0 DUP1 PUSH1 0x0 DUP1 PUSH1 0x80 DUP6 DUP8 SUB SLT ISZERO PUSH2 0x3D59 JUMPI PUSH2 0x3D58 PUSH2 0x34F6 JUMP JUMPDEST JUMPDEST PUSH1 0x0 PUSH2 0x3D67 DUP8 DUP3 DUP9 ADD PUSH2 0x374C JUMP JUMPDEST SWAP5 POP POP PUSH1 0x20 PUSH2 0x3D78 DUP8 DUP3 DUP9 ADD PUSH2 0x374C JUMP JUMPDEST SWAP4 POP POP PUSH1 0x40 PUSH2 0x3D89 DUP8 DUP3 DUP9 ADD PUSH2 0x3697 JUMP JUMPDEST SWAP3 POP POP PUSH1 0x60 DUP6 ADD CALLDATALOAD PUSH8 0xFFFFFFFFFFFFFFFF DUP2 GT ISZERO PUSH2 0x3DAA JUMPI PUSH2 0x3DA9 PUSH2 0x34FB JUMP JUMPDEST JUMPDEST PUSH2 0x3DB6 DUP8 DUP3 DUP9 ADD PUSH2 0x3D11 JUMP JUMPDEST SWAP2 POP POP SWAP3 SWAP6 SWAP2 SWAP5 POP SWAP3 POP JUMP JUMPDEST PUSH1 0x0 DUP1 PUSH1 0x40 DUP4 DUP6 SUB SLT ISZERO PUSH2 0x3DD9 JUMPI PUSH2 0x3DD8 PUSH2 0x34F6 JUMP JUMPDEST JUMPDEST PUSH1 0x0 DUP4 ADD CALLDATALOAD PUSH8 0xFFFFFFFFFFFFFFFF DUP2 GT ISZERO PUSH2 0x3DF7 JUMPI PUSH2 0x3DF6 PUSH2 0x34FB JUMP JUMPDEST JUMPDEST PUSH2 0x3E03 DUP6 DUP3 DUP7 ADD PUSH2 0x39DE JUMP JUMPDEST SWAP3 POP POP PUSH1 0x20 DUP4 ADD CALLDATALOAD PUSH8 0xFFFFFFFFFFFFFFFF DUP2 GT ISZERO PUSH2 0x3E24 JUMPI PUSH2 0x3E23 PUSH2 0x34FB JUMP JUMPDEST JUMPDEST PUSH2 0x3E30 DUP6 DUP3 DUP7 ADD PUSH2 0x39DE JUMP JUMPDEST SWAP2 POP POP SWAP3 POP SWAP3 SWAP1 POP JUMP JUMPDEST PUSH1 0x0 DUP1 PUSH1 0x40 DUP4 DUP6 SUB SLT ISZERO PUSH2 0x3E51 JUMPI PUSH2 0x3E50 PUSH2 0x34F6 JUMP JUMPDEST JUMPDEST PUSH1 0x0 PUSH2 0x3E5F DUP6 DUP3 DUP7 ADD PUSH2 0x374C JUMP JUMPDEST SWAP3 POP POP PUSH1 0x20 PUSH2 0x3E70 DUP6 DUP3 DUP7 ADD PUSH2 0x374C JUMP JUMPDEST SWAP2 POP POP SWAP3 POP SWAP3 SWAP1 POP JUMP JUMPDEST PUSH1 0x0 PUSH1 0x20 DUP3 DUP5 SUB SLT ISZERO PUSH2 0x3E90 JUMPI PUSH2 0x3E8F PUSH2 0x34F6 JUMP JUMPDEST JUMPDEST PUSH1 0x0 DUP3 ADD CALLDATALOAD PUSH8 0xFFFFFFFFFFFFFFFF DUP2 GT ISZERO PUSH2 0x3EAE JUMPI PUSH2 0x3EAD PUSH2 0x34FB JUMP JUMPDEST JUMPDEST PUSH2 0x3EBA DUP5 DUP3 DUP6 ADD PUSH2 0x39DE JUMP JUMPDEST SWAP2 POP POP SWAP3 SWAP2 POP POP JUMP JUMPDEST PUSH32 0x4E487B7100000000000000000000000000000000000000000000000000000000 PUSH1 0x0 MSTORE PUSH1 0x22 PUSH1 0x4 MSTORE PUSH1 0x24 PUSH1 0x0 REVERT JUMPDEST PUSH1 0x0 PUSH1 0x2 DUP3 DIV SWAP1 POP PUSH1 0x1 DUP3 AND DUP1 PUSH2 0x3F0A JUMPI PUSH1 0x7F DUP3 AND SWAP2 POP JUMPDEST PUSH1 0x20 DUP3 LT DUP2 SUB PUSH2 0x3F1D JUMPI PUSH2 0x3F1C PUSH2 0x3EC3 JUMP JUMPDEST JUMPDEST POP SWAP2 SWAP1 POP JUMP JUMPDEST PUSH32 0x4E487B7100000000000000000000000000000000000000000000000000000000 PUSH1 0x0 MSTORE PUSH1 0x11 PUSH1 0x4 MSTORE PUSH1 0x24 PUSH1 0x0 REVERT JUMPDEST PUSH1 0x0 PUSH2 0x3F5D DUP3 PUSH2 0x3676 JUMP JUMPDEST SWAP2 POP PUSH2 0x3F68 DUP4 PUSH2 0x3676 JUMP JUMPDEST SWAP3 POP DUP3 PUSH32 0xFFFFFFFFFFFFFFFFFFFFFFFFFFFFFFFFFFFFFFFFFFFFFFFFFFFFFFFFFFFFFFFF SUB DUP3 GT ISZERO PUSH2 0x3F9D JUMPI PUSH2 0x3F9C PUSH2 0x3F23 JUMP JUMPDEST JUMPDEST DUP3 DUP3 ADD SWAP1 POP SWAP3 SWAP2 POP POP JUMP JUMPDEST PUSH32 0x4E487B7100000000000000000000000000000000000000000000000000000000 PUSH1 0x0 MSTORE PUSH1 0x32 PUSH1 0x4 MSTORE PUSH1 0x24 PUSH1 0x0 REVERT JUMPDEST PUSH32 0x4552433732313A20617070726F76616C20746F2063757272656E74206F776E65 PUSH1 0x0 DUP3 ADD MSTORE PUSH32 0x7200000000000000000000000000000000000000000000000000000000000000 PUSH1 0x20 DUP3 ADD MSTORE POP JUMP JUMPDEST PUSH1 0x0 PUSH2 0x4033 PUSH1 0x21 DUP4 PUSH2 0x35C6 JUMP JUMPDEST SWAP2 POP PUSH2 0x403E DUP3 PUSH2 0x3FD7 JUMP JUMPDEST PUSH1 0x40 DUP3 ADD SWAP1 POP SWAP2 SWAP1 POP JUMP JUMPDEST PUSH1 0x0 PUSH1 0x20 DUP3 ADD SWAP1 POP DUP2 DUP2 SUB PUSH1 0x0 DUP4 ADD MSTORE PUSH2 0x4062 DUP2 PUSH2 0x4026 JUMP JUMPDEST SWAP1 POP SWAP2 SWAP1 POP JUMP JUMPDEST PUSH32 0x4552433732313A20617070726F76652063616C6C6572206973206E6F7420746F PUSH1 0x0 DUP3 ADD MSTORE PUSH32 0x6B656E206F776E6572206E6F7220617070726F76656420666F7220616C6C0000 PUSH1 0x20 DUP3 ADD MSTORE POP JUMP JUMPDEST PUSH1 0x0 PUSH2 0x40C5 PUSH1 0x3E DUP4 PUSH2 0x35C6 JUMP JUMPDEST SWAP2 POP PUSH2 0x40D0 DUP3 PUSH2 0x4069 JUMP JUMPDEST PUSH1 0x40 DUP3 ADD SWAP1 POP SWAP2 SWAP1 POP JUMP JUMPDEST PUSH1 0x0 PUSH1 0x20 DUP3 ADD SWAP1 POP DUP2 DUP2 SUB PUSH1 0x0 DUP4 ADD MSTORE PUSH2 0x40F4 DUP2 PUSH2 0x40B8 JUMP JUMPDEST SWAP1 POP SWAP2 SWAP1 POP JUMP JUMPDEST PUSH32 0x4552433732313A2063616C6C6572206973206E6F7420746F6B656E206F776E65 PUSH1 0x0 DUP3 ADD MSTORE PUSH32 0x72206E6F7220617070726F766564000000000000000000000000000000000000 PUSH1 0x20 DUP3 ADD MSTORE POP JUMP JUMPDEST PUSH1 0x0 PUSH2 0x4157 PUSH1 0x2E DUP4 PUSH2 0x35C6 JUMP JUMPDEST SWAP2 POP PUSH2 0x4162 DUP3 PUSH2 0x40FB JUMP JUMPDEST PUSH1 0x40 DUP3 ADD SWAP1 POP SWAP2 SWAP1 POP JUMP JUMPDEST PUSH1 0x0 PUSH1 0x20 DUP3 ADD SWAP1 POP DUP2 DUP2 SUB PUSH1 0x0 DUP4 ADD MSTORE PUSH2 0x4186 DUP2 PUSH2 0x414A JUMP JUMPDEST SWAP1 POP SWAP2 SWAP1 POP JUMP JUMPDEST PUSH1 0x0 PUSH2 0x4198 DUP3 PUSH2 0x3676 JUMP JUMPDEST SWAP2 POP PUSH2 0x41A3 DUP4 PUSH2 0x3676 JUMP JUMPDEST SWAP3 POP DUP3 DUP3 LT ISZERO PUSH2 0x41B6 JUMPI PUSH2 0x41B5 PUSH2 0x3F23 JUMP JUMPDEST JUMPDEST DUP3 DUP3 SUB SWAP1 POP SWAP3 SWAP2 POP POP JUMP JUMPDEST PUSH1 0x0 PUSH1 0xC0 DUP3 ADD SWAP1 POP DUP2 DUP2 SUB PUSH1 0x0 DUP4 ADD MSTORE PUSH2 0x41DB DUP2 DUP10 PUSH2 0x361B JUMP JUMPDEST SWAP1 POP DUP2 DUP2 SUB PUSH1 0x20 DUP4 ADD MSTORE PUSH2 0x41EF DUP2 DUP9 PUSH2 0x361B JUMP JUMPDEST SWAP1 POP DUP2 DUP2 SUB PUSH1 0x40 DUP4 ADD MSTORE PUSH2 0x4203 DUP2 DUP8 PUSH2 0x361B JUMP JUMPDEST SWAP1 POP DUP2 DUP2 SUB PUSH1 0x60 DUP4 ADD MSTORE PUSH2 0x4217 DUP2 DUP7 PUSH2 0x361B JUMP JUMPDEST SWAP1 POP DUP2 DUP2 SUB PUSH1 0x80 DUP4 ADD MSTORE PUSH2 0x422B DUP2 DUP6 PUSH2 0x361B JUMP JUMPDEST SWAP1 POP DUP2 DUP2 SUB PUSH1 0xA0 DUP4 ADD MSTORE PUSH2 0x423F DUP2 DUP5 PUSH2 0x361B JUMP JUMPDEST SWAP1 POP SWAP8 SWAP7 POP POP POP POP POP POP POP JUMP JUMPDEST PUSH32 0x4552433732313A20696E76616C696420746F6B656E2049440000000000000000 PUSH1 0x0 DUP3 ADD MSTORE POP JUMP JUMPDEST PUSH1 0x0 PUSH2 0x4282 PUSH1 0x18 DUP4 PUSH2 0x35C6 JUMP JUMPDEST SWAP2 POP PUSH2 0x428D DUP3 PUSH2 0x424C JUMP JUMPDEST PUSH1 0x20 DUP3 ADD SWAP1 POP SWAP2 SWAP1 POP JUMP JUMPDEST PUSH1 0x0 PUSH1 0x20 DUP3 ADD SWAP1 POP DUP2 DUP2 SUB PUSH1 0x0 DUP4 ADD MSTORE PUSH2 0x42B1 DUP2 PUSH2 0x4275 JUMP JUMPDEST SWAP1 POP SWAP2 SWAP1 POP JUMP JUMPDEST PUSH32 0x4552433732313A2061646472657373207A65726F206973206E6F742061207661 PUSH1 0x0 DUP3 ADD MSTORE PUSH32 0x6C6964206F776E65720000000000000000000000000000000000000000000000 PUSH1 0x20 DUP3 ADD MSTORE POP JUMP JUMPDEST PUSH1 0x0 PUSH2 0x4314 PUSH1 0x29 DUP4 PUSH2 0x35C6 JUMP JUMPDEST SWAP2 POP PUSH2 0x431F DUP3 PUSH2 0x42B8 JUMP JUMPDEST PUSH1 0x40 DUP3 ADD SWAP1 POP SWAP2 SWAP1 POP JUMP JUMPDEST PUSH1 0x0 PUSH1 0x20 DUP3 ADD SWAP1 POP DUP2 DUP2 SUB PUSH1 0x0 DUP4 ADD MSTORE PUSH2 0x4343 DUP2 PUSH2 0x4307 JUMP JUMPDEST SWAP1 POP SWAP2 SWAP1 POP JUMP JUMPDEST PUSH32 0x4D7573742062652070726F706F736564206F776E657200000000000000000000 PUSH1 0x0 DUP3 ADD MSTORE POP JUMP JUMPDEST PUSH1 0x0 PUSH2 0x4380 PUSH1 0x16 DUP4 PUSH2 0x35C6 JUMP JUMPDEST SWAP2 POP PUSH2 0x438B DUP3 PUSH2 0x434A JUMP JUMPDEST PUSH1 0x20 DUP3 ADD SWAP1 POP SWAP2 SWAP1 POP JUMP JUMPDEST PUSH1 0x0 PUSH1 0x20 DUP3 ADD SWAP1 POP DUP2 DUP2 SUB PUSH1 0x0 DUP4 ADD MSTORE PUSH2 0x43AF DUP2 PUSH2 0x4373 JUMP JUMPDEST SWAP1 POP SWAP2 SWAP1 POP JUMP JUMPDEST PUSH1 0x0 DUP2 MLOAD SWAP1 POP PUSH2 0x43C5 DUP2 PUSH2 0x3680 JUMP JUMPDEST SWAP3 SWAP2 POP POP JUMP JUMPDEST PUSH1 0x0 PUSH1 0x20 DUP3 DUP5 SUB SLT ISZERO PUSH2 0x43E1 JUMPI PUSH2 0x43E0 PUSH2 0x34F6 JUMP JUMPDEST JUMPDEST PUSH1 0x0 PUSH2 0x43EF DUP5 DUP3 DUP6 ADD PUSH2 0x43B6 JUMP JUMPDEST SWAP2 POP POP SWAP3 SWAP2 POP POP JUMP JUMPDEST PUSH1 0x0 PUSH1 0x40 DUP3 ADD SWAP1 POP PUSH2 0x440D PUSH1 0x0 DUP4 ADD DUP6 PUSH2 0x370B JUMP JUMPDEST PUSH2 0x441A PUSH1 0x20 DUP4 ADD DUP5 PUSH2 0x3C08 JUMP JUMPDEST SWAP4 SWAP3 POP POP POP JUMP JUMPDEST PUSH1 0x0 DUP2 MLOAD SWAP1 POP PUSH2 0x4430 DUP2 PUSH2 0x3C32 JUMP JUMPDEST SWAP3 SWAP2 POP POP JUMP JUMPDEST PUSH1 0x0 PUSH1 0x20 DUP3 DUP5 SUB SLT ISZERO PUSH2 0x444C JUMPI PUSH2 0x444B PUSH2 0x34F6 JUMP JUMPDEST JUMPDEST PUSH1 0x0 PUSH2 0x445A DUP5 DUP3 DUP6 ADD PUSH2 0x4421 JUMP JUMPDEST SWAP2 POP POP SWAP3 SWAP2 POP POP JUMP JUMPDEST PUSH32 0x556E61626C6520746F207472616E736665720000000000000000000000000000 PUSH1 0x0 DUP3 ADD MSTORE POP JUMP JUMPDEST PUSH1 0x0 PUSH2 0x4499 PUSH1 0x12 DUP4 PUSH2 0x35C6 JUMP JUMPDEST SWAP2 POP PUSH2 0x44A4 DUP3 PUSH2 0x4463 JUMP JUMPDEST PUSH1 0x20 DUP3 ADD SWAP1 POP SWAP2 SWAP1 POP JUMP JUMPDEST PUSH1 0x0 PUSH1 0x20 DUP3 ADD SWAP1 POP DUP2 DUP2 SUB PUSH1 0x0 DUP4 ADD MSTORE PUSH2 0x44C8 DUP2 PUSH2 0x448C JUMP JUMPDEST SWAP1 POP SWAP2 SWAP1 POP JUMP JUMPDEST PUSH32 0x5468652066756E647320646F6E27742073756666696369656E74000000000000 PUSH1 0x0 DUP3 ADD MSTORE POP JUMP JUMPDEST PUSH1 0x0 PUSH2 0x4505 PUSH1 0x1A DUP4 PUSH2 0x35C6 JUMP JUMPDEST SWAP2 POP PUSH2 0x4510 DUP3 PUSH2 0x44CF JUMP JUMPDEST PUSH1 0x20 DUP3 ADD SWAP1 POP SWAP2 SWAP1 POP JUMP JUMPDEST PUSH1 0x0 PUSH1 0x20 DUP3 ADD SWAP1 POP DUP2 DUP2 SUB PUSH1 0x0 DUP4 ADD MSTORE PUSH2 0x4534 DUP2 PUSH2 0x44F8 JUMP JUMPDEST SWAP1 POP SWAP2 SWAP1 POP JUMP JUMPDEST PUSH1 0x0 DUP2 SWAP1 POP SWAP3 SWAP2 POP POP JUMP JUMPDEST PUSH1 0x0 PUSH2 0x4551 DUP3 PUSH2 0x35BB JUMP JUMPDEST PUSH2 0x455B DUP2 DUP6 PUSH2 0x453B JUMP JUMPDEST SWAP4 POP PUSH2 0x456B DUP2 DUP6 PUSH1 0x20 DUP7 ADD PUSH2 0x35D7 JUMP JUMPDEST DUP1 DUP5 ADD SWAP2 POP POP SWAP3 SWAP2 POP POP JUMP JUMPDEST PUSH1 0x0 PUSH2 0x4583 DUP3 DUP5 PUSH2 0x4546 JUMP JUMPDEST SWAP2 POP DUP2 SWAP1 POP SWAP3 SWAP2 POP POP JUMP JUMPDEST PUSH32 0x536F75726365206D75737420626520746865206F7261636C65206F6620746865 PUSH1 0x0 DUP3 ADD MSTORE PUSH32 0x2072657175657374000000000000000000000000000000000000000000000000 PUSH1 0x20 DUP3 ADD MSTORE POP JUMP JUMPDEST PUSH1 0x0 PUSH2 0x45EA PUSH1 0x28 DUP4 PUSH2 0x35C6 JUMP JUMPDEST SWAP2 POP PUSH2 0x45F5 DUP3 PUSH2 0x458E JUMP JUMPDEST PUSH1 0x40 DUP3 ADD SWAP1 POP SWAP2 SWAP1 POP JUMP JUMPDEST PUSH1 0x0 PUSH1 0x20 DUP3 ADD SWAP1 POP DUP2 DUP2 SUB PUSH1 0x0 DUP4 ADD MSTORE PUSH2 0x4619 DUP2 PUSH2 0x45DD JUMP JUMPDEST SWAP1 POP SWAP2 SWAP1 POP JUMP JUMPDEST PUSH32 0x45524337323155524953746F726167653A2055524920736574206F66206E6F6E PUSH1 0x0 DUP3 ADD MSTORE PUSH32 0x6578697374656E7420746F6B656E000000000000000000000000000000000000 PUSH1 0x20 DUP3 ADD MSTORE POP JUMP JUMPDEST PUSH1 0x0 PUSH2 0x467C PUSH1 0x2E DUP4 PUSH2 0x35C6 JUMP JUMPDEST SWAP2 POP PUSH2 0x4687 DUP3 PUSH2 0x4620 JUMP JUMPDEST PUSH1 0x40 DUP3 ADD SWAP1 POP SWAP2 SWAP1 POP JUMP JUMPDEST PUSH1 0x0 PUSH1 0x20 DUP3 ADD SWAP1 POP DUP2 DUP2 SUB PUSH1 0x0 DUP4 ADD MSTORE PUSH2 0x46AB DUP2 PUSH2 0x466F JUMP JUMPDEST SWAP1 POP SWAP2 SWAP1 POP JUMP JUMPDEST PUSH1 0x0 DUP2 SWAP1 POP DUP2 PUSH1 0x0 MSTORE PUSH1 0x20 PUSH1 0x0 KECCAK256 SWAP1 POP SWAP2 SWAP1 POP JUMP JUMPDEST PUSH1 0x0 PUSH1 0x20 PUSH1 0x1F DUP4 ADD DIV SWAP1 POP SWAP2 SWAP1 POP JUMP JUMPDEST PUSH1 0x0 DUP3 DUP3 SHL SWAP1 POP SWAP3 SWAP2 POP POP JUMP JUMPDEST PUSH1 0x0 PUSH1 0x8 DUP4 MUL PUSH2 0x4714 PUSH32 0xFFFFFFFFFFFFFFFFFFFFFFFFFFFFFFFFFFFFFFFFFFFFFFFFFFFFFFFFFFFFFFFF DUP3 PUSH2 0x46D7 JUMP JUMPDEST PUSH2 0x471E DUP7 DUP4 PUSH2 0x46D7 JUMP JUMPDEST SWAP6 POP DUP1 NOT DUP5 AND SWAP4 POP DUP1 DUP7 AND DUP5 OR SWAP3 POP POP POP SWAP4 SWAP3 POP POP POP JUMP JUMPDEST PUSH1 0x0 DUP2 SWAP1 POP SWAP2 SWAP1 POP JUMP JUMPDEST PUSH1 0x0 PUSH2 0x475B PUSH2 0x4756 PUSH2 0x4751 DUP5 PUSH2 0x3676 JUMP JUMPDEST PUSH2 0x4736 JUMP JUMPDEST PUSH2 0x3676 JUMP JUMPDEST SWAP1 POP SWAP2 SWAP1 POP JUMP JUMPDEST PUSH1 0x0 DUP2 SWAP1 POP SWAP2 SWAP1 POP JUMP JUMPDEST PUSH2 0x4775 DUP4 PUSH2 0x4740 JUMP JUMPDEST PUSH2 0x4789 PUSH2 0x4781 DUP3 PUSH2 0x4762 JUMP JUMPDEST DUP5 DUP5 SLOAD PUSH2 0x46E4 JUMP JUMPDEST DUP3 SSTORE POP POP POP POP JUMP JUMPDEST PUSH1 0x0 SWAP1 JUMP JUMPDEST PUSH2 0x479E PUSH2 0x4791 JUMP JUMPDEST PUSH2 0x47A9 DUP2 DUP5 DUP5 PUSH2 0x476C JUMP JUMPDEST POP POP POP JUMP JUMPDEST JUMPDEST DUP2 DUP2 LT ISZERO PUSH2 0x47CD JUMPI PUSH2 0x47C2 PUSH1 0x0 DUP3 PUSH2 0x4796 JUMP JUMPDEST PUSH1 0x1 DUP2 ADD SWAP1 POP PUSH2 0x47AF JUMP JUMPDEST POP POP JUMP JUMPDEST PUSH1 0x1F DUP3 GT ISZERO PUSH2 0x4812 JUMPI PUSH2 0x47E3 DUP2 PUSH2 0x46B2 JUMP JUMPDEST PUSH2 0x47EC DUP5 PUSH2 0x46C7 JUMP JUMPDEST DUP2 ADD PUSH1 0x20 DUP6 LT ISZERO PUSH2 0x47FB JUMPI DUP2 SWAP1 POP JUMPDEST PUSH2 0x480F PUSH2 0x4807 DUP6 PUSH2 0x46C7 JUMP JUMPDEST DUP4 ADD DUP3 PUSH2 0x47AE JUMP JUMPDEST POP POP JUMPDEST POP POP POP JUMP JUMPDEST PUSH1 0x0 DUP3 DUP3 SHR SWAP1 POP SWAP3 SWAP2 POP POP JUMP JUMPDEST PUSH1 0x0 PUSH2 0x4835 PUSH1 0x0 NOT DUP5 PUSH1 0x8 MUL PUSH2 0x4817 JUMP JUMPDEST NOT DUP1 DUP4 AND SWAP2 POP POP SWAP3 SWAP2 POP POP JUMP JUMPDEST PUSH1 0x0 PUSH2 0x484E DUP4 DUP4 PUSH2 0x4824 JUMP JUMPDEST SWAP2 POP DUP3 PUSH1 0x2 MUL DUP3 OR SWAP1 POP SWAP3 SWAP2 POP POP JUMP JUMPDEST PUSH2 0x4867 DUP3 PUSH2 0x35BB JUMP JUMPDEST PUSH8 0xFFFFFFFFFFFFFFFF DUP2 GT ISZERO PUSH2 0x4880 JUMPI PUSH2 0x487F PUSH2 0x38E1 JUMP JUMPDEST JUMPDEST PUSH2 0x488A DUP3 SLOAD PUSH2 0x3EF2 JUMP JUMPDEST PUSH2 0x4895 DUP3 DUP3 DUP6 PUSH2 0x47D1 JUMP JUMPDEST PUSH1 0x0 PUSH1 0x20 SWAP1 POP PUSH1 0x1F DUP4 GT PUSH1 0x1 DUP2 EQ PUSH2 0x48C8 JUMPI PUSH1 0x0 DUP5 ISZERO PUSH2 0x48B6 JUMPI DUP3 DUP8 ADD MLOAD SWAP1 POP JUMPDEST PUSH2 0x48C0 DUP6 DUP3 PUSH2 0x4842 JUMP JUMPDEST DUP7 SSTORE POP PUSH2 0x4928 JUMP JUMPDEST PUSH1 0x1F NOT DUP5 AND PUSH2 0x48D6 DUP7 PUSH2 0x46B2 JUMP JUMPDEST PUSH1 0x0 JUMPDEST DUP3 DUP2 LT ISZERO PUSH2 0x48FE JUMPI DUP5 DUP10 ADD MLOAD DUP3 SSTORE PUSH1 0x1 DUP3 ADD SWAP2 POP PUSH1 0x20 DUP6 ADD SWAP5 POP PUSH1 0x20 DUP2 ADD SWAP1 POP PUSH2 0x48D9 JUMP JUMPDEST DUP7 DUP4 LT ISZERO PUSH2 0x491B JUMPI DUP5 DUP10 ADD MLOAD PUSH2 0x4917 PUSH1 0x1F DUP10 AND DUP3 PUSH2 0x4824 JUMP JUMPDEST DUP4 SSTORE POP JUMPDEST PUSH1 0x1 PUSH1 0x2 DUP9 MUL ADD DUP9 SSTORE POP POP POP JUMPDEST POP POP POP POP POP POP JUMP JUMPDEST PUSH32 0x4552433732313A207472616E736665722066726F6D20696E636F727265637420 PUSH1 0x0 DUP3 ADD MSTORE PUSH32 0x6F776E6572000000000000000000000000000000000000000000000000000000 PUSH1 0x20 DUP3 ADD MSTORE POP JUMP JUMPDEST PUSH1 0x0 PUSH2 0x498C PUSH1 0x25 DUP4 PUSH2 0x35C6 JUMP JUMPDEST SWAP2 POP PUSH2 0x4997 DUP3 PUSH2 0x4930 JUMP JUMPDEST PUSH1 0x40 DUP3 ADD SWAP1 POP SWAP2 SWAP1 POP JUMP JUMPDEST PUSH1 0x0 PUSH1 0x20 DUP3 ADD SWAP1 POP DUP2 DUP2 SUB PUSH1 0x0 DUP4 ADD MSTORE PUSH2 0x49BB DUP2 PUSH2 0x497F JUMP JUMPDEST SWAP1 POP SWAP2 SWAP1 POP JUMP JUMPDEST PUSH32 0x4552433732313A207472616E7366657220746F20746865207A65726F20616464 PUSH1 0x0 DUP3 ADD MSTORE PUSH32 0x7265737300000000000000000000000000000000000000000000000000000000 PUSH1 0x20 DUP3 ADD MSTORE POP JUMP JUMPDEST PUSH1 0x0 PUSH2 0x4A1E PUSH1 0x24 DUP4 PUSH2 0x35C6 JUMP JUMPDEST SWAP2 POP PUSH2 0x4A29 DUP3 PUSH2 0x49C2 JUMP JUMPDEST PUSH1 0x40 DUP3 ADD SWAP1 POP SWAP2 SWAP1 POP JUMP JUMPDEST PUSH1 0x0 PUSH1 0x20 DUP3 ADD SWAP1 POP DUP2 DUP2 SUB PUSH1 0x0 DUP4 ADD MSTORE PUSH2 0x4A4D DUP2 PUSH2 0x4A11 JUMP JUMPDEST SWAP1 POP SWAP2 SWAP1 POP JUMP JUMPDEST PUSH32 0x4F6E6C792063616C6C61626C65206279206F776E657200000000000000000000 PUSH1 0x0 DUP3 ADD MSTORE POP JUMP JUMPDEST PUSH1 0x0 PUSH2 0x4A8A PUSH1 0x16 DUP4 PUSH2 0x35C6 JUMP JUMPDEST SWAP2 POP PUSH2 0x4A95 DUP3 PUSH2 0x4A54 JUMP JUMPDEST PUSH1 0x20 DUP3 ADD SWAP1 POP SWAP2 SWAP1 POP JUMP JUMPDEST PUSH1 0x0 PUSH1 0x20 DUP3 ADD SWAP1 POP DUP2 DUP2 SUB PUSH1 0x0 DUP4 ADD MSTORE PUSH2 0x4AB9 DUP2 PUSH2 0x4A7D JUMP JUMPDEST SWAP1 POP SWAP2 SWAP1 POP JUMP JUMPDEST PUSH32 0x4552433732313A20617070726F766520746F2063616C6C657200000000000000 PUSH1 0x0 DUP3 ADD MSTORE POP JUMP JUMPDEST PUSH1 0x0 PUSH2 0x4AF6 PUSH1 0x19 DUP4 PUSH2 0x35C6 JUMP JUMPDEST SWAP2 POP PUSH2 0x4B01 DUP3 PUSH2 0x4AC0 JUMP JUMPDEST PUSH1 0x20 DUP3 ADD SWAP1 POP SWAP2 SWAP1 POP JUMP JUMPDEST PUSH1 0x0 PUSH1 0x20 DUP3 ADD SWAP1 POP DUP2 DUP2 SUB PUSH1 0x0 DUP4 ADD MSTORE PUSH2 0x4B25 DUP2 PUSH2 0x4AE9 JUMP JUMPDEST SWAP1 POP SWAP2 SWAP1 POP JUMP JUMPDEST PUSH32 0x4552433732313A207472616E7366657220746F206E6F6E204552433732315265 PUSH1 0x0 DUP3 ADD MSTORE PUSH32 0x63656976657220696D706C656D656E7465720000000000000000000000000000 PUSH1 0x20 DUP3 ADD MSTORE POP JUMP JUMPDEST PUSH1 0x0 PUSH2 0x4B88 PUSH1 0x32 DUP4 PUSH2 0x35C6 JUMP JUMPDEST SWAP2 POP PUSH2 0x4B93 DUP3 PUSH2 0x4B2C JUMP JUMPDEST PUSH1 0x40 DUP3 ADD SWAP1 POP SWAP2 SWAP1 POP JUMP JUMPDEST PUSH1 0x0 PUSH1 0x20 DUP3 ADD SWAP1 POP DUP2 DUP2 SUB PUSH1 0x0 DUP4 ADD MSTORE PUSH2 0x4BB7 DUP2 PUSH2 0x4B7B JUMP JUMPDEST SWAP1 POP SWAP2 SWAP1 POP JUMP JUMPDEST PUSH1 0x0 PUSH2 0x4BCA DUP3 DUP6 PUSH2 0x4546 JUMP JUMPDEST SWAP2 POP PUSH2 0x4BD6 DUP3 DUP5 PUSH2 0x4546 JUMP JUMPDEST SWAP2 POP DUP2 SWAP1 POP SWAP4 SWAP3 POP POP POP JUMP JUMPDEST PUSH32 0x43616E6E6F74207472616E7366657220746F2073656C66000000000000000000 PUSH1 0x0 DUP3 ADD MSTORE POP JUMP JUMPDEST PUSH1 0x0 PUSH2 0x4C18 PUSH1 0x17 DUP4 PUSH2 0x35C6 JUMP JUMPDEST SWAP2 POP PUSH2 0x4C23 DUP3 PUSH2 0x4BE2 JUMP JUMPDEST PUSH1 0x20 DUP3 ADD SWAP1 POP SWAP2 SWAP1 POP JUMP JUMPDEST PUSH1 0x0 PUSH1 0x20 DUP3 ADD SWAP1 POP DUP2 DUP2 SUB PUSH1 0x0 DUP4 ADD MSTORE PUSH2 0x4C47 DUP2 PUSH2 0x4C0B JUMP JUMPDEST SWAP1 POP SWAP2 SWAP1 POP JUMP JUMPDEST PUSH1 0x0 PUSH1 0x80 DUP3 ADD SWAP1 POP PUSH2 0x4C63 PUSH1 0x0 DUP4 ADD DUP8 PUSH2 0x370B JUMP JUMPDEST PUSH2 0x4C70 PUSH1 0x20 DUP4 ADD DUP7 PUSH2 0x370B JUMP JUMPDEST PUSH2 0x4C7D PUSH1 0x40 DUP4 ADD DUP6 PUSH2 0x3C08 JUMP JUMPDEST DUP2 DUP2 SUB PUSH1 0x60 DUP4 ADD MSTORE PUSH2 0x4C8F DUP2 DUP5 PUSH2 0x3B72 JUMP JUMPDEST SWAP1 POP SWAP6 SWAP5 POP POP POP POP POP JUMP JUMPDEST PUSH1 0x0 DUP2 MLOAD SWAP1 POP PUSH2 0x4CA9 DUP2 PUSH2 0x352C JUMP JUMPDEST SWAP3 SWAP2 POP POP JUMP JUMPDEST PUSH1 0x0 PUSH1 0x20 DUP3 DUP5 SUB SLT ISZERO PUSH2 0x4CC5 JUMPI PUSH2 0x4CC4 PUSH2 0x34F6 JUMP JUMPDEST JUMPDEST PUSH1 0x0 PUSH2 0x4CD3 DUP5 DUP3 DUP6 ADD PUSH2 0x4C9A JUMP JUMPDEST SWAP2 POP POP SWAP3 SWAP2 POP POP JUMP JUMPDEST PUSH2 0x4CE5 DUP2 PUSH2 0x38A6 JUMP JUMPDEST DUP3 MSTORE POP POP JUMP JUMPDEST PUSH2 0x4CF4 DUP2 PUSH2 0x3500 JUMP JUMPDEST DUP3 MSTORE POP POP JUMP JUMPDEST PUSH1 0x0 PUSH2 0x100 DUP3 ADD SWAP1 POP PUSH2 0x4D10 PUSH1 0x0 DUP4 ADD DUP12 PUSH2 0x370B JUMP JUMPDEST PUSH2 0x4D1D PUSH1 0x20 DUP4 ADD DUP11 PUSH2 0x3C08 JUMP JUMPDEST PUSH2 0x4D2A PUSH1 0x40 DUP4 ADD DUP10 PUSH2 0x4CDC JUMP JUMPDEST PUSH2 0x4D37 PUSH1 0x60 DUP4 ADD DUP9 PUSH2 0x370B JUMP JUMPDEST PUSH2 0x4D44 PUSH1 0x80 DUP4 ADD DUP8 PUSH2 0x4CEB JUMP JUMPDEST PUSH2 0x4D51 PUSH1 0xA0 DUP4 ADD DUP7 PUSH2 0x3C08 JUMP JUMPDEST PUSH2 0x4D5E PUSH1 0xC0 DUP4 ADD DUP6 PUSH2 0x3C08 JUMP JUMPDEST DUP2 DUP2 SUB PUSH1 0xE0 DUP4 ADD MSTORE PUSH2 0x4D70 DUP2 DUP5 PUSH2 0x3B72 JUMP JUMPDEST SWAP1 POP SWAP10 SWAP9 POP POP POP POP POP POP POP POP POP JUMP JUMPDEST PUSH32 0x4552433732313A206D696E7420746F20746865207A65726F2061646472657373 PUSH1 0x0 DUP3 ADD MSTORE POP JUMP JUMPDEST PUSH1 0x0 PUSH2 0x4DB5 PUSH1 0x20 DUP4 PUSH2 0x35C6 JUMP JUMPDEST SWAP2 POP PUSH2 0x4DC0 DUP3 PUSH2 0x4D7F JUMP JUMPDEST PUSH1 0x20 DUP3 ADD SWAP1 POP SWAP2 SWAP1 POP JUMP JUMPDEST PUSH1 0x0 PUSH1 0x20 DUP3 ADD SWAP1 POP DUP2 DUP2 SUB PUSH1 0x0 DUP4 ADD MSTORE PUSH2 0x4DE4 DUP2 PUSH2 0x4DA8 JUMP JUMPDEST SWAP1 POP SWAP2 SWAP1 POP JUMP JUMPDEST PUSH32 0x4552433732313A20746F6B656E20616C7265616479206D696E74656400000000 PUSH1 0x0 DUP3 ADD MSTORE POP JUMP JUMPDEST PUSH1 0x0 PUSH2 0x4E21 PUSH1 0x1C DUP4 PUSH2 0x35C6 JUMP JUMPDEST SWAP2 POP PUSH2 0x4E2C DUP3 PUSH2 0x4DEB JUMP JUMPDEST PUSH1 0x20 DUP3 ADD SWAP1 POP SWAP2 SWAP1 POP JUMP JUMPDEST PUSH1 0x0 PUSH1 0x20 DUP3 ADD SWAP1 POP DUP2 DUP2 SUB PUSH1 0x0 DUP4 ADD MSTORE PUSH2 0x4E50 DUP2 PUSH2 0x4E14 JUMP JUMPDEST SWAP1 POP SWAP2 SWAP1 POP JUMP JUMPDEST PUSH1 0x0 PUSH2 0x4E62 DUP3 PUSH2 0x3676 JUMP JUMPDEST SWAP2 POP PUSH32 0xFFFFFFFFFFFFFFFFFFFFFFFFFFFFFFFFFFFFFFFFFFFFFFFFFFFFFFFFFFFFFFFF DUP3 SUB PUSH2 0x4E94 JUMPI PUSH2 0x4E93 PUSH2 0x3F23 JUMP JUMPDEST JUMPDEST PUSH1 0x1 DUP3 ADD SWAP1 POP SWAP2 SWAP1 POP JUMP JUMPDEST PUSH32 0x4E487B7100000000000000000000000000000000000000000000000000000000 PUSH1 0x0 MSTORE PUSH1 0x12 PUSH1 0x4 MSTORE PUSH1 0x24 PUSH1 0x0 REVERT JUMPDEST PUSH1 0x0 PUSH2 0x4ED9 DUP3 PUSH2 0x3676 JUMP JUMPDEST SWAP2 POP PUSH2 0x4EE4 DUP4 PUSH2 0x3676 JUMP JUMPDEST SWAP3 POP DUP3 PUSH2 0x4EF4 JUMPI PUSH2 0x4EF3 PUSH2 0x4E9F JUMP JUMPDEST JUMPDEST DUP3 DUP3 DIV SWAP1 POP SWAP3 SWAP2 POP POP JUMP JUMPDEST PUSH1 0x0 PUSH2 0x4F0A DUP3 PUSH2 0x3676 JUMP JUMPDEST SWAP2 POP PUSH2 0x4F15 DUP4 PUSH2 0x3676 JUMP JUMPDEST SWAP3 POP DUP3 PUSH2 0x4F25 JUMPI PUSH2 0x4F24 PUSH2 0x4E9F JUMP JUMPDEST JUMPDEST DUP3 DUP3 MOD SWAP1 POP SWAP3 SWAP2 POP POP JUMP JUMPDEST PUSH1 0x0 PUSH2 0x4F4B PUSH2 0x4F46 PUSH2 0x4F41 DUP5 PUSH2 0x36D9 JUMP JUMPDEST PUSH2 0x4736 JUMP JUMPDEST PUSH2 0x36D9 JUMP JUMPDEST SWAP1 POP SWAP2 SWAP1 POP JUMP JUMPDEST PUSH1 0x0 PUSH2 0x4F5D DUP3 PUSH2 0x4F30 JUMP JUMPDEST SWAP1 POP SWAP2 SWAP1 POP JUMP JUMPDEST PUSH1 0x0 PUSH2 0x4F6F DUP3 PUSH2 0x4F52 JUMP JUMPDEST SWAP1 POP SWAP2 SWAP1 POP JUMP JUMPDEST PUSH1 0x0 DUP2 PUSH1 0x60 SHL SWAP1 POP SWAP2 SWAP1 POP JUMP JUMPDEST PUSH1 0x0 PUSH2 0x4F8E DUP3 PUSH2 0x4F76 JUMP JUMPDEST SWAP1 POP SWAP2 SWAP1 POP JUMP JUMPDEST PUSH1 0x0 PUSH2 0x4FA0 DUP3 PUSH2 0x4F83 JUMP JUMPDEST SWAP1 POP SWAP2 SWAP1 POP JUMP JUMPDEST PUSH2 0x4FB8 PUSH2 0x4FB3 DUP3 PUSH2 0x4F64 JUMP JUMPDEST PUSH2 0x4F95 JUMP JUMPDEST DUP3 MSTORE POP POP JUMP JUMPDEST PUSH1 0x0 DUP2 SWAP1 POP SWAP2 SWAP1 POP JUMP JUMPDEST PUSH2 0x4FD9 PUSH2 0x4FD4 DUP3 PUSH2 0x3676 JUMP JUMPDEST PUSH2 0x4FBE JUMP JUMPDEST DUP3 MSTORE POP POP JUMP JUMPDEST PUSH1 0x0 PUSH2 0x4FEB DUP3 DUP6 PUSH2 0x4FA7 JUMP JUMPDEST PUSH1 0x14 DUP3 ADD SWAP2 POP PUSH2 0x4FFB DUP3 DUP5 PUSH2 0x4FC8 JUMP JUMPDEST PUSH1 0x20 DUP3 ADD SWAP2 POP DUP2 SWAP1 POP SWAP4 SWAP3 POP POP POP JUMP JUMPDEST PUSH1 0x0 PUSH1 0x60 DUP3 ADD SWAP1 POP PUSH2 0x5020 PUSH1 0x0 DUP4 ADD DUP7 PUSH2 0x370B JUMP JUMPDEST PUSH2 0x502D PUSH1 0x20 DUP4 ADD DUP6 PUSH2 0x3C08 JUMP JUMPDEST DUP2 DUP2 SUB PUSH1 0x40 DUP4 ADD MSTORE PUSH2 0x503F DUP2 DUP5 PUSH2 0x3B72 JUMP JUMPDEST SWAP1 POP SWAP5 SWAP4 POP POP POP POP JUMP JUMPDEST PUSH32 0x756E61626C6520746F207472616E73666572416E6443616C6C20746F206F7261 PUSH1 0x0 DUP3 ADD MSTORE PUSH32 0x636C650000000000000000000000000000000000000000000000000000000000 PUSH1 0x20 DUP3 ADD MSTORE POP JUMP JUMPDEST PUSH1 0x0 PUSH2 0x50A5 PUSH1 0x23 DUP4 PUSH2 0x35C6 JUMP JUMPDEST SWAP2 POP PUSH2 0x50B0 DUP3 PUSH2 0x5049 JUMP JUMPDEST PUSH1 0x40 DUP3 ADD SWAP1 POP SWAP2 SWAP1 POP JUMP JUMPDEST PUSH1 0x0 PUSH1 0x20 DUP3 ADD SWAP1 POP DUP2 DUP2 SUB PUSH1 0x0 DUP4 ADD MSTORE PUSH2 0x50D4 DUP2 PUSH2 0x5098 JUMP JUMPDEST SWAP1 POP SWAP2 SWAP1 POP JUMP JUMPDEST PUSH1 0x0 PUSH2 0x50E6 DUP3 PUSH2 0x3676 JUMP JUMPDEST SWAP2 POP PUSH2 0x50F1 DUP4 PUSH2 0x3676 JUMP JUMPDEST SWAP3 POP DUP2 PUSH32 0xFFFFFFFFFFFFFFFFFFFFFFFFFFFFFFFFFFFFFFFFFFFFFFFFFFFFFFFFFFFFFFFF DIV DUP4 GT DUP3 ISZERO ISZERO AND ISZERO PUSH2 0x512A JUMPI PUSH2 0x5129 PUSH2 0x3F23 JUMP JUMPDEST JUMPDEST DUP3 DUP3 MUL SWAP1 POP SWAP3 SWAP2 POP POP JUMP JUMPDEST PUSH1 0x0 DUP2 PUSH1 0x1 SHR SWAP1 POP SWAP2 SWAP1 POP JUMP JUMPDEST PUSH1 0x0 DUP1 DUP3 SWAP2 POP DUP4 SWAP1 POP JUMPDEST PUSH1 0x1 DUP6 GT ISZERO PUSH2 0x518C JUMPI DUP1 DUP7 DIV DUP2 GT ISZERO PUSH2 0x5168 JUMPI PUSH2 0x5167 PUSH2 0x3F23 JUMP JUMPDEST JUMPDEST PUSH1 0x1 DUP6 AND ISZERO PUSH2 0x5177 JUMPI DUP1 DUP3 MUL SWAP2 POP JUMPDEST DUP1 DUP2 MUL SWAP1 POP PUSH2 0x5185 DUP6 PUSH2 0x5135 JUMP JUMPDEST SWAP5 POP PUSH2 0x514C JUMP JUMPDEST SWAP5 POP SWAP5 SWAP3 POP POP POP JUMP JUMPDEST PUSH1 0x0 DUP3 PUSH2 0x51A5 JUMPI PUSH1 0x1 SWAP1 POP PUSH2 0x5261 JUMP JUMPDEST DUP2 PUSH2 0x51B3 JUMPI PUSH1 0x0 SWAP1 POP PUSH2 0x5261 JUMP JUMPDEST DUP2 PUSH1 0x1 DUP2 EQ PUSH2 0x51C9 JUMPI PUSH1 0x2 DUP2 EQ PUSH2 0x51D3 JUMPI PUSH2 0x5202 JUMP JUMPDEST PUSH1 0x1 SWAP2 POP POP PUSH2 0x5261 JUMP JUMPDEST PUSH1 0xFF DUP5 GT ISZERO PUSH2 0x51E5 JUMPI PUSH2 0x51E4 PUSH2 0x3F23 JUMP JUMPDEST JUMPDEST DUP4 PUSH1 0x2 EXP SWAP2 POP DUP5 DUP3 GT ISZERO PUSH2 0x51FC JUMPI PUSH2 0x51FB PUSH2 0x3F23 JUMP JUMPDEST JUMPDEST POP PUSH2 0x5261 JUMP JUMPDEST POP PUSH1 0x20 DUP4 LT PUSH2 0x133 DUP4 LT AND PUSH1 0x4E DUP5 LT PUSH1 0xB DUP5 LT AND OR ISZERO PUSH2 0x5237 JUMPI DUP3 DUP3 EXP SWAP1 POP DUP4 DUP2 GT ISZERO PUSH2 0x5232 JUMPI PUSH2 0x5231 PUSH2 0x3F23 JUMP JUMPDEST JUMPDEST PUSH2 0x5261 JUMP JUMPDEST PUSH2 0x5244 DUP5 DUP5 DUP5 PUSH1 0x1 PUSH2 0x5142 JUMP JUMPDEST SWAP3 POP SWAP1 POP DUP2 DUP5 DIV DUP2 GT ISZERO PUSH2 0x525B JUMPI PUSH2 0x525A PUSH2 0x3F23 JUMP JUMPDEST JUMPDEST DUP2 DUP2 MUL SWAP1 POP JUMPDEST SWAP4 SWAP3 POP POP POP JUMP JUMPDEST PUSH1 0x0 PUSH2 0x5273 DUP3 PUSH2 0x3676 JUMP JUMPDEST SWAP2 POP PUSH2 0x527E DUP4 PUSH2 0x3676 JUMP JUMPDEST SWAP3 POP PUSH2 0x52AB PUSH32 0xFFFFFFFFFFFFFFFFFFFFFFFFFFFFFFFFFFFFFFFFFFFFFFFFFFFFFFFFFFFFFFFF DUP5 DUP5 PUSH2 0x5195 JUMP JUMPDEST SWAP1 POP SWAP3 SWAP2 POP POP JUMP INVALID LOG2 PUSH5 0x6970667358 0x22 SLT KECCAK256 BALANCE PUSH13 0x5B513D98BCAC0084F8BDEF9189 CALLDATACOPY 0xC1 DUP3 PUSH3 0x28A3F4 0xE8 0xC GT BASEFEE CALLDATALOAD SAR 0xD4 PUSH24 0xE1EA64736F6C634300080F003368747470733A2F2F676174 PUSH6 0x7761792E7069 PUSH15 0x6174612E636C6F75642F697066732F MLOAD PUSH14 0x585446595269784C757964434C79 GAS GAS BALANCE SLOAD PUSH22 0x61446F756E4748476B7739614469584568434B595879 PUSH20 0x597168747470733A2F2F676174657761792E7069 PUSH15 0x6174612E636C6F75642F697066732F MLOAD PUSH14 0x52413241397831536F7A6448484C MSTORE8 CODESIZE CALLVALUE PUSH4 0x63443472 PUSH21 0x6764695661614878534778676F4B6E6D445063786A PUSH9 0x747470733A2F2F6761 PUSH21 0x657761792E70696E6174612E636C6F75642F697066 PUSH20 0x2F516D5572434D4E41465256477A52465A6E556B PUSH6 0x747042575862 PC PUSH12 0x793259676661366979567A68 PUSH16 0x4E51686D4B68747470733A2F2F676174 PUSH6 0x7761792E7069 PUSH15 0x6174612E636C6F75642F697066732F MLOAD PUSH14 0x58664452446672444A384B424D61 MSTORE CALLDATALOAD BASEFEE PUSH21 0x7363754135664C5A793475577A7963723446774134 0x4A PUSH12 0x7A533368747470733A2F2F67 PUSH2 0x7465 PUSH24 0x61792E70696E6174612E636C6F75642F697066732F516D65 DIFFICULTY CODESIZE PUSH6 0x444C69327732 SELFBALANCE MSTORE8 PUSH17 0x426F78696433726E5A4C586F376945655A 0x4A ORIGIN 0x4E PUSH23 0x6767684651334656617700000000000000000000000000 "},"methodIdentifiers":{"acceptOwnership()":"79ba5097","approve(address,uint256)":"095ea7b3","balanceOf(address)":"70a08231","changeNumber(uint256)":"07391dd6","checkUpkeep(bytes)":"6e04ff0d","compareStrings(string,string)":"bed34bba","fulfillMultipleParameters(bytes32,string,string,string,string,string,string)":"e063ad33","getApproved(uint256)":"081812fc","isApprovedForAll(address,address)":"e985e9c5","name()":"06fdde03","numberStage(uint256)":"85bf9d5b","owner()":"8da5cb5b","ownerOf(uint256)":"6352211e","performUpkeep(bytes)":"4585e33b","requestHook(bytes32,string,string,string,string,string,string)":"52d0b7fb","requestMultipleParameters(string)":"ffebd172","safeMint(address,uint256)":"a1448194","safeTransferFrom(address,address,uint256)":"42842e0e","safeTransferFrom(address,address,uint256,bytes)":"b88d4fde","setApprovalForAll(address,bool)":"a22cb465","supportsInterface(bytes4)":"01ffc9a7","symbol()":"95d89b41","tokenIdCounter()":"98bdf6f5","tokenURI(uint256)":"c87b56dd","transferFrom(address,address,uint256)":"23b872dd","transferOwnership(address)":"f2fde38b","withdrawLink()":"8dc654a2"}}}}}